{"contracts/ArcEscrowV2.sol":{"ArcEscrowV2":{"abi":[{"inputs":[{"internalType":"address","name":"_usdc","type":"address"},{"internalType":"address","name":"_aiOracle","type":"address"},{"internalType":"address","name":"_platformWallet","type":"address"}],"stateMutability":"nonpayable","type":"constructor"},{"inputs":[{"internalType":"address","name":"owner","type":"address"}],"name":"OwnableInvalidOwner","type":"error"},{"inputs":[{"internalType":"address","name":"account","type":"address"}],"name":"OwnableUnauthorizedAccount","type":"error"},{"inputs":[],"name":"ReentrancyGuardReentrantCall","type":"error"},{"inputs":[{"internalType":"address","name":"token","type":"address"}],"name":"SafeERC20FailedOperation","type":"error"},{"anonymous":false,"inputs":[{"indexed":true,"internalType":"address","name":"oldOracle","type":"address"},{"indexed":true,"internalType":"address","name":"newOracle","type":"address"}],"name":"AiOracleUpdated","type":"event"},{"anonymous":false,"inputs":[{"indexed":true,"internalType":"bytes32","name":"id","type":"bytes32"},{"indexed":true,"internalType":"address","name":"party","type":"address"},{"indexed":false,"internalType":"bool","name":"buyerApproved","type":"bool"},{"indexed":false,"internalType":"bool","name":"sellerApproved","type":"bool"}],"name":"Approved","type":"event"},{"anonymous":false,"inputs":[{"indexed":true,"internalType":"bytes32","name":"id","type":"bytes32"},{"indexed":true,"internalType":"address","name":"party","type":"address"},{"indexed":false,"internalType":"bytes32","name":"defenseHash","type":"bytes32"}],"name":"DefenseSubmitted","type":"event"},{"anonymous":false,"inputs":[{"indexed":true,"internalType":"bytes32","name":"id","type":"bytes32"},{"indexed":false,"internalType":"bytes32","name":"deliverableHash","type":"bytes32"}],"name":"DeliverableSubmitted","type":"event"},{"anonymous":false,"inputs":[{"indexed":true,"internalType":"bytes32","name":"id","type":"bytes32"},{"indexed":true,"internalType":"address","name":"buyer","type":"address"},{"indexed":false,"internalType":"uint256","name":"amount","type":"uint256"}],"name":"Deposited","type":"event"},{"anonymous":false,"inputs":[{"indexed":true,"internalType":"bytes32","name":"id","type":"bytes32"},{"indexed":true,"internalType":"address","name":"initiator","type":"address"}],"name":"Disputed","type":"event"},{"anonymous":false,"inputs":[{"indexed":true,"internalType":"bytes32","name":"id","type":"bytes32"},{"indexed":true,"internalType":"address","name":"buyer","type":"address"},{"indexed":true,"internalType":"address","name":"seller","type":"address"},{"indexed":false,"internalType":"uint256","name":"amount","type":"uint256"},{"indexed":false,"internalType":"enum ArcEscrowV2.Mode","name":"mode","type":"uint8"}],"name":"EscrowCreated","type":"event"},{"anonymous":false,"inputs":[{"indexed":true,"internalType":"bytes32","name":"id","type":"bytes32"},{"indexed":false,"internalType":"bytes32","name":"evidenceHash","type":"bytes32"}],"name":"InitialEvidenceSubmitted","type":"event"},{"anonymous":false,"inputs":[{"indexed":true,"internalType":"bytes32","name":"id","type":"bytes32"},{"indexed":true,"internalType":"address","name":"seller","type":"address"},{"indexed":false,"internalType":"uint256","name":"amount","type":"uint256"}],"name":"JobCompleted","type":"event"},{"anonymous":false,"inputs":[{"indexed":true,"internalType":"bytes32","name":"id","type":"bytes32"},{"indexed":true,"internalType":"address","name":"buyer","type":"address"},{"indexed":false,"internalType":"uint256","name":"amount","type":"uint256"}],"name":"JobRejected","type":"event"},{"anonymous":false,"inputs":[{"indexed":true,"internalType":"bytes32","name":"id","type":"bytes32"},{"indexed":false,"internalType":"uint256","name":"index","type":"uint256"},{"indexed":false,"internalType":"bytes32","name":"defenseHash","type":"bytes32"}],"name":"MilestoneDefenseSubmitted","type":"event"},{"anonymous":false,"inputs":[{"indexed":true,"internalType":"bytes32","name":"id","type":"bytes32"},{"indexed":false,"internalType":"uint256","name":"index","type":"uint256"},{"indexed":false,"internalType":"bytes32","name":"deliverableHash","type":"bytes32"}],"name":"MilestoneDeliverableSubmitted","type":"event"},{"anonymous":false,"inputs":[{"indexed":true,"internalType":"bytes32","name":"id","type":"bytes32"},{"indexed":false,"internalType":"uint256","name":"index","type":"uint256"},{"indexed":true,"internalType":"address","name":"initiator","type":"address"}],"name":"MilestoneDisputed","type":"event"},{"anonymous":false,"inputs":[{"indexed":true,"internalType":"bytes32","name":"id","type":"bytes32"},{"indexed":false,"internalType":"uint256","name":"index","type":"uint256"},{"indexed":true,"internalType":"address","name":"seller","type":"address"},{"indexed":false,"internalType":"uint256","name":"amount","type":"uint256"}],"name":"MilestoneReleased","type":"event"},{"anonymous":false,"inputs":[{"indexed":true,"internalType":"bytes32","name":"id","type":"bytes32"},{"indexed":false,"internalType":"uint256","name":"index","type":"uint256"},{"indexed":true,"internalType":"address","name":"winner","type":"address"},{"indexed":false,"internalType":"uint256","name":"amount","type":"uint256"}],"name":"MilestoneResolved","type":"event"},{"anonymous":false,"inputs":[{"indexed":true,"internalType":"address","name":"previousOwner","type":"address"},{"indexed":true,"internalType":"address","name":"newOwner","type":"address"}],"name":"OwnershipTransferred","type":"event"},{"anonymous":false,"inputs":[{"indexed":false,"internalType":"uint256","name":"oldFee","type":"uint256"},{"indexed":false,"internalType":"uint256","name":"newFee","type":"uint256"}],"name":"PlatformFeeUpdated","type":"event"},{"anonymous":false,"inputs":[{"indexed":true,"internalType":"address","name":"oldWallet","type":"address"},{"indexed":true,"internalType":"address","name":"newWallet","type":"address"}],"name":"PlatformWalletUpdated","type":"event"},{"anonymous":false,"inputs":[{"indexed":true,"internalType":"bytes32","name":"id","type":"bytes32"},{"indexed":true,"internalType":"address","name":"seller","type":"address"},{"indexed":false,"internalType":"uint256","name":"amount","type":"uint256"}],"name":"Released","type":"event"},{"anonymous":false,"inputs":[{"indexed":true,"internalType":"bytes32","name":"id","type":"bytes32"},{"indexed":true,"internalType":"address","name":"winner","type":"address"},{"indexed":false,"internalType":"uint256","name":"amount","type":"uint256"}],"name":"Resolved","type":"event"},{"inputs":[],"name":"MS_COMPLETED","outputs":[{"internalType":"uint8","name":"","type":"uint8"}],"stateMutability":"view","type":"function"},{"inputs":[],"name":"MS_DISPUTED","outputs":[{"internalType":"uint8","name":"","type":"uint8"}],"stateMutability":"view","type":"function"},{"inputs":[],"name":"MS_PENDING","outputs":[{"internalType":"uint8","name":"","type":"uint8"}],"stateMutability":"view","type":"function"},{"inputs":[],"name":"MS_RESOLVED","outputs":[{"internalType":"uint8","name":"","type":"uint8"}],"stateMutability":"view","type":"function"},{"inputs":[],"name":"aiOracle","outputs":[{"internalType":"address","name":"","type":"address"}],"stateMutability":"view","type":"function"},{"inputs":[{"internalType":"bytes32","name":"id","type":"bytes32"}],"name":"approve","outputs":[],"stateMutability":"nonpayable","type":"function"},{"inputs":[{"internalType":"bytes32","name":"id","type":"bytes32"}],"name":"completeJob","outputs":[],"stateMutability":"nonpayable","type":"function"},{"inputs":[{"internalType":"bytes32","name":"id","type":"bytes32"},{"internalType":"address","name":"buyer","type":"address"},{"internalType":"address","name":"seller","type":"address"},{"internalType":"uint256","name":"amount","type":"uint256"},{"internalType":"enum ArcEscrowV2.Mode","name":"mode","type":"uint8"},{"internalType":"uint256[]","name":"milestoneAmounts","type":"uint256[]"}],"name":"createEscrow","outputs":[],"stateMutability":"nonpayable","type":"function"},{"inputs":[{"internalType":"bytes32","name":"id","type":"bytes32"}],"name":"deposit","outputs":[],"stateMutability":"nonpayable","type":"function"},{"inputs":[{"internalType":"bytes32","name":"id","type":"bytes32"},{"internalType":"bytes32","name":"disputeEvidenceHash","type":"bytes32"}],"name":"dispute","outputs":[],"stateMutability":"nonpayable","type":"function"},{"inputs":[{"internalType":"bytes32","name":"id","type":"bytes32"},{"internalType":"uint256","name":"index","type":"uint256"},{"internalType":"bytes32","name":"disputeEvidenceHash","type":"bytes32"}],"name":"disputeMilestone","outputs":[],"stateMutability":"nonpayable","type":"function"},{"inputs":[{"internalType":"bytes32","name":"","type":"bytes32"}],"name":"escrowExists","outputs":[{"internalType":"bool","name":"","type":"bool"}],"stateMutability":"view","type":"function"},{"inputs":[{"internalType":"bytes32","name":"","type":"bytes32"}],"name":"escrows","outputs":[{"internalType":"bytes32","name":"id","type":"bytes32"},{"internalType":"address","name":"buyer","type":"address"},{"internalType":"address","name":"seller","type":"address"},{"internalType":"uint256","name":"amount","type":"uint256"},{"internalType":"enum ArcEscrowV2.Mode","name":"mode","type":"uint8"},{"internalType":"enum ArcEscrowV2.Status","name":"status","type":"uint8"},{"internalType":"bool","name":"buyerApproved","type":"bool"},{"internalType":"bool","name":"sellerApproved","type":"bool"},{"internalType":"bytes32","name":"deliverableHash","type":"bytes32"},{"internalType":"bytes32","name":"initialEvidenceHash","type":"bytes32"},{"internalType":"bytes32","name":"disputeEvidenceHash","type":"bytes32"},{"internalType":"bytes32","name":"defenseEvidenceHash","type":"bytes32"},{"internalType":"address","name":"disputeInitiator","type":"address"}],"stateMutability":"view","type":"function"},{"inputs":[{"internalType":"bytes32","name":"id","type":"bytes32"}],"name":"getEscrow","outputs":[{"components":[{"internalType":"bytes32","name":"id","type":"bytes32"},{"internalType":"address","name":"buyer","type":"address"},{"internalType":"address","name":"seller","type":"address"},{"internalType":"uint256","name":"amount","type":"uint256"},{"internalType":"enum ArcEscrowV2.Mode","name":"mode","type":"uint8"},{"internalType":"enum ArcEscrowV2.Status","name":"status","type":"uint8"},{"internalType":"bool","name":"buyerApproved","type":"bool"},{"internalType":"bool","name":"sellerApproved","type":"bool"},{"internalType":"bytes32","name":"deliverableHash","type":"bytes32"},{"internalType":"bytes32","name":"initialEvidenceHash","type":"bytes32"},{"internalType":"bytes32","name":"disputeEvidenceHash","type":"bytes32"},{"internalType":"bytes32","name":"defenseEvidenceHash","type":"bytes32"},{"internalType":"address","name":"disputeInitiator","type":"address"},{"internalType":"uint256[]","name":"milestoneAmounts","type":"uint256[]"},{"internalType":"uint8[]","name":"milestoneStatuses","type":"uint8[]"},{"internalType":"bytes32[]","name":"milestoneDeliverableHashes","type":"bytes32[]"},{"internalType":"bytes32[]","name":"milestoneDisputeEvidence","type":"bytes32[]"},{"internalType":"address[]","name":"milestoneDisputeInitiators","type":"address[]"},{"internalType":"bytes32[]","name":"milestoneDefenseHashes","type":"bytes32[]"}],"internalType":"struct ArcEscrowV2.Escrow","name":"","type":"tuple"}],"stateMutability":"view","type":"function"},{"inputs":[],"name":"owner","outputs":[{"internalType":"address","name":"","type":"address"}],"stateMutability":"view","type":"function"},{"inputs":[],"name":"platformFee","outputs":[{"internalType":"uint256","name":"","type":"uint256"}],"stateMutability":"view","type":"function"},{"inputs":[],"name":"platformWallet","outputs":[{"internalType":"address","name":"","type":"address"}],"stateMutability":"view","type":"function"},{"inputs":[{"internalType":"bytes32","name":"id","type":"bytes32"}],"name":"rejectJob","outputs":[],"stateMutability":"nonpayable","type":"function"},{"inputs":[{"internalType":"bytes32","name":"id","type":"bytes32"},{"internalType":"uint256","name":"index","type":"uint256"}],"name":"releaseMilestone","outputs":[],"stateMutability":"nonpayable","type":"function"},{"inputs":[],"name":"renounceOwnership","outputs":[],"stateMutability":"nonpayable","type":"function"},{"inputs":[{"internalType":"bytes32","name":"id","type":"bytes32"},{"internalType":"address","name":"winner","type":"address"}],"name":"resolve","outputs":[],"stateMutability":"nonpayable","type":"function"},{"inputs":[{"internalType":"bytes32","name":"id","type":"bytes32"},{"internalType":"uint256","name":"index","type":"uint256"},{"internalType":"address","name":"winner","type":"address"}],"name":"resolveMilestone","outputs":[],"stateMutability":"nonpayable","type":"function"},{"inputs":[{"internalType":"address","name":"_aiOracle","type":"address"}],"name":"setAiOracle","outputs":[],"stateMutability":"nonpayable","type":"function"},{"inputs":[{"internalType":"uint256","name":"_fee","type":"uint256"}],"name":"setPlatformFee","outputs":[],"stateMutability":"nonpayable","type":"function"},{"inputs":[{"internalType":"address","name":"_wallet","type":"address"}],"name":"setPlatformWallet","outputs":[],"stateMutability":"nonpayable","type":"function"},{"inputs":[{"internalType":"bytes32","name":"id","type":"bytes32"},{"internalType":"bytes32","name":"defenseHash","type":"bytes32"}],"name":"submitDefense","outputs":[],"stateMutability":"nonpayable","type":"function"},{"inputs":[{"internalType":"bytes32","name":"id","type":"bytes32"},{"internalType":"bytes32","name":"deliverableHash","type":"bytes32"}],"name":"submitDeliverable","outputs":[],"stateMutability":"nonpayable","type":"function"},{"inputs":[{"internalType":"bytes32","name":"id","type":"bytes32"},{"internalType":"bytes32","name":"evidenceHash","type":"bytes32"}],"name":"submitInitialEvidence","outputs":[],"stateMutability":"nonpayable","type":"function"},{"inputs":[{"internalType":"bytes32","name":"id","type":"bytes32"},{"internalType":"uint256","name":"index","type":"uint256"},{"internalType":"bytes32","name":"defenseHash","type":"bytes32"}],"name":"submitMilestoneDefense","outputs":[],"stateMutability":"nonpayable","type":"function"},{"inputs":[{"internalType":"bytes32","name":"id","type":"bytes32"},{"internalType":"uint256","name":"index","type":"uint256"},{"internalType":"bytes32","name":"deliverableHash","type":"bytes32"}],"name":"submitMilestoneDeliverable","outputs":[],"stateMutability":"nonpayable","type":"function"},{"inputs":[{"internalType":"address","name":"newOwner","type":"address"}],"name":"transferOwnership","outputs":[],"stateMutability":"nonpayable","type":"function"},{"inputs":[],"name":"usdc","outputs":[{"internalType":"contract IERC20","name":"","type":"address"}],"stateMutability":"view","type":"function"}],"evm":{"bytecode":{"linkReferences":{},"object":"60a060405260fa6002553480156200001657600080fd5b5060405162003a1a38038062003a1a8339810160408190526200003991620001d4565b33806200006157604051631e4fbdf760e01b8152600060048201526024015b60405180910390fd5b6200006c8162000167565b5060017f9b779b17422d0df92223018b32b4d1fa46e071723d6817e2486d003becc55f00556001600160a01b038316620000d85760405162461bcd60e51b815260206004820152600c60248201526b496e76616c6964205553444360a01b604482015260640162000058565b6001600160a01b038116620001305760405162461bcd60e51b815260206004820152601760248201527f496e76616c696420706c6174666f726d2077616c6c6574000000000000000000604482015260640162000058565b6001600160a01b03928316608052600180549284166001600160a01b0319938416179055600380549190931691161790556200021e565b600080546001600160a01b038381166001600160a01b0319831681178455604051919092169283917f8be0079c531659141344cd1fd0a4f28419497f9722a3daafe3b4186f6b6457e09190a35050565b80516001600160a01b0381168114620001cf57600080fd5b919050565b600080600060608486031215620001ea57600080fd5b620001f584620001b7565b92506200020560208501620001b7565b91506200021560408501620001b7565b90509250925092565b6080516137b6620002646000396000818161035001528181611bc501528181611e6d0152818161218d0152818161270201528181612e320152612e7001526137b66000f3fe608060405234801561001057600080fd5b50600436106101f05760003560e01c80638831e9cf1161010f578063d8972491116100a2578063f2fde38b11610071578063f2fde38b146104dd578063fa2af9da146104f0578063fda1fd8314610503578063ffabbf4b1461051657600080fd5b8063d897249114610484578063dc8b728d14610497578063ef9d037c146104aa578063f023b811146104bd57600080fd5b8063a53a1adf116100de578063a53a1adf14610438578063b214faa51461044b578063d16866041461045e578063d46600aa1461047157600080fd5b80638831e9cf146103ee5780638da5cb5b14610401578063929eb2a314610412578063991e01391461042557600080fd5b80633ac1984611610187578063715018a611610156578063715018a61461038d5780637835ba3314610395578063801054ae146103c857806382cbf88b146103db57600080fd5b80633ac19846146103435780633e413bee1461034b5780636825104d146103725780636f6c8fbb1461037a57600080fd5b80631dff6dc7116101c35780631dff6dc71461024457806326232a2e146102575780632d83549c1461026e57806331b221cd1461031857600080fd5b806301e2f24a146101f557806312260f881461020a57806312e8e2c31461022957806318ff93051461023c575b600080fd5b61020861020336600461305c565b610529565b005b610212600281565b60405160ff90911681526020015b60405180910390f35b610208610237366004613088565b61075a565b610212600181565b61020861025236600461305c565b6107e7565b61026060025481565b604051908152602001610220565b6102ff61027c366004613088565b6004602081905260009182526040909120805460018201546002830154600384015494840154600585015460068601546007870154600888015460099098015496986001600160a01b039687169895871697909660ff8087169761010088048216976201000081048316976301000000909104909216959194919391929091168d565b6040516102209d9c9b9a999897969594939291906130db565b60015461032b906001600160a01b031681565b6040516001600160a01b039091168152602001610220565b610212600381565b61032b7f000000000000000000000000000000000000000000000000000000000000000081565b610212600081565b61020861038836600461316f565b610a32565b610208610c8f565b6103b86103a3366004613088565b60056020526000908152604090205460ff1681565b6040519015158152602001610220565b6102086103d63660046131ad565b610ca3565b6102086103e936600461316f565b61120e565b6102086103fc36600461326e565b6113f1565b6000546001600160a01b031661032b565b61020861042036600461316f565b61149c565b610208610433366004613088565b61160e565b610208610446366004613088565b61180b565b610208610459366004613088565b611ada565b61020861046c366004613290565b611c39565b61020861047f36600461316f565b611ed7565b610208610492366004613088565b612040565b6102086104a536600461305c565b6121ff565b6102086104b83660046132bc565b6124b2565b6104d06104cb366004613088565b612790565b6040516102209190613398565b6102086104eb36600461326e565b612b90565b60035461032b906001600160a01b031681565b61020861051136600461326e565b612bce565b61020861052436600461316f565b612c32565b600083815260056020526040902054839060ff166105625760405162461bcd60e51b81526004016105599061353c565b60405180910390fd5b600084815260046020526040902060028101546001600160a01b031633146105ba5760405162461bcd60e51b815260206004820152600b60248201526a27b7363c9039b2b63632b960a91b6044820152606401610559565b6002600482015460ff1660028111156105d5576105d56130a1565b146105f25760405162461bcd60e51b815260040161055990613566565b6001600482810154610100900460ff1690811115610612576106126130a1565b1461062f5760405162461bcd60e51b815260040161055990613594565b600a81015484106106525760405162461bcd60e51b8152600401610559906135b8565b600060ff1681600b01858154811061066c5761066c6135df565b60009182526020918290209181049091015460ff601f9092166101000a900416146106a95760405162461bcd60e51b8152600401610559906135f5565b826106ec5760405162461bcd60e51b8152602060048201526013602482015272486173682063616e6e6f74206265207a65726f60681b6044820152606401610559565b8281600c018581548110610702576107026135df565b9060005260206000200181905550847f685f618dc429a4453798b1b763c7ab2e71311fe3d9220002ae2b6f22496639b9858560405161074b929190918252602082015260400190565b60405180910390a25050505050565b610762612db2565b6103e88111156107a65760405162461bcd60e51b815260206004820152600f60248201526e46656520657863656564732031302560881b6044820152606401610559565b60025460408051918252602082018390527fd347e206f25a89b917fc9482f1a2d294d749baa4dc9bde7fb495ee11fe491643910160405180910390a1600255565b600083815260056020526040902054839060ff166108175760405162461bcd60e51b81526004016105599061353c565b60008481526004602052604090206002600482015460ff166002811115610840576108406130a1565b1461085d5760405162461bcd60e51b815260040161055990613566565b600a81015484106108805760405162461bcd60e51b8152600401610559906135b8565b600260ff1681600b01858154811061089a5761089a6135df565b60009182526020918290209181049091015460ff601f9092166101000a900416146108d75760405162461bcd60e51b81526004016105599061361a565b80600e0184815481106108ec576108ec6135df565b6000918252602090912001546001600160a01b0316330361094f5760405162461bcd60e51b815260206004820152601b60248201527f43616e6e6f74206265206469737075746520696e69746961746f7200000000006044820152606401610559565b60018101546001600160a01b0316331480610976575060028101546001600160a01b031633145b6109925760405162461bcd60e51b815260040161055990613640565b6000801b81600f0185815481106109ab576109ab6135df565b9060005260206000200154146109d35760405162461bcd60e51b815260040161055990613665565b8281600f0185815481106109e9576109e96135df565b9060005260206000200181905550847fd3e98a1f59c0d6777b1ba75361d009e58728247a51150d702bc7d7519b1d4034858560405161074b929190918252602082015260400190565b600082815260056020526040902054829060ff16610a625760405162461bcd60e51b81526004016105599061353c565b6001546001600160a01b0316331480610a8557506000546001600160a01b031633145b610aa15760405162461bcd60e51b815260040161055990613690565b610aa9612ddf565b60008381526004602052604090206002600482015460ff166002811115610ad257610ad26130a1565b14610aef5760405162461bcd60e51b815260040161055990613566565b6001600482810154610100900460ff1690811115610b0f57610b0f6130a1565b14610b2c5760405162461bcd60e51b815260040161055990613594565b600a8101548310610b4f5760405162461bcd60e51b8152600401610559906135b8565b600060ff1681600b018481548110610b6957610b696135df565b60009182526020918290209181049091015460ff601f9092166101000a90041614610ba65760405162461bcd60e51b8152600401610559906135f5565b600181600b018481548110610bbd57610bbd6135df565b90600052602060002090602091828204019190066101000a81548160ff021916908360ff160217905550600081600a018481548110610bfe57610bfe6135df565b6000918252602090912001546002830154909150610c25906001600160a01b031682612dfb565b600282015460408051868152602081018490526001600160a01b039092169187917f7d88280c8d69bd9f5220d624d2598b2cb1150c5f98f5052691ba8c56dba6d645910160405180910390a35050610c8a600160008051602061376183398151915255565b505050565b610c97612db2565b610ca16000612e99565b565b6000546001600160a01b0316331480610cc657506001546001600160a01b031633145b80610cd95750336001600160a01b038716145b610cf55760405162461bcd60e51b815260040161055990613690565b60008781526005602052604090205460ff1615610d465760405162461bcd60e51b815260206004820152600f60248201526e125108185b1c9958591e481d5cd959608a1b6044820152606401610559565b6001600160a01b038616610d8c5760405162461bcd60e51b815260206004820152600d60248201526c24b73b30b634b210313abcb2b960991b6044820152606401610559565b6001600160a01b038516610dd35760405162461bcd60e51b815260206004820152600e60248201526d24b73b30b634b21039b2b63632b960911b6044820152606401610559565b856001600160a01b0316856001600160a01b031603610e2d5760405162461bcd60e51b8152602060048201526016602482015275213abcb2b91031b0b73737ba1031329039b2b63632b960511b6044820152606401610559565b60008411610e7d5760405162461bcd60e51b815260206004820152601760248201527f416d6f756e74206d75737420626520706f7369746976650000000000000000006044820152606401610559565b6002836002811115610e9157610e916130a1565b03610fe05780610edc5760405162461bcd60e51b8152602060048201526016602482015275139bc81b5a5b195cdd1bdb995cc81c1c9bdd9a59195960521b6044820152606401610559565b6000805b82811015610f7e576000848483818110610efc57610efc6135df565b9050602002013511610f485760405162461bcd60e51b815260206004820152601560248201527416995c9bc81b5a5b195cdd1bdb9948185b5bdd5b9d605a1b6044820152606401610559565b838382818110610f5a57610f5a6135df565b9050602002013582610f6c91906136ce565b9150610f77816136e7565b9050610ee0565b50848114610fda5760405162461bcd60e51b815260206004820152602360248201527f4d696c6573746f6e6520616d6f756e7473206d7573742073756d20746f20746f6044820152621d185b60ea1b6064820152608401610559565b50611039565b80156110395760405162461bcd60e51b815260206004820152602260248201527f4d696c6573746f6e6573206f6e6c7920666f72204d696c6573746f6e65206d6f604482015261646560f01b6064820152608401610559565b6000878152600560209081526040808320805460ff199081166001908117909255600493849052919093208a815580840180546001600160a01b03808d166001600160a01b03199283161790925560028084018054938d169390921692909217905560038201899055928101805491948894919392909216919084908111156110c4576110c46130a1565b021790555060048101805461ff001916905560005b828110156111b55781600a018484838181106110f7576110f76135df565b8354600180820186556000958652602080872093810295909501359290910191909155600b860180548083018255908552838520848204018054601f9092166101000a60ff02199091169055600c86018054808301825590855283852001849055600d86018054808301825590855283852001849055600e8601805480830182559085528385200180546001600160a01b0319169055600f860180549182018155845291832090910191909155506111ae816136e7565b90506110d9565b50856001600160a01b0316876001600160a01b0316897f384d64c3fc97a834eb33e05972cdde75d11dcba08d62d708fac8779c36f7bb9f88886040516111fc929190613700565b60405180910390a45050505050505050565b600082815260056020526040902054829060ff1661123e5760405162461bcd60e51b81526004016105599061353c565b60008381526004602052604090206001015483906001600160a01b031633148061128157506000818152600460205260409020600201546001600160a01b031633145b61129d5760405162461bcd60e51b815260040161055990613640565b60008481526004602052604090206002600482015460ff1660028111156112c6576112c66130a1565b0361130a5760405162461bcd60e51b815260206004820152601460248201527355736520646973707574654d696c6573746f6e6560601b6044820152606401610559565b6001600482810154610100900460ff169081111561132a5761132a6130a1565b146113475760405162461bcd60e51b815260040161055990613594565b836113905760405162461bcd60e51b8152602060048201526019602482015278111a5cdc1d5d1948195d9a59195b98d9481c995c5d5a5c9959603a1b6044820152606401610559565b60048101805461ff001916610300179055600781018490556009810180546001600160a01b0319163390811790915560405186907f0ba174eb1c3530da63920b98261208eeb30b48447d1cfcbbdf116fd4ee8c62db90600090a35050505050565b6113f9612db2565b6001600160a01b0381166114405760405162461bcd60e51b815260206004820152600e60248201526d125b9d985b1a59081dd85b1b195d60921b6044820152606401610559565b6003546040516001600160a01b038084169216907ff84f6b525c89a18c80bbbc0c62a7eb5390956d6b8432ab067b49963a98f8c38f90600090a3600380546001600160a01b0319166001600160a01b0392909216919091179055565b600082815260056020526040902054829060ff166114cc5760405162461bcd60e51b81526004016105599061353c565b600083815260046020526040902060018101546001600160a01b031633146115235760405162461bcd60e51b815260206004820152600a60248201526927b7363c90313abcb2b960b11b6044820152606401610559565b6000600482810154610100900460ff1690811115611543576115436130a1565b148061156c57506001600482810154610100900460ff169081111561156a5761156a6130a1565b145b6115a95760405162461bcd60e51b815260206004820152600e60248201526d496e76616c69642073746174757360901b6044820152606401610559565b6006810154156115cb5760405162461bcd60e51b815260040161055990613665565b6006810183905560405183815284907f2ca35514b320f9307f941b4c7938e28537ad3b603135109f1e8bd13edc057eb2906020015b60405180910390a250505050565b600081815260056020526040902054819060ff1661163e5760405162461bcd60e51b81526004016105599061353c565b6001546001600160a01b031633148061166157506000546001600160a01b031633145b61167d5760405162461bcd60e51b815260040161055990613690565b611685612ddf565b60008281526004602052604090206002600482015460ff1660028111156116ae576116ae6130a1565b036116f25760405162461bcd60e51b81526020600482015260146024820152735573652072656c656173654d696c6573746f6e6560601b6044820152606401610559565b6001600482810154610100900460ff1690811115611712576117126130a1565b1461172f5760405162461bcd60e51b815260040161055990613594565b60058101546117755760405162461bcd60e51b8152602060048201526012602482015271139bc81c1c9bdbd9881cdd589b5a5d1d195960721b6044820152606401610559565b60048101805461ff001916610200179055600281015460038201546117a3916001600160a01b031690612dfb565b600281015460038201546040519081526001600160a01b039091169084907f80cf860b836d9187d02d59da7a5a18eebedf97a08250a9e8127a43c6e1852a30906020015b60405180910390a350611807600160008051602061376183398151915255565b5050565b600081815260056020526040902054819060ff1661183b5760405162461bcd60e51b81526004016105599061353c565b60008281526004602052604090206001015482906001600160a01b031633148061187e57506000818152600460205260409020600201546001600160a01b031633145b61189a5760405162461bcd60e51b815260040161055990613640565b6118a2612ddf565b60008381526004602052604090206002600482015460ff1660028111156118cb576118cb6130a1565b036119125760405162461bcd60e51b8152602060048201526017602482015276557365206d696c6573746f6e652066756e6374696f6e7360481b6044820152606401610559565b6001600482810154610100900460ff1690811115611932576119326130a1565b1461194f5760405162461bcd60e51b815260040161055990613594565b60018101546001600160a01b0316330361199457600481015462010000900460ff161561197c5750611ac3565b60048101805462ff00001916620100001790556119c4565b60048101546301000000900460ff16156119ae5750611ac3565b60048101805463ff000000191663010000001790555b60048101546040805160ff620100008404811615158252630100000090930490921615156020830152339186917f09bd4565894079a5b8d47eb3648f88031cbd9351d794a2997116ea445b24ecae910160405180910390a3600481015462010000900460ff168015611a41575060048101546301000000900460ff165b15611ac15760048101805461ff00191661020017905560028101546003820154611a74916001600160a01b031690612dfb565b600281015460038201546040519081526001600160a01b039091169085907fc8fa66dff4b9073528c3f1bf21a8dc9a18fdf09847e88e96188bc953aef519f0906020015b60405180910390a35b505b610c8a600160008051602061376183398151915255565b600081815260056020526040902054819060ff16611b0a5760405162461bcd60e51b81526004016105599061353c565b611b12612ddf565b600082815260046020526040902060018101546001600160a01b03163314611b755760405162461bcd60e51b815260206004820152601660248201527513db9b1e48189d5e595c8818d85b8819195c1bdcda5d60521b6044820152606401610559565b6000600482810154610100900460ff1690811115611b9557611b956130a1565b14611bb25760405162461bcd60e51b8152600401610559906135f5565b6003810154611bef906001600160a01b037f0000000000000000000000000000000000000000000000000000000000000000169033903090612ee9565b60048101805461ff0019166101001790556003810154604051908152339084907f87d4c0b5e30d6808bc8a94ba1c4d839b29d664151551a31753387ee9ef48429b906020016117e7565b600082815260056020526040902054829060ff16611c695760405162461bcd60e51b81526004016105599061353c565b6001546001600160a01b0316331480611c8c57506000546001600160a01b031633145b611ca85760405162461bcd60e51b815260040161055990613690565b611cb0612ddf565b60008381526004602052604090206002600482015460ff166002811115611cd957611cd96130a1565b03611d1d5760405162461bcd60e51b8152602060048201526014602482015273557365207265736f6c76654d696c6573746f6e6560601b6044820152606401610559565b6003600482810154610100900460ff1690811115611d3d57611d3d6130a1565b14611d5a5760405162461bcd60e51b81526004016105599061361a565b60018101546001600160a01b0384811691161480611d87575060028101546001600160a01b038481169116145b611dc45760405162461bcd60e51b815260206004820152600e60248201526d24b73b30b634b2103bb4b73732b960911b6044820152606401610559565b6005810154611e0a5760405162461bcd60e51b8152602060048201526012602482015271139bc81c1c9bdbd9881cdd589b5a5d1d195960721b6044820152606401610559565b60048101805461ff00191661040017905560028101546001600160a01b0390811690841603611e555760028101546003820154611e50916001600160a01b031690612dfb565b611e97565b60018101546003820154611e97916001600160a01b037f0000000000000000000000000000000000000000000000000000000000000000811692911690612f1f565b826001600160a01b0316847fc4422b16dedd76960934beae872654a813107c23ececf3d3d23df59367676dfb8360030154604051611ab891815260200190565b600082815260056020526040902054829060ff16611f075760405162461bcd60e51b81526004016105599061353c565b600083815260046020526040902060028101546001600160a01b03163314611f5f5760405162461bcd60e51b815260206004820152600b60248201526a27b7363c9039b2b63632b960a91b6044820152606401610559565b6001600482810154610100900460ff1690811115611f7f57611f7f6130a1565b1480611fa857506003600482810154610100900460ff1690811115611fa657611fa66130a1565b145b611fe55760405162461bcd60e51b815260206004820152600e60248201526d496e76616c69642073746174757360901b6044820152606401610559565b6005810154156120075760405162461bcd60e51b815260040161055990613665565b6005810183905560405183815284907f480da4ccf65f8315cba8ba88ec1e6cdc983d8cff56ccc4c99af625a3c74ce4da90602001611600565b600081815260056020526040902054819060ff166120705760405162461bcd60e51b81526004016105599061353c565b6001546001600160a01b031633148061209357506000546001600160a01b031633145b6120af5760405162461bcd60e51b815260040161055990613690565b6120b7612ddf565b60008281526004602052604090206002600482015460ff1660028111156120e0576120e06130a1565b036121275760405162461bcd60e51b8152602060048201526017602482015276557365206d696c6573746f6e652066756e6374696f6e7360481b6044820152606401610559565b6001600482810154610100900460ff1690811115612147576121476130a1565b146121645760405162461bcd60e51b815260040161055990613594565b60048101805461ff001916610400179055600181015460038201546121b7916001600160a01b037f0000000000000000000000000000000000000000000000000000000000000000811692911690612f1f565b600181015460038201546040519081526001600160a01b039091169084907fdb12d765925e4d45e4ff86acea89a20545c27b1371d020cc1e473bc218d7813a906020016117e7565b600083815260056020526040902054839060ff1661222f5760405162461bcd60e51b81526004016105599061353c565b600084815260046020526040902060018101546001600160a01b031633146122865760405162461bcd60e51b815260206004820152600a60248201526927b7363c90313abcb2b960b11b6044820152606401610559565b6002600482015460ff1660028111156122a1576122a16130a1565b146122be5760405162461bcd60e51b815260040161055990613566565b6001600482810154610100900460ff16908111156122de576122de6130a1565b146122fb5760405162461bcd60e51b815260040161055990613594565b600a810154841061231e5760405162461bcd60e51b8152600401610559906135b8565b600060ff1681600b018581548110612338576123386135df565b60009182526020918290209181049091015460ff601f9092166101000a900416146123755760405162461bcd60e51b8152600401610559906135f5565b826123be5760405162461bcd60e51b8152602060048201526019602482015278111a5cdc1d5d1948195d9a59195b98d9481c995c5d5a5c9959603a1b6044820152606401610559565b600281600b0185815481106123d5576123d56135df565b90600052602060002090602091828204019190066101000a81548160ff021916908360ff1602179055508281600d018581548110612415576124156135df565b90600052602060002001819055503381600e018581548110612439576124396135df565b9060005260206000200160006101000a8154816001600160a01b0302191690836001600160a01b03160217905550336001600160a01b0316857f886ecede5b68ac338aa63a2a18574c2015fcc0578c7aff03c79b3720c24c0d17866040516124a391815260200190565b60405180910390a35050505050565b600083815260056020526040902054839060ff166124e25760405162461bcd60e51b81526004016105599061353c565b6001546001600160a01b031633148061250557506000546001600160a01b031633145b6125215760405162461bcd60e51b815260040161055990613690565b612529612ddf565b60008481526004602052604090206002600482015460ff166002811115612552576125526130a1565b1461256f5760405162461bcd60e51b815260040161055990613566565b600a81015484106125925760405162461bcd60e51b8152600401610559906135b8565b600260ff1681600b0185815481106125ac576125ac6135df565b60009182526020918290209181049091015460ff601f9092166101000a900416146125e95760405162461bcd60e51b81526004016105599061361a565b60018101546001600160a01b0384811691161480612616575060028101546001600160a01b038481169116145b6126535760405162461bcd60e51b815260206004820152600e60248201526d24b73b30b634b2103bb4b73732b960911b6044820152606401610559565b600381600b01858154811061266a5761266a6135df565b90600052602060002090602091828204019190066101000a81548160ff021916908360ff160217905550600081600a0185815481106126ab576126ab6135df565b60009182526020909120015460028301549091506001600160a01b03908116908516036126ef5760028201546126ea906001600160a01b031682612dfb565b61272b565b600182015461272b906001600160a01b037f00000000000000000000000000000000000000000000000000000000000000008116911683612f1f565b60408051868152602081018390526001600160a01b0386169188917fc4b646d5119a7b0afd026fede693619f9677892f2a41f606e5da1fb1a5356e72910160405180910390a3505061278a600160008051602061376183398151915255565b50505050565b61282d6040805161026081018252600080825260208201819052918101829052606081018290529060808201908152602001600081526000602082018190526040820181905260608083018290526080830182905260a0830182905260c0830182905260e0830191909152610100820181905261012082018190526101408201819052610160820181905261018082018190526101a09091015290565b6000828152600460208181526040928390208351610260810185528154815260018201546001600160a01b0390811693820193909352600280830154909316948101949094526003810154606085015291820154608084019160ff9091169081111561289b5761289b6130a1565b60028111156128ac576128ac6130a1565b81526020016004820160019054906101000a900460ff1660048111156128d4576128d46130a1565b60048111156128e5576128e56130a1565b8152600482015460ff6201000082048116151560208085019190915263010000009092041615156040808401919091526005840154606084015260068401546080840152600784015460a0840152600884015460c084015260098401546001600160a01b031660e0840152600a840180548251818502810185019093528083526101009094019391929091908301828280156129a057602002820191906000526020600020905b81548152602001906001019080831161298c575b50505050508152602001600b8201805480602002602001604051908101604052809291908181526020018280548015612a1657602002820191906000526020600020906000905b825461010083900a900460ff168152602060019283018181049485019490930390920291018084116129e75790505b50505050508152602001600c8201805480602002602001604051908101604052809291908181526020018280548015612a6e57602002820191906000526020600020905b815481526020019060010190808311612a5a575b50505050508152602001600d8201805480602002602001604051908101604052809291908181526020018280548015612ac657602002820191906000526020600020905b815481526020019060010190808311612ab2575b50505050508152602001600e8201805480602002602001604051908101604052809291908181526020018280548015612b2857602002820191906000526020600020905b81546001600160a01b03168152600190910190602001808311612b0a575b50505050508152602001600f8201805480602002602001604051908101604052809291908181526020018280548015612b8057602002820191906000526020600020905b815481526020019060010190808311612b6c575b5050505050815250509050919050565b612b98612db2565b6001600160a01b038116612bc257604051631e4fbdf760e01b815260006004820152602401610559565b612bcb81612e99565b50565b612bd6612db2565b6001546040516001600160a01b038084169216907f3b4611e1353cfad112fa73d67fe9a859ea2b675e92b631b109e1fd1857c43d3090600090a3600180546001600160a01b0319166001600160a01b0392909216919091179055565b600082815260056020526040902054829060ff16612c625760405162461bcd60e51b81526004016105599061353c565b60008381526004602052604090206003600482810154610100900460ff1690811115612c9057612c906130a1565b14612cad5760405162461bcd60e51b81526004016105599061361a565b60098101546001600160a01b03163303612d095760405162461bcd60e51b815260206004820152601b60248201527f43616e6e6f74206265206469737075746520696e69746961746f7200000000006044820152606401610559565b60018101546001600160a01b0316331480612d30575060028101546001600160a01b031633145b612d4c5760405162461bcd60e51b815260040161055990613640565b600881015415612d6e5760405162461bcd60e51b815260040161055990613665565b60088101839055604051838152339085907fac667660abf65035c151f9f8484becc5f3273e3a3daea0434093ac4ce700fd3a9060200160405180910390a350505050565b6000546001600160a01b03163314610ca15760405163118cdaa760e01b8152336004820152602401610559565b612de7612f54565b600260008051602061376183398151915255565b600061271060025483612e0e9190613714565b612e18919061372b565b9050612e5983612e28838561374d565b6001600160a01b037f0000000000000000000000000000000000000000000000000000000000000000169190612f1f565b8015610c8a57600354610c8a906001600160a01b037f00000000000000000000000000000000000000000000000000000000000000008116911683612f1f565b600080546001600160a01b038381166001600160a01b0319831681178455604051919092169283917f8be0079c531659141344cd1fd0a4f28419497f9722a3daafe3b4186f6b6457e09190a35050565b612ef7848484846001612f84565b61278a57604051635274afe760e01b81526001600160a01b0385166004820152602401610559565b612f2c8383836001612ff6565b610c8a57604051635274afe760e01b81526001600160a01b0384166004820152602401610559565b60008051602061376183398151915254600203610ca157604051633ee5aeb560e01b815260040160405180910390fd5b6040516323b872dd60e01b60008181526001600160a01b038781166004528616602452604485905291602083606481808c5af192506001600051148316612fe4578383151615612fd7573d6000823e3d81fd5b6000883b113d1516831692505b60405250600060605295945050505050565b60405163a9059cbb60e01b60008181526001600160a01b038616600452602485905291602083604481808b5af192506001600051148316613050578383151615613043573d6000823e3d81fd5b6000873b113d1516831692505b60405250949350505050565b60008060006060848603121561307157600080fd5b505081359360208301359350604090920135919050565b60006020828403121561309a57600080fd5b5035919050565b634e487b7160e01b600052602160045260246000fd5b600381106130c7576130c76130a1565b9052565b600581106130c7576130c76130a1565b8d81526001600160a01b038d811660208301528c166040820152606081018b90526101a0810161310e608083018c6130b7565b61311b60a083018b6130cb565b88151560c083015287151560e08301528661010083015285610120830152846101408301528361016083015261315d6101808301846001600160a01b03169052565b9e9d5050505050505050505050505050565b6000806040838503121561318257600080fd5b50508035926020909101359150565b80356001600160a01b03811681146131a857600080fd5b919050565b600080600080600080600060c0888a0312156131c857600080fd5b873596506131d860208901613191565b95506131e660408901613191565b94506060880135935060808801356003811061320157600080fd5b925060a088013567ffffffffffffffff8082111561321e57600080fd5b818a0191508a601f83011261323257600080fd5b81358181111561324157600080fd5b8b60208260051b850101111561325657600080fd5b60208301945080935050505092959891949750929550565b60006020828403121561328057600080fd5b61328982613191565b9392505050565b600080604083850312156132a357600080fd5b823591506132b360208401613191565b90509250929050565b6000806000606084860312156132d157600080fd5b83359250602084013591506132e860408501613191565b90509250925092565b600081518084526020808501945080840160005b8381101561332157815187529582019590820190600101613305565b509495945050505050565b600081518084526020808501945080840160005b8381101561332157815160ff1687529582019590820190600101613340565b600081518084526020808501945080840160005b838110156133215781516001600160a01b031687529582019590820190600101613373565b6020815281516020820152600060208301516133bf60408401826001600160a01b03169052565b5060408301516001600160a01b0381166060840152506060830151608083015260808301516133f160a08401826130b7565b5060a083015161340460c08401826130cb565b5060c083015180151560e08401525060e08301516101006134288185018315159052565b8401516101208481019190915284015161014080850191909152840151610160808501919091528401516101808085019190915284015190506101a0613478818501836001600160a01b03169052565b808501519150506102606101c081818601526134986102808601846132f1565b9250808601519050601f196101e08187860301818801526134b9858461332c565b9450808801519250506102008187860301818801526134d885846132f1565b9450808801519250506102208187860301818801526134f785846132f1565b945080880151925050610240818786030181880152613516858461335f565b90880151878203909201848801529350905061353283826132f1565b9695505050505050565b60208082526010908201526f115cd8dc9bddc81b9bdd08199bdd5b9960821b604082015260600190565b6020808252601490820152734e6f74206d696c6573746f6e6520657363726f7760601b604082015260600190565b6020808252600a90820152694e6f742061637469766560b01b604082015260600190565b6020808252600d908201526c092dcecc2d8d2c840d2dcc8caf609b1b604082015260600190565b634e487b7160e01b600052603260045260246000fd5b6020808252600b908201526a4e6f742070656e64696e6760a81b604082015260600190565b6020808252600c908201526b139bdd08191a5cdc1d5d195960a21b604082015260600190565b6020808252600b908201526a4e6f74206120706172747960a81b604082015260600190565b602080825260119082015270105b1c9958591e481cdd589b5a5d1d1959607a1b604082015260600190565b6020808252600e908201526d139bdd08185d5d1a1bdc9a5e995960921b604082015260600190565b634e487b7160e01b600052601160045260246000fd5b808201808211156136e1576136e16136b8565b92915050565b6000600182016136f9576136f96136b8565b5060010190565b8281526040810161328960208301846130b7565b80820281158282048414176136e1576136e16136b8565b60008261374857634e487b7160e01b600052601260045260246000fd5b500490565b818103818111156136e1576136e16136b856fe9b779b17422d0df92223018b32b4d1fa46e071723d6817e2486d003becc55f00a2646970667358221220c19ee0394dc1d24301107132fd7e7db952a2cd850e8e1d735086813bbf97e83264736f6c63430008140033","opcodes":"PUSH1 0xA0 PUSH1 0x40 MSTORE PUSH1 0xFA PUSH1 0x2 SSTORE CALLVALUE DUP1 ISZERO PUSH3 0x16 JUMPI PUSH1 0x0 DUP1 REVERT JUMPDEST POP PUSH1 0x40 MLOAD PUSH3 0x3A1A CODESIZE SUB DUP1 PUSH3 0x3A1A DUP4 CODECOPY DUP2 ADD PUSH1 0x40 DUP2 SWAP1 MSTORE PUSH3 0x39 SWAP2 PUSH3 0x1D4 JUMP JUMPDEST CALLER DUP1 PUSH3 0x61 JUMPI PUSH1 0x40 MLOAD PUSH4 0x1E4FBDF7 PUSH1 0xE0 SHL DUP2 MSTORE PUSH1 0x0 PUSH1 0x4 DUP3 ADD MSTORE PUSH1 0x24 ADD JUMPDEST PUSH1 0x40 MLOAD DUP1 SWAP2 SUB SWAP1 REVERT JUMPDEST PUSH3 0x6C DUP2 PUSH3 0x167 JUMP JUMPDEST POP PUSH1 0x1 PUSH32 0x9B779B17422D0DF92223018B32B4D1FA46E071723D6817E2486D003BECC55F00 SSTORE PUSH1 0x1 PUSH1 0x1 PUSH1 0xA0 SHL SUB DUP4 AND PUSH3 0xD8 JUMPI PUSH1 0x40 MLOAD PUSH3 0x461BCD PUSH1 0xE5 SHL DUP2 MSTORE PUSH1 0x20 PUSH1 0x4 DUP3 ADD MSTORE PUSH1 0xC PUSH1 0x24 DUP3 ADD MSTORE PUSH12 0x496E76616C69642055534443 PUSH1 0xA0 SHL PUSH1 0x44 DUP3 ADD MSTORE PUSH1 0x64 ADD PUSH3 0x58 JUMP JUMPDEST PUSH1 0x1 PUSH1 0x1 PUSH1 0xA0 SHL SUB DUP2 AND PUSH3 0x130 JUMPI PUSH1 0x40 MLOAD PUSH3 0x461BCD PUSH1 0xE5 SHL DUP2 MSTORE PUSH1 0x20 PUSH1 0x4 DUP3 ADD MSTORE PUSH1 0x17 PUSH1 0x24 DUP3 ADD MSTORE PUSH32 0x496E76616C696420706C6174666F726D2077616C6C6574000000000000000000 PUSH1 0x44 DUP3 ADD MSTORE PUSH1 0x64 ADD PUSH3 0x58 JUMP JUMPDEST PUSH1 0x1 PUSH1 0x1 PUSH1 0xA0 SHL SUB SWAP3 DUP4 AND PUSH1 0x80 MSTORE PUSH1 0x1 DUP1 SLOAD SWAP3 DUP5 AND PUSH1 0x1 PUSH1 0x1 PUSH1 0xA0 SHL SUB NOT SWAP4 DUP5 AND OR SWAP1 SSTORE PUSH1 0x3 DUP1 SLOAD SWAP2 SWAP1 SWAP4 AND SWAP2 AND OR SWAP1 SSTORE PUSH3 0x21E JUMP JUMPDEST PUSH1 0x0 DUP1 SLOAD PUSH1 0x1 PUSH1 0x1 PUSH1 0xA0 SHL SUB DUP4 DUP2 AND PUSH1 0x1 PUSH1 0x1 PUSH1 0xA0 SHL SUB NOT DUP4 AND DUP2 OR DUP5 SSTORE PUSH1 0x40 MLOAD SWAP2 SWAP1 SWAP3 AND SWAP3 DUP4 SWAP2 PUSH32 0x8BE0079C531659141344CD1FD0A4F28419497F9722A3DAAFE3B4186F6B6457E0 SWAP2 SWAP1 LOG3 POP POP JUMP JUMPDEST DUP1 MLOAD PUSH1 0x1 PUSH1 0x1 PUSH1 0xA0 SHL SUB DUP2 AND DUP2 EQ PUSH3 0x1CF JUMPI PUSH1 0x0 DUP1 REVERT JUMPDEST SWAP2 SWAP1 POP JUMP JUMPDEST PUSH1 0x0 DUP1 PUSH1 0x0 PUSH1 0x60 DUP5 DUP7 SUB SLT ISZERO PUSH3 0x1EA JUMPI PUSH1 0x0 DUP1 REVERT JUMPDEST PUSH3 0x1F5 DUP5 PUSH3 0x1B7 JUMP JUMPDEST SWAP3 POP PUSH3 0x205 PUSH1 0x20 DUP6 ADD PUSH3 0x1B7 JUMP JUMPDEST SWAP2 POP PUSH3 0x215 PUSH1 0x40 DUP6 ADD PUSH3 0x1B7 JUMP JUMPDEST SWAP1 POP SWAP3 POP SWAP3 POP SWAP3 JUMP JUMPDEST PUSH1 0x80 MLOAD PUSH2 0x37B6 PUSH3 0x264 PUSH1 0x0 CODECOPY PUSH1 0x0 DUP2 DUP2 PUSH2 0x350 ADD MSTORE DUP2 DUP2 PUSH2 0x1BC5 ADD MSTORE DUP2 DUP2 PUSH2 0x1E6D ADD MSTORE DUP2 DUP2 PUSH2 0x218D ADD MSTORE DUP2 DUP2 PUSH2 0x2702 ADD MSTORE DUP2 DUP2 PUSH2 0x2E32 ADD MSTORE PUSH2 0x2E70 ADD MSTORE PUSH2 0x37B6 PUSH1 0x0 RETURN INVALID PUSH1 0x80 PUSH1 0x40 MSTORE CALLVALUE DUP1 ISZERO PUSH2 0x10 JUMPI PUSH1 0x0 DUP1 REVERT JUMPDEST POP PUSH1 0x4 CALLDATASIZE LT PUSH2 0x1F0 JUMPI PUSH1 0x0 CALLDATALOAD PUSH1 0xE0 SHR DUP1 PUSH4 0x8831E9CF GT PUSH2 0x10F JUMPI DUP1 PUSH4 0xD8972491 GT PUSH2 0xA2 JUMPI DUP1 PUSH4 0xF2FDE38B GT PUSH2 0x71 JUMPI DUP1 PUSH4 0xF2FDE38B EQ PUSH2 0x4DD JUMPI DUP1 PUSH4 0xFA2AF9DA EQ PUSH2 0x4F0 JUMPI DUP1 PUSH4 0xFDA1FD83 EQ PUSH2 0x503 JUMPI DUP1 PUSH4 0xFFABBF4B EQ PUSH2 0x516 JUMPI PUSH1 0x0 DUP1 REVERT JUMPDEST DUP1 PUSH4 0xD8972491 EQ PUSH2 0x484 JUMPI DUP1 PUSH4 0xDC8B728D EQ PUSH2 0x497 JUMPI DUP1 PUSH4 0xEF9D037C EQ PUSH2 0x4AA JUMPI DUP1 PUSH4 0xF023B811 EQ PUSH2 0x4BD JUMPI PUSH1 0x0 DUP1 REVERT JUMPDEST DUP1 PUSH4 0xA53A1ADF GT PUSH2 0xDE JUMPI DUP1 PUSH4 0xA53A1ADF EQ PUSH2 0x438 JUMPI DUP1 PUSH4 0xB214FAA5 EQ PUSH2 0x44B JUMPI DUP1 PUSH4 0xD1686604 EQ PUSH2 0x45E JUMPI DUP1 PUSH4 0xD46600AA EQ PUSH2 0x471 JUMPI PUSH1 0x0 DUP1 REVERT JUMPDEST DUP1 PUSH4 0x8831E9CF EQ PUSH2 0x3EE JUMPI DUP1 PUSH4 0x8DA5CB5B EQ PUSH2 0x401 JUMPI DUP1 PUSH4 0x929EB2A3 EQ PUSH2 0x412 JUMPI DUP1 PUSH4 0x991E0139 EQ PUSH2 0x425 JUMPI PUSH1 0x0 DUP1 REVERT JUMPDEST DUP1 PUSH4 0x3AC19846 GT PUSH2 0x187 JUMPI DUP1 PUSH4 0x715018A6 GT PUSH2 0x156 JUMPI DUP1 PUSH4 0x715018A6 EQ PUSH2 0x38D JUMPI DUP1 PUSH4 0x7835BA33 EQ PUSH2 0x395 JUMPI DUP1 PUSH4 0x801054AE EQ PUSH2 0x3C8 JUMPI DUP1 PUSH4 0x82CBF88B EQ PUSH2 0x3DB JUMPI PUSH1 0x0 DUP1 REVERT JUMPDEST DUP1 PUSH4 0x3AC19846 EQ PUSH2 0x343 JUMPI DUP1 PUSH4 0x3E413BEE EQ PUSH2 0x34B JUMPI DUP1 PUSH4 0x6825104D EQ PUSH2 0x372 JUMPI DUP1 PUSH4 0x6F6C8FBB EQ PUSH2 0x37A JUMPI PUSH1 0x0 DUP1 REVERT JUMPDEST DUP1 PUSH4 0x1DFF6DC7 GT PUSH2 0x1C3 JUMPI DUP1 PUSH4 0x1DFF6DC7 EQ PUSH2 0x244 JUMPI DUP1 PUSH4 0x26232A2E EQ PUSH2 0x257 JUMPI DUP1 PUSH4 0x2D83549C EQ PUSH2 0x26E JUMPI DUP1 PUSH4 0x31B221CD EQ PUSH2 0x318 JUMPI PUSH1 0x0 DUP1 REVERT JUMPDEST DUP1 PUSH4 0x1E2F24A EQ PUSH2 0x1F5 JUMPI DUP1 PUSH4 0x12260F88 EQ PUSH2 0x20A JUMPI DUP1 PUSH4 0x12E8E2C3 EQ PUSH2 0x229 JUMPI DUP1 PUSH4 0x18FF9305 EQ PUSH2 0x23C JUMPI JUMPDEST PUSH1 0x0 DUP1 REVERT JUMPDEST PUSH2 0x208 PUSH2 0x203 CALLDATASIZE PUSH1 0x4 PUSH2 0x305C JUMP JUMPDEST PUSH2 0x529 JUMP JUMPDEST STOP JUMPDEST PUSH2 0x212 PUSH1 0x2 DUP2 JUMP JUMPDEST PUSH1 0x40 MLOAD PUSH1 0xFF SWAP1 SWAP2 AND DUP2 MSTORE PUSH1 0x20 ADD JUMPDEST PUSH1 0x40 MLOAD DUP1 SWAP2 SUB SWAP1 RETURN JUMPDEST PUSH2 0x208 PUSH2 0x237 CALLDATASIZE PUSH1 0x4 PUSH2 0x3088 JUMP JUMPDEST PUSH2 0x75A JUMP JUMPDEST PUSH2 0x212 PUSH1 0x1 DUP2 JUMP JUMPDEST PUSH2 0x208 PUSH2 0x252 CALLDATASIZE PUSH1 0x4 PUSH2 0x305C JUMP JUMPDEST PUSH2 0x7E7 JUMP JUMPDEST PUSH2 0x260 PUSH1 0x2 SLOAD DUP2 JUMP JUMPDEST PUSH1 0x40 MLOAD SWAP1 DUP2 MSTORE PUSH1 0x20 ADD PUSH2 0x220 JUMP JUMPDEST PUSH2 0x2FF PUSH2 0x27C CALLDATASIZE PUSH1 0x4 PUSH2 0x3088 JUMP JUMPDEST PUSH1 0x4 PUSH1 0x20 DUP2 SWAP1 MSTORE PUSH1 0x0 SWAP2 DUP3 MSTORE PUSH1 0x40 SWAP1 SWAP2 KECCAK256 DUP1 SLOAD PUSH1 0x1 DUP3 ADD SLOAD PUSH1 0x2 DUP4 ADD SLOAD PUSH1 0x3 DUP5 ADD SLOAD SWAP5 DUP5 ADD SLOAD PUSH1 0x5 DUP6 ADD SLOAD PUSH1 0x6 DUP7 ADD SLOAD PUSH1 0x7 DUP8 ADD SLOAD PUSH1 0x8 DUP9 ADD SLOAD PUSH1 0x9 SWAP1 SWAP9 ADD SLOAD SWAP7 SWAP9 PUSH1 0x1 PUSH1 0x1 PUSH1 0xA0 SHL SUB SWAP7 DUP8 AND SWAP9 SWAP6 DUP8 AND SWAP8 SWAP1 SWAP7 PUSH1 0xFF DUP1 DUP8 AND SWAP8 PUSH2 0x100 DUP9 DIV DUP3 AND SWAP8 PUSH3 0x10000 DUP2 DIV DUP4 AND SWAP8 PUSH4 0x1000000 SWAP1 SWAP2 DIV SWAP1 SWAP3 AND SWAP6 SWAP2 SWAP5 SWAP2 SWAP4 SWAP2 SWAP3 SWAP1 SWAP2 AND DUP14 JUMP JUMPDEST PUSH1 0x40 MLOAD PUSH2 0x220 SWAP14 SWAP13 SWAP12 SWAP11 SWAP10 SWAP9 SWAP8 SWAP7 SWAP6 SWAP5 SWAP4 SWAP3 SWAP2 SWAP1 PUSH2 0x30DB JUMP JUMPDEST PUSH1 0x1 SLOAD PUSH2 0x32B SWAP1 PUSH1 0x1 PUSH1 0x1 PUSH1 0xA0 SHL SUB AND DUP2 JUMP JUMPDEST PUSH1 0x40 MLOAD PUSH1 0x1 PUSH1 0x1 PUSH1 0xA0 SHL SUB SWAP1 SWAP2 AND DUP2 MSTORE PUSH1 0x20 ADD PUSH2 0x220 JUMP JUMPDEST PUSH2 0x212 PUSH1 0x3 DUP2 JUMP JUMPDEST PUSH2 0x32B PUSH32 0x0 DUP2 JUMP JUMPDEST PUSH2 0x212 PUSH1 0x0 DUP2 JUMP JUMPDEST PUSH2 0x208 PUSH2 0x388 CALLDATASIZE PUSH1 0x4 PUSH2 0x316F JUMP JUMPDEST PUSH2 0xA32 JUMP JUMPDEST PUSH2 0x208 PUSH2 0xC8F JUMP JUMPDEST PUSH2 0x3B8 PUSH2 0x3A3 CALLDATASIZE PUSH1 0x4 PUSH2 0x3088 JUMP JUMPDEST PUSH1 0x5 PUSH1 0x20 MSTORE PUSH1 0x0 SWAP1 DUP2 MSTORE PUSH1 0x40 SWAP1 KECCAK256 SLOAD PUSH1 0xFF AND DUP2 JUMP JUMPDEST PUSH1 0x40 MLOAD SWAP1 ISZERO ISZERO DUP2 MSTORE PUSH1 0x20 ADD PUSH2 0x220 JUMP JUMPDEST PUSH2 0x208 PUSH2 0x3D6 CALLDATASIZE PUSH1 0x4 PUSH2 0x31AD JUMP JUMPDEST PUSH2 0xCA3 JUMP JUMPDEST PUSH2 0x208 PUSH2 0x3E9 CALLDATASIZE PUSH1 0x4 PUSH2 0x316F JUMP JUMPDEST PUSH2 0x120E JUMP JUMPDEST PUSH2 0x208 PUSH2 0x3FC CALLDATASIZE PUSH1 0x4 PUSH2 0x326E JUMP JUMPDEST PUSH2 0x13F1 JUMP JUMPDEST PUSH1 0x0 SLOAD PUSH1 0x1 PUSH1 0x1 PUSH1 0xA0 SHL SUB AND PUSH2 0x32B JUMP JUMPDEST PUSH2 0x208 PUSH2 0x420 CALLDATASIZE PUSH1 0x4 PUSH2 0x316F JUMP JUMPDEST PUSH2 0x149C JUMP JUMPDEST PUSH2 0x208 PUSH2 0x433 CALLDATASIZE PUSH1 0x4 PUSH2 0x3088 JUMP JUMPDEST PUSH2 0x160E JUMP JUMPDEST PUSH2 0x208 PUSH2 0x446 CALLDATASIZE PUSH1 0x4 PUSH2 0x3088 JUMP JUMPDEST PUSH2 0x180B JUMP JUMPDEST PUSH2 0x208 PUSH2 0x459 CALLDATASIZE PUSH1 0x4 PUSH2 0x3088 JUMP JUMPDEST PUSH2 0x1ADA JUMP JUMPDEST PUSH2 0x208 PUSH2 0x46C CALLDATASIZE PUSH1 0x4 PUSH2 0x3290 JUMP JUMPDEST PUSH2 0x1C39 JUMP JUMPDEST PUSH2 0x208 PUSH2 0x47F CALLDATASIZE PUSH1 0x4 PUSH2 0x316F JUMP JUMPDEST PUSH2 0x1ED7 JUMP JUMPDEST PUSH2 0x208 PUSH2 0x492 CALLDATASIZE PUSH1 0x4 PUSH2 0x3088 JUMP JUMPDEST PUSH2 0x2040 JUMP JUMPDEST PUSH2 0x208 PUSH2 0x4A5 CALLDATASIZE PUSH1 0x4 PUSH2 0x305C JUMP JUMPDEST PUSH2 0x21FF JUMP JUMPDEST PUSH2 0x208 PUSH2 0x4B8 CALLDATASIZE PUSH1 0x4 PUSH2 0x32BC JUMP JUMPDEST PUSH2 0x24B2 JUMP JUMPDEST PUSH2 0x4D0 PUSH2 0x4CB CALLDATASIZE PUSH1 0x4 PUSH2 0x3088 JUMP JUMPDEST PUSH2 0x2790 JUMP JUMPDEST PUSH1 0x40 MLOAD PUSH2 0x220 SWAP2 SWAP1 PUSH2 0x3398 JUMP JUMPDEST PUSH2 0x208 PUSH2 0x4EB CALLDATASIZE PUSH1 0x4 PUSH2 0x326E JUMP JUMPDEST PUSH2 0x2B90 JUMP JUMPDEST PUSH1 0x3 SLOAD PUSH2 0x32B SWAP1 PUSH1 0x1 PUSH1 0x1 PUSH1 0xA0 SHL SUB AND DUP2 JUMP JUMPDEST PUSH2 0x208 PUSH2 0x511 CALLDATASIZE PUSH1 0x4 PUSH2 0x326E JUMP JUMPDEST PUSH2 0x2BCE JUMP JUMPDEST PUSH2 0x208 PUSH2 0x524 CALLDATASIZE PUSH1 0x4 PUSH2 0x316F JUMP JUMPDEST PUSH2 0x2C32 JUMP JUMPDEST PUSH1 0x0 DUP4 DUP2 MSTORE PUSH1 0x5 PUSH1 0x20 MSTORE PUSH1 0x40 SWAP1 KECCAK256 SLOAD DUP4 SWAP1 PUSH1 0xFF AND PUSH2 0x562 JUMPI PUSH1 0x40 MLOAD PUSH3 0x461BCD PUSH1 0xE5 SHL DUP2 MSTORE PUSH1 0x4 ADD PUSH2 0x559 SWAP1 PUSH2 0x353C JUMP JUMPDEST PUSH1 0x40 MLOAD DUP1 SWAP2 SUB SWAP1 REVERT JUMPDEST PUSH1 0x0 DUP5 DUP2 MSTORE PUSH1 0x4 PUSH1 0x20 MSTORE PUSH1 0x40 SWAP1 KECCAK256 PUSH1 0x2 DUP2 ADD SLOAD PUSH1 0x1 PUSH1 0x1 PUSH1 0xA0 SHL SUB AND CALLER EQ PUSH2 0x5BA JUMPI PUSH1 0x40 MLOAD PUSH3 0x461BCD PUSH1 0xE5 SHL DUP2 MSTORE PUSH1 0x20 PUSH1 0x4 DUP3 ADD MSTORE PUSH1 0xB PUSH1 0x24 DUP3 ADD MSTORE PUSH11 0x27B7363C9039B2B63632B9 PUSH1 0xA9 SHL PUSH1 0x44 DUP3 ADD MSTORE PUSH1 0x64 ADD PUSH2 0x559 JUMP JUMPDEST PUSH1 0x2 PUSH1 0x4 DUP3 ADD SLOAD PUSH1 0xFF AND PUSH1 0x2 DUP2 GT ISZERO PUSH2 0x5D5 JUMPI PUSH2 0x5D5 PUSH2 0x30A1 JUMP JUMPDEST EQ PUSH2 0x5F2 JUMPI PUSH1 0x40 MLOAD PUSH3 0x461BCD PUSH1 0xE5 SHL DUP2 MSTORE PUSH1 0x4 ADD PUSH2 0x559 SWAP1 PUSH2 0x3566 JUMP JUMPDEST PUSH1 0x1 PUSH1 0x4 DUP3 DUP2 ADD SLOAD PUSH2 0x100 SWAP1 DIV PUSH1 0xFF AND SWAP1 DUP2 GT ISZERO PUSH2 0x612 JUMPI PUSH2 0x612 PUSH2 0x30A1 JUMP JUMPDEST EQ PUSH2 0x62F JUMPI PUSH1 0x40 MLOAD PUSH3 0x461BCD PUSH1 0xE5 SHL DUP2 MSTORE PUSH1 0x4 ADD PUSH2 0x559 SWAP1 PUSH2 0x3594 JUMP JUMPDEST PUSH1 0xA DUP2 ADD SLOAD DUP5 LT PUSH2 0x652 JUMPI PUSH1 0x40 MLOAD PUSH3 0x461BCD PUSH1 0xE5 SHL DUP2 MSTORE PUSH1 0x4 ADD PUSH2 0x559 SWAP1 PUSH2 0x35B8 JUMP JUMPDEST PUSH1 0x0 PUSH1 0xFF AND DUP2 PUSH1 0xB ADD DUP6 DUP2 SLOAD DUP2 LT PUSH2 0x66C JUMPI PUSH2 0x66C PUSH2 0x35DF JUMP JUMPDEST PUSH1 0x0 SWAP2 DUP3 MSTORE PUSH1 0x20 SWAP2 DUP3 SWAP1 KECCAK256 SWAP2 DUP2 DIV SWAP1 SWAP2 ADD SLOAD PUSH1 0xFF PUSH1 0x1F SWAP1 SWAP3 AND PUSH2 0x100 EXP SWAP1 DIV AND EQ PUSH2 0x6A9 JUMPI PUSH1 0x40 MLOAD PUSH3 0x461BCD PUSH1 0xE5 SHL DUP2 MSTORE PUSH1 0x4 ADD PUSH2 0x559 SWAP1 PUSH2 0x35F5 JUMP JUMPDEST DUP3 PUSH2 0x6EC JUMPI PUSH1 0x40 MLOAD PUSH3 0x461BCD PUSH1 0xE5 SHL DUP2 MSTORE PUSH1 0x20 PUSH1 0x4 DUP3 ADD MSTORE PUSH1 0x13 PUSH1 0x24 DUP3 ADD MSTORE PUSH19 0x486173682063616E6E6F74206265207A65726F PUSH1 0x68 SHL PUSH1 0x44 DUP3 ADD MSTORE PUSH1 0x64 ADD PUSH2 0x559 JUMP JUMPDEST DUP3 DUP2 PUSH1 0xC ADD DUP6 DUP2 SLOAD DUP2 LT PUSH2 0x702 JUMPI PUSH2 0x702 PUSH2 0x35DF JUMP JUMPDEST SWAP1 PUSH1 0x0 MSTORE PUSH1 0x20 PUSH1 0x0 KECCAK256 ADD DUP2 SWAP1 SSTORE POP DUP5 PUSH32 0x685F618DC429A4453798B1B763C7AB2E71311FE3D9220002AE2B6F22496639B9 DUP6 DUP6 PUSH1 0x40 MLOAD PUSH2 0x74B SWAP3 SWAP2 SWAP1 SWAP2 DUP3 MSTORE PUSH1 0x20 DUP3 ADD MSTORE PUSH1 0x40 ADD SWAP1 JUMP JUMPDEST PUSH1 0x40 MLOAD DUP1 SWAP2 SUB SWAP1 LOG2 POP POP POP POP POP JUMP JUMPDEST PUSH2 0x762 PUSH2 0x2DB2 JUMP JUMPDEST PUSH2 0x3E8 DUP2 GT ISZERO PUSH2 0x7A6 JUMPI PUSH1 0x40 MLOAD PUSH3 0x461BCD PUSH1 0xE5 SHL DUP2 MSTORE PUSH1 0x20 PUSH1 0x4 DUP3 ADD MSTORE PUSH1 0xF PUSH1 0x24 DUP3 ADD MSTORE PUSH15 0x466565206578636565647320313025 PUSH1 0x88 SHL PUSH1 0x44 DUP3 ADD MSTORE PUSH1 0x64 ADD PUSH2 0x559 JUMP JUMPDEST PUSH1 0x2 SLOAD PUSH1 0x40 DUP1 MLOAD SWAP2 DUP3 MSTORE PUSH1 0x20 DUP3 ADD DUP4 SWAP1 MSTORE PUSH32 0xD347E206F25A89B917FC9482F1A2D294D749BAA4DC9BDE7FB495EE11FE491643 SWAP2 ADD PUSH1 0x40 MLOAD DUP1 SWAP2 SUB SWAP1 LOG1 PUSH1 0x2 SSTORE JUMP JUMPDEST PUSH1 0x0 DUP4 DUP2 MSTORE PUSH1 0x5 PUSH1 0x20 MSTORE PUSH1 0x40 SWAP1 KECCAK256 SLOAD DUP4 SWAP1 PUSH1 0xFF AND PUSH2 0x817 JUMPI PUSH1 0x40 MLOAD PUSH3 0x461BCD PUSH1 0xE5 SHL DUP2 MSTORE PUSH1 0x4 ADD PUSH2 0x559 SWAP1 PUSH2 0x353C JUMP JUMPDEST PUSH1 0x0 DUP5 DUP2 MSTORE PUSH1 0x4 PUSH1 0x20 MSTORE PUSH1 0x40 SWAP1 KECCAK256 PUSH1 0x2 PUSH1 0x4 DUP3 ADD SLOAD PUSH1 0xFF AND PUSH1 0x2 DUP2 GT ISZERO PUSH2 0x840 JUMPI PUSH2 0x840 PUSH2 0x30A1 JUMP JUMPDEST EQ PUSH2 0x85D JUMPI PUSH1 0x40 MLOAD PUSH3 0x461BCD PUSH1 0xE5 SHL DUP2 MSTORE PUSH1 0x4 ADD PUSH2 0x559 SWAP1 PUSH2 0x3566 JUMP JUMPDEST PUSH1 0xA DUP2 ADD SLOAD DUP5 LT PUSH2 0x880 JUMPI PUSH1 0x40 MLOAD PUSH3 0x461BCD PUSH1 0xE5 SHL DUP2 MSTORE PUSH1 0x4 ADD PUSH2 0x559 SWAP1 PUSH2 0x35B8 JUMP JUMPDEST PUSH1 0x2 PUSH1 0xFF AND DUP2 PUSH1 0xB ADD DUP6 DUP2 SLOAD DUP2 LT PUSH2 0x89A JUMPI PUSH2 0x89A PUSH2 0x35DF JUMP JUMPDEST PUSH1 0x0 SWAP2 DUP3 MSTORE PUSH1 0x20 SWAP2 DUP3 SWAP1 KECCAK256 SWAP2 DUP2 DIV SWAP1 SWAP2 ADD SLOAD PUSH1 0xFF PUSH1 0x1F SWAP1 SWAP3 AND PUSH2 0x100 EXP SWAP1 DIV AND EQ PUSH2 0x8D7 JUMPI PUSH1 0x40 MLOAD PUSH3 0x461BCD PUSH1 0xE5 SHL DUP2 MSTORE PUSH1 0x4 ADD PUSH2 0x559 SWAP1 PUSH2 0x361A JUMP JUMPDEST DUP1 PUSH1 0xE ADD DUP5 DUP2 SLOAD DUP2 LT PUSH2 0x8EC JUMPI PUSH2 0x8EC PUSH2 0x35DF JUMP JUMPDEST PUSH1 0x0 SWAP2 DUP3 MSTORE PUSH1 0x20 SWAP1 SWAP2 KECCAK256 ADD SLOAD PUSH1 0x1 PUSH1 0x1 PUSH1 0xA0 SHL SUB AND CALLER SUB PUSH2 0x94F JUMPI PUSH1 0x40 MLOAD PUSH3 0x461BCD PUSH1 0xE5 SHL DUP2 MSTORE PUSH1 0x20 PUSH1 0x4 DUP3 ADD MSTORE PUSH1 0x1B PUSH1 0x24 DUP3 ADD MSTORE PUSH32 0x43616E6E6F74206265206469737075746520696E69746961746F720000000000 PUSH1 0x44 DUP3 ADD MSTORE PUSH1 0x64 ADD PUSH2 0x559 JUMP JUMPDEST PUSH1 0x1 DUP2 ADD SLOAD PUSH1 0x1 PUSH1 0x1 PUSH1 0xA0 SHL SUB AND CALLER EQ DUP1 PUSH2 0x976 JUMPI POP PUSH1 0x2 DUP2 ADD SLOAD PUSH1 0x1 PUSH1 0x1 PUSH1 0xA0 SHL SUB AND CALLER EQ JUMPDEST PUSH2 0x992 JUMPI PUSH1 0x40 MLOAD PUSH3 0x461BCD PUSH1 0xE5 SHL DUP2 MSTORE PUSH1 0x4 ADD PUSH2 0x559 SWAP1 PUSH2 0x3640 JUMP JUMPDEST PUSH1 0x0 DUP1 SHL DUP2 PUSH1 0xF ADD DUP6 DUP2 SLOAD DUP2 LT PUSH2 0x9AB JUMPI PUSH2 0x9AB PUSH2 0x35DF JUMP JUMPDEST SWAP1 PUSH1 0x0 MSTORE PUSH1 0x20 PUSH1 0x0 KECCAK256 ADD SLOAD EQ PUSH2 0x9D3 JUMPI PUSH1 0x40 MLOAD PUSH3 0x461BCD PUSH1 0xE5 SHL DUP2 MSTORE PUSH1 0x4 ADD PUSH2 0x559 SWAP1 PUSH2 0x3665 JUMP JUMPDEST DUP3 DUP2 PUSH1 0xF ADD DUP6 DUP2 SLOAD DUP2 LT PUSH2 0x9E9 JUMPI PUSH2 0x9E9 PUSH2 0x35DF JUMP JUMPDEST SWAP1 PUSH1 0x0 MSTORE PUSH1 0x20 PUSH1 0x0 KECCAK256 ADD DUP2 SWAP1 SSTORE POP DUP5 PUSH32 0xD3E98A1F59C0D6777B1BA75361D009E58728247A51150D702BC7D7519B1D4034 DUP6 DUP6 PUSH1 0x40 MLOAD PUSH2 0x74B SWAP3 SWAP2 SWAP1 SWAP2 DUP3 MSTORE PUSH1 0x20 DUP3 ADD MSTORE PUSH1 0x40 ADD SWAP1 JUMP JUMPDEST PUSH1 0x0 DUP3 DUP2 MSTORE PUSH1 0x5 PUSH1 0x20 MSTORE PUSH1 0x40 SWAP1 KECCAK256 SLOAD DUP3 SWAP1 PUSH1 0xFF AND PUSH2 0xA62 JUMPI PUSH1 0x40 MLOAD PUSH3 0x461BCD PUSH1 0xE5 SHL DUP2 MSTORE PUSH1 0x4 ADD PUSH2 0x559 SWAP1 PUSH2 0x353C JUMP JUMPDEST PUSH1 0x1 SLOAD PUSH1 0x1 PUSH1 0x1 PUSH1 0xA0 SHL SUB AND CALLER EQ DUP1 PUSH2 0xA85 JUMPI POP PUSH1 0x0 SLOAD PUSH1 0x1 PUSH1 0x1 PUSH1 0xA0 SHL SUB AND CALLER EQ JUMPDEST PUSH2 0xAA1 JUMPI PUSH1 0x40 MLOAD PUSH3 0x461BCD PUSH1 0xE5 SHL DUP2 MSTORE PUSH1 0x4 ADD PUSH2 0x559 SWAP1 PUSH2 0x3690 JUMP JUMPDEST PUSH2 0xAA9 PUSH2 0x2DDF JUMP JUMPDEST PUSH1 0x0 DUP4 DUP2 MSTORE PUSH1 0x4 PUSH1 0x20 MSTORE PUSH1 0x40 SWAP1 KECCAK256 PUSH1 0x2 PUSH1 0x4 DUP3 ADD SLOAD PUSH1 0xFF AND PUSH1 0x2 DUP2 GT ISZERO PUSH2 0xAD2 JUMPI PUSH2 0xAD2 PUSH2 0x30A1 JUMP JUMPDEST EQ PUSH2 0xAEF JUMPI PUSH1 0x40 MLOAD PUSH3 0x461BCD PUSH1 0xE5 SHL DUP2 MSTORE PUSH1 0x4 ADD PUSH2 0x559 SWAP1 PUSH2 0x3566 JUMP JUMPDEST PUSH1 0x1 PUSH1 0x4 DUP3 DUP2 ADD SLOAD PUSH2 0x100 SWAP1 DIV PUSH1 0xFF AND SWAP1 DUP2 GT ISZERO PUSH2 0xB0F JUMPI PUSH2 0xB0F PUSH2 0x30A1 JUMP JUMPDEST EQ PUSH2 0xB2C JUMPI PUSH1 0x40 MLOAD PUSH3 0x461BCD PUSH1 0xE5 SHL DUP2 MSTORE PUSH1 0x4 ADD PUSH2 0x559 SWAP1 PUSH2 0x3594 JUMP JUMPDEST PUSH1 0xA DUP2 ADD SLOAD DUP4 LT PUSH2 0xB4F JUMPI PUSH1 0x40 MLOAD PUSH3 0x461BCD PUSH1 0xE5 SHL DUP2 MSTORE PUSH1 0x4 ADD PUSH2 0x559 SWAP1 PUSH2 0x35B8 JUMP JUMPDEST PUSH1 0x0 PUSH1 0xFF AND DUP2 PUSH1 0xB ADD DUP5 DUP2 SLOAD DUP2 LT PUSH2 0xB69 JUMPI PUSH2 0xB69 PUSH2 0x35DF JUMP JUMPDEST PUSH1 0x0 SWAP2 DUP3 MSTORE PUSH1 0x20 SWAP2 DUP3 SWAP1 KECCAK256 SWAP2 DUP2 DIV SWAP1 SWAP2 ADD SLOAD PUSH1 0xFF PUSH1 0x1F SWAP1 SWAP3 AND PUSH2 0x100 EXP SWAP1 DIV AND EQ PUSH2 0xBA6 JUMPI PUSH1 0x40 MLOAD PUSH3 0x461BCD PUSH1 0xE5 SHL DUP2 MSTORE PUSH1 0x4 ADD PUSH2 0x559 SWAP1 PUSH2 0x35F5 JUMP JUMPDEST PUSH1 0x1 DUP2 PUSH1 0xB ADD DUP5 DUP2 SLOAD DUP2 LT PUSH2 0xBBD JUMPI PUSH2 0xBBD PUSH2 0x35DF JUMP JUMPDEST SWAP1 PUSH1 0x0 MSTORE PUSH1 0x20 PUSH1 0x0 KECCAK256 SWAP1 PUSH1 0x20 SWAP2 DUP3 DUP3 DIV ADD SWAP2 SWAP1 MOD PUSH2 0x100 EXP DUP2 SLOAD DUP2 PUSH1 0xFF MUL NOT AND SWAP1 DUP4 PUSH1 0xFF AND MUL OR SWAP1 SSTORE POP PUSH1 0x0 DUP2 PUSH1 0xA ADD DUP5 DUP2 SLOAD DUP2 LT PUSH2 0xBFE JUMPI PUSH2 0xBFE PUSH2 0x35DF JUMP JUMPDEST PUSH1 0x0 SWAP2 DUP3 MSTORE PUSH1 0x20 SWAP1 SWAP2 KECCAK256 ADD SLOAD PUSH1 0x2 DUP4 ADD SLOAD SWAP1 SWAP2 POP PUSH2 0xC25 SWAP1 PUSH1 0x1 PUSH1 0x1 PUSH1 0xA0 SHL SUB AND DUP3 PUSH2 0x2DFB JUMP JUMPDEST PUSH1 0x2 DUP3 ADD SLOAD PUSH1 0x40 DUP1 MLOAD DUP7 DUP2 MSTORE PUSH1 0x20 DUP2 ADD DUP5 SWAP1 MSTORE PUSH1 0x1 PUSH1 0x1 PUSH1 0xA0 SHL SUB SWAP1 SWAP3 AND SWAP2 DUP8 SWAP2 PUSH32 0x7D88280C8D69BD9F5220D624D2598B2CB1150C5F98F5052691BA8C56DBA6D645 SWAP2 ADD PUSH1 0x40 MLOAD DUP1 SWAP2 SUB SWAP1 LOG3 POP POP PUSH2 0xC8A PUSH1 0x1 PUSH1 0x0 DUP1 MLOAD PUSH1 0x20 PUSH2 0x3761 DUP4 CODECOPY DUP2 MLOAD SWAP2 MSTORE SSTORE JUMP JUMPDEST POP POP POP JUMP JUMPDEST PUSH2 0xC97 PUSH2 0x2DB2 JUMP JUMPDEST PUSH2 0xCA1 PUSH1 0x0 PUSH2 0x2E99 JUMP JUMPDEST JUMP JUMPDEST PUSH1 0x0 SLOAD PUSH1 0x1 PUSH1 0x1 PUSH1 0xA0 SHL SUB AND CALLER EQ DUP1 PUSH2 0xCC6 JUMPI POP PUSH1 0x1 SLOAD PUSH1 0x1 PUSH1 0x1 PUSH1 0xA0 SHL SUB AND CALLER EQ JUMPDEST DUP1 PUSH2 0xCD9 JUMPI POP CALLER PUSH1 0x1 PUSH1 0x1 PUSH1 0xA0 SHL SUB DUP8 AND EQ JUMPDEST PUSH2 0xCF5 JUMPI PUSH1 0x40 MLOAD PUSH3 0x461BCD PUSH1 0xE5 SHL DUP2 MSTORE PUSH1 0x4 ADD PUSH2 0x559 SWAP1 PUSH2 0x3690 JUMP JUMPDEST PUSH1 0x0 DUP8 DUP2 MSTORE PUSH1 0x5 PUSH1 0x20 MSTORE PUSH1 0x40 SWAP1 KECCAK256 SLOAD PUSH1 0xFF AND ISZERO PUSH2 0xD46 JUMPI PUSH1 0x40 MLOAD PUSH3 0x461BCD PUSH1 0xE5 SHL DUP2 MSTORE PUSH1 0x20 PUSH1 0x4 DUP3 ADD MSTORE PUSH1 0xF PUSH1 0x24 DUP3 ADD MSTORE PUSH15 0x125108185B1C9958591E481D5CD959 PUSH1 0x8A SHL PUSH1 0x44 DUP3 ADD MSTORE PUSH1 0x64 ADD PUSH2 0x559 JUMP JUMPDEST PUSH1 0x1 PUSH1 0x1 PUSH1 0xA0 SHL SUB DUP7 AND PUSH2 0xD8C JUMPI PUSH1 0x40 MLOAD PUSH3 0x461BCD PUSH1 0xE5 SHL DUP2 MSTORE PUSH1 0x20 PUSH1 0x4 DUP3 ADD MSTORE PUSH1 0xD PUSH1 0x24 DUP3 ADD MSTORE PUSH13 0x24B73B30B634B210313ABCB2B9 PUSH1 0x99 SHL PUSH1 0x44 DUP3 ADD MSTORE PUSH1 0x64 ADD PUSH2 0x559 JUMP JUMPDEST PUSH1 0x1 PUSH1 0x1 PUSH1 0xA0 SHL SUB DUP6 AND PUSH2 0xDD3 JUMPI PUSH1 0x40 MLOAD PUSH3 0x461BCD PUSH1 0xE5 SHL DUP2 MSTORE PUSH1 0x20 PUSH1 0x4 DUP3 ADD MSTORE PUSH1 0xE PUSH1 0x24 DUP3 ADD MSTORE PUSH14 0x24B73B30B634B21039B2B63632B9 PUSH1 0x91 SHL PUSH1 0x44 DUP3 ADD MSTORE PUSH1 0x64 ADD PUSH2 0x559 JUMP JUMPDEST DUP6 PUSH1 0x1 PUSH1 0x1 PUSH1 0xA0 SHL SUB AND DUP6 PUSH1 0x1 PUSH1 0x1 PUSH1 0xA0 SHL SUB AND SUB PUSH2 0xE2D JUMPI PUSH1 0x40 MLOAD PUSH3 0x461BCD PUSH1 0xE5 SHL DUP2 MSTORE PUSH1 0x20 PUSH1 0x4 DUP3 ADD MSTORE PUSH1 0x16 PUSH1 0x24 DUP3 ADD MSTORE PUSH22 0x213ABCB2B91031B0B73737BA1031329039B2B63632B9 PUSH1 0x51 SHL PUSH1 0x44 DUP3 ADD MSTORE PUSH1 0x64 ADD PUSH2 0x559 JUMP JUMPDEST PUSH1 0x0 DUP5 GT PUSH2 0xE7D JUMPI PUSH1 0x40 MLOAD PUSH3 0x461BCD PUSH1 0xE5 SHL DUP2 MSTORE PUSH1 0x20 PUSH1 0x4 DUP3 ADD MSTORE PUSH1 0x17 PUSH1 0x24 DUP3 ADD MSTORE PUSH32 0x416D6F756E74206D75737420626520706F736974697665000000000000000000 PUSH1 0x44 DUP3 ADD MSTORE PUSH1 0x64 ADD PUSH2 0x559 JUMP JUMPDEST PUSH1 0x2 DUP4 PUSH1 0x2 DUP2 GT ISZERO PUSH2 0xE91 JUMPI PUSH2 0xE91 PUSH2 0x30A1 JUMP JUMPDEST SUB PUSH2 0xFE0 JUMPI DUP1 PUSH2 0xEDC JUMPI PUSH1 0x40 MLOAD PUSH3 0x461BCD PUSH1 0xE5 SHL DUP2 MSTORE PUSH1 0x20 PUSH1 0x4 DUP3 ADD MSTORE PUSH1 0x16 PUSH1 0x24 DUP3 ADD MSTORE PUSH22 0x139BC81B5A5B195CDD1BDB995CC81C1C9BDD9A591959 PUSH1 0x52 SHL PUSH1 0x44 DUP3 ADD MSTORE PUSH1 0x64 ADD PUSH2 0x559 JUMP JUMPDEST PUSH1 0x0 DUP1 JUMPDEST DUP3 DUP2 LT ISZERO PUSH2 0xF7E JUMPI PUSH1 0x0 DUP5 DUP5 DUP4 DUP2 DUP2 LT PUSH2 0xEFC JUMPI PUSH2 0xEFC PUSH2 0x35DF JUMP JUMPDEST SWAP1 POP PUSH1 0x20 MUL ADD CALLDATALOAD GT PUSH2 0xF48 JUMPI PUSH1 0x40 MLOAD PUSH3 0x461BCD PUSH1 0xE5 SHL DUP2 MSTORE PUSH1 0x20 PUSH1 0x4 DUP3 ADD MSTORE PUSH1 0x15 PUSH1 0x24 DUP3 ADD MSTORE PUSH21 0x16995C9BC81B5A5B195CDD1BDB9948185B5BDD5B9D PUSH1 0x5A SHL PUSH1 0x44 DUP3 ADD MSTORE PUSH1 0x64 ADD PUSH2 0x559 JUMP JUMPDEST DUP4 DUP4 DUP3 DUP2 DUP2 LT PUSH2 0xF5A JUMPI PUSH2 0xF5A PUSH2 0x35DF JUMP JUMPDEST SWAP1 POP PUSH1 0x20 MUL ADD CALLDATALOAD DUP3 PUSH2 0xF6C SWAP2 SWAP1 PUSH2 0x36CE JUMP JUMPDEST SWAP2 POP PUSH2 0xF77 DUP2 PUSH2 0x36E7 JUMP JUMPDEST SWAP1 POP PUSH2 0xEE0 JUMP JUMPDEST POP DUP5 DUP2 EQ PUSH2 0xFDA JUMPI PUSH1 0x40 MLOAD PUSH3 0x461BCD PUSH1 0xE5 SHL DUP2 MSTORE PUSH1 0x20 PUSH1 0x4 DUP3 ADD MSTORE PUSH1 0x23 PUSH1 0x24 DUP3 ADD MSTORE PUSH32 0x4D696C6573746F6E6520616D6F756E7473206D7573742073756D20746F20746F PUSH1 0x44 DUP3 ADD MSTORE PUSH3 0x1D185B PUSH1 0xEA SHL PUSH1 0x64 DUP3 ADD MSTORE PUSH1 0x84 ADD PUSH2 0x559 JUMP JUMPDEST POP PUSH2 0x1039 JUMP JUMPDEST DUP1 ISZERO PUSH2 0x1039 JUMPI PUSH1 0x40 MLOAD PUSH3 0x461BCD PUSH1 0xE5 SHL DUP2 MSTORE PUSH1 0x20 PUSH1 0x4 DUP3 ADD MSTORE PUSH1 0x22 PUSH1 0x24 DUP3 ADD MSTORE PUSH32 0x4D696C6573746F6E6573206F6E6C7920666F72204D696C6573746F6E65206D6F PUSH1 0x44 DUP3 ADD MSTORE PUSH2 0x6465 PUSH1 0xF0 SHL PUSH1 0x64 DUP3 ADD MSTORE PUSH1 0x84 ADD PUSH2 0x559 JUMP JUMPDEST PUSH1 0x0 DUP8 DUP2 MSTORE PUSH1 0x5 PUSH1 0x20 SWAP1 DUP2 MSTORE PUSH1 0x40 DUP1 DUP4 KECCAK256 DUP1 SLOAD PUSH1 0xFF NOT SWAP1 DUP2 AND PUSH1 0x1 SWAP1 DUP2 OR SWAP1 SWAP3 SSTORE PUSH1 0x4 SWAP4 DUP5 SWAP1 MSTORE SWAP2 SWAP1 SWAP4 KECCAK256 DUP11 DUP2 SSTORE DUP1 DUP5 ADD DUP1 SLOAD PUSH1 0x1 PUSH1 0x1 PUSH1 0xA0 SHL SUB DUP1 DUP14 AND PUSH1 0x1 PUSH1 0x1 PUSH1 0xA0 SHL SUB NOT SWAP3 DUP4 AND OR SWAP1 SWAP3 SSTORE PUSH1 0x2 DUP1 DUP5 ADD DUP1 SLOAD SWAP4 DUP14 AND SWAP4 SWAP1 SWAP3 AND SWAP3 SWAP1 SWAP3 OR SWAP1 SSTORE PUSH1 0x3 DUP3 ADD DUP10 SWAP1 SSTORE SWAP3 DUP2 ADD DUP1 SLOAD SWAP2 SWAP5 DUP9 SWAP5 SWAP2 SWAP4 SWAP3 SWAP1 SWAP3 AND SWAP2 SWAP1 DUP5 SWAP1 DUP2 GT ISZERO PUSH2 0x10C4 JUMPI PUSH2 0x10C4 PUSH2 0x30A1 JUMP JUMPDEST MUL OR SWAP1 SSTORE POP PUSH1 0x4 DUP2 ADD DUP1 SLOAD PUSH2 0xFF00 NOT AND SWAP1 SSTORE PUSH1 0x0 JUMPDEST DUP3 DUP2 LT ISZERO PUSH2 0x11B5 JUMPI DUP2 PUSH1 0xA ADD DUP5 DUP5 DUP4 DUP2 DUP2 LT PUSH2 0x10F7 JUMPI PUSH2 0x10F7 PUSH2 0x35DF JUMP JUMPDEST DUP4 SLOAD PUSH1 0x1 DUP1 DUP3 ADD DUP7 SSTORE PUSH1 0x0 SWAP6 DUP7 MSTORE PUSH1 0x20 DUP1 DUP8 KECCAK256 SWAP4 DUP2 MUL SWAP6 SWAP1 SWAP6 ADD CALLDATALOAD SWAP3 SWAP1 SWAP2 ADD SWAP2 SWAP1 SWAP2 SSTORE PUSH1 0xB DUP7 ADD DUP1 SLOAD DUP1 DUP4 ADD DUP3 SSTORE SWAP1 DUP6 MSTORE DUP4 DUP6 KECCAK256 DUP5 DUP3 DIV ADD DUP1 SLOAD PUSH1 0x1F SWAP1 SWAP3 AND PUSH2 0x100 EXP PUSH1 0xFF MUL NOT SWAP1 SWAP2 AND SWAP1 SSTORE PUSH1 0xC DUP7 ADD DUP1 SLOAD DUP1 DUP4 ADD DUP3 SSTORE SWAP1 DUP6 MSTORE DUP4 DUP6 KECCAK256 ADD DUP5 SWAP1 SSTORE PUSH1 0xD DUP7 ADD DUP1 SLOAD DUP1 DUP4 ADD DUP3 SSTORE SWAP1 DUP6 MSTORE DUP4 DUP6 KECCAK256 ADD DUP5 SWAP1 SSTORE PUSH1 0xE DUP7 ADD DUP1 SLOAD DUP1 DUP4 ADD DUP3 SSTORE SWAP1 DUP6 MSTORE DUP4 DUP6 KECCAK256 ADD DUP1 SLOAD PUSH1 0x1 PUSH1 0x1 PUSH1 0xA0 SHL SUB NOT AND SWAP1 SSTORE PUSH1 0xF DUP7 ADD DUP1 SLOAD SWAP2 DUP3 ADD DUP2 SSTORE DUP5 MSTORE SWAP2 DUP4 KECCAK256 SWAP1 SWAP2 ADD SWAP2 SWAP1 SWAP2 SSTORE POP PUSH2 0x11AE DUP2 PUSH2 0x36E7 JUMP JUMPDEST SWAP1 POP PUSH2 0x10D9 JUMP JUMPDEST POP DUP6 PUSH1 0x1 PUSH1 0x1 PUSH1 0xA0 SHL SUB AND DUP8 PUSH1 0x1 PUSH1 0x1 PUSH1 0xA0 SHL SUB AND DUP10 PUSH32 0x384D64C3FC97A834EB33E05972CDDE75D11DCBA08D62D708FAC8779C36F7BB9F DUP9 DUP9 PUSH1 0x40 MLOAD PUSH2 0x11FC SWAP3 SWAP2 SWAP1 PUSH2 0x3700 JUMP JUMPDEST PUSH1 0x40 MLOAD DUP1 SWAP2 SUB SWAP1 LOG4 POP POP POP POP POP POP POP POP JUMP JUMPDEST PUSH1 0x0 DUP3 DUP2 MSTORE PUSH1 0x5 PUSH1 0x20 MSTORE PUSH1 0x40 SWAP1 KECCAK256 SLOAD DUP3 SWAP1 PUSH1 0xFF AND PUSH2 0x123E JUMPI PUSH1 0x40 MLOAD PUSH3 0x461BCD PUSH1 0xE5 SHL DUP2 MSTORE PUSH1 0x4 ADD PUSH2 0x559 SWAP1 PUSH2 0x353C JUMP JUMPDEST PUSH1 0x0 DUP4 DUP2 MSTORE PUSH1 0x4 PUSH1 0x20 MSTORE PUSH1 0x40 SWAP1 KECCAK256 PUSH1 0x1 ADD SLOAD DUP4 SWAP1 PUSH1 0x1 PUSH1 0x1 PUSH1 0xA0 SHL SUB AND CALLER EQ DUP1 PUSH2 0x1281 JUMPI POP PUSH1 0x0 DUP2 DUP2 MSTORE PUSH1 0x4 PUSH1 0x20 MSTORE PUSH1 0x40 SWAP1 KECCAK256 PUSH1 0x2 ADD SLOAD PUSH1 0x1 PUSH1 0x1 PUSH1 0xA0 SHL SUB AND CALLER EQ JUMPDEST PUSH2 0x129D JUMPI PUSH1 0x40 MLOAD PUSH3 0x461BCD PUSH1 0xE5 SHL DUP2 MSTORE PUSH1 0x4 ADD PUSH2 0x559 SWAP1 PUSH2 0x3640 JUMP JUMPDEST PUSH1 0x0 DUP5 DUP2 MSTORE PUSH1 0x4 PUSH1 0x20 MSTORE PUSH1 0x40 SWAP1 KECCAK256 PUSH1 0x2 PUSH1 0x4 DUP3 ADD SLOAD PUSH1 0xFF AND PUSH1 0x2 DUP2 GT ISZERO PUSH2 0x12C6 JUMPI PUSH2 0x12C6 PUSH2 0x30A1 JUMP JUMPDEST SUB PUSH2 0x130A JUMPI PUSH1 0x40 MLOAD PUSH3 0x461BCD PUSH1 0xE5 SHL DUP2 MSTORE PUSH1 0x20 PUSH1 0x4 DUP3 ADD MSTORE PUSH1 0x14 PUSH1 0x24 DUP3 ADD MSTORE PUSH20 0x55736520646973707574654D696C6573746F6E65 PUSH1 0x60 SHL PUSH1 0x44 DUP3 ADD MSTORE PUSH1 0x64 ADD PUSH2 0x559 JUMP JUMPDEST PUSH1 0x1 PUSH1 0x4 DUP3 DUP2 ADD SLOAD PUSH2 0x100 SWAP1 DIV PUSH1 0xFF AND SWAP1 DUP2 GT ISZERO PUSH2 0x132A JUMPI PUSH2 0x132A PUSH2 0x30A1 JUMP JUMPDEST EQ PUSH2 0x1347 JUMPI PUSH1 0x40 MLOAD PUSH3 0x461BCD PUSH1 0xE5 SHL DUP2 MSTORE PUSH1 0x4 ADD PUSH2 0x559 SWAP1 PUSH2 0x3594 JUMP JUMPDEST DUP4 PUSH2 0x1390 JUMPI PUSH1 0x40 MLOAD PUSH3 0x461BCD PUSH1 0xE5 SHL DUP2 MSTORE PUSH1 0x20 PUSH1 0x4 DUP3 ADD MSTORE PUSH1 0x19 PUSH1 0x24 DUP3 ADD MSTORE PUSH25 0x111A5CDC1D5D1948195D9A59195B98D9481C995C5D5A5C9959 PUSH1 0x3A SHL PUSH1 0x44 DUP3 ADD MSTORE PUSH1 0x64 ADD PUSH2 0x559 JUMP JUMPDEST PUSH1 0x4 DUP2 ADD DUP1 SLOAD PUSH2 0xFF00 NOT AND PUSH2 0x300 OR SWAP1 SSTORE PUSH1 0x7 DUP2 ADD DUP5 SWAP1 SSTORE PUSH1 0x9 DUP2 ADD DUP1 SLOAD PUSH1 0x1 PUSH1 0x1 PUSH1 0xA0 SHL SUB NOT AND CALLER SWAP1 DUP2 OR SWAP1 SWAP2 SSTORE PUSH1 0x40 MLOAD DUP7 SWAP1 PUSH32 0xBA174EB1C3530DA63920B98261208EEB30B48447D1CFCBBDF116FD4EE8C62DB SWAP1 PUSH1 0x0 SWAP1 LOG3 POP POP POP POP POP JUMP JUMPDEST PUSH2 0x13F9 PUSH2 0x2DB2 JUMP JUMPDEST PUSH1 0x1 PUSH1 0x1 PUSH1 0xA0 SHL SUB DUP2 AND PUSH2 0x1440 JUMPI PUSH1 0x40 MLOAD PUSH3 0x461BCD PUSH1 0xE5 SHL DUP2 MSTORE PUSH1 0x20 PUSH1 0x4 DUP3 ADD MSTORE PUSH1 0xE PUSH1 0x24 DUP3 ADD MSTORE PUSH14 0x125B9D985B1A59081DD85B1B195D PUSH1 0x92 SHL PUSH1 0x44 DUP3 ADD MSTORE PUSH1 0x64 ADD PUSH2 0x559 JUMP JUMPDEST PUSH1 0x3 SLOAD PUSH1 0x40 MLOAD PUSH1 0x1 PUSH1 0x1 PUSH1 0xA0 SHL SUB DUP1 DUP5 AND SWAP3 AND SWAP1 PUSH32 0xF84F6B525C89A18C80BBBC0C62A7EB5390956D6B8432AB067B49963A98F8C38F SWAP1 PUSH1 0x0 SWAP1 LOG3 PUSH1 0x3 DUP1 SLOAD PUSH1 0x1 PUSH1 0x1 PUSH1 0xA0 SHL SUB NOT AND PUSH1 0x1 PUSH1 0x1 PUSH1 0xA0 SHL SUB SWAP3 SWAP1 SWAP3 AND SWAP2 SWAP1 SWAP2 OR SWAP1 SSTORE JUMP JUMPDEST PUSH1 0x0 DUP3 DUP2 MSTORE PUSH1 0x5 PUSH1 0x20 MSTORE PUSH1 0x40 SWAP1 KECCAK256 SLOAD DUP3 SWAP1 PUSH1 0xFF AND PUSH2 0x14CC JUMPI PUSH1 0x40 MLOAD PUSH3 0x461BCD PUSH1 0xE5 SHL DUP2 MSTORE PUSH1 0x4 ADD PUSH2 0x559 SWAP1 PUSH2 0x353C JUMP JUMPDEST PUSH1 0x0 DUP4 DUP2 MSTORE PUSH1 0x4 PUSH1 0x20 MSTORE PUSH1 0x40 SWAP1 KECCAK256 PUSH1 0x1 DUP2 ADD SLOAD PUSH1 0x1 PUSH1 0x1 PUSH1 0xA0 SHL SUB AND CALLER EQ PUSH2 0x1523 JUMPI PUSH1 0x40 MLOAD PUSH3 0x461BCD PUSH1 0xE5 SHL DUP2 MSTORE PUSH1 0x20 PUSH1 0x4 DUP3 ADD MSTORE PUSH1 0xA PUSH1 0x24 DUP3 ADD MSTORE PUSH10 0x27B7363C90313ABCB2B9 PUSH1 0xB1 SHL PUSH1 0x44 DUP3 ADD MSTORE PUSH1 0x64 ADD PUSH2 0x559 JUMP JUMPDEST PUSH1 0x0 PUSH1 0x4 DUP3 DUP2 ADD SLOAD PUSH2 0x100 SWAP1 DIV PUSH1 0xFF AND SWAP1 DUP2 GT ISZERO PUSH2 0x1543 JUMPI PUSH2 0x1543 PUSH2 0x30A1 JUMP JUMPDEST EQ DUP1 PUSH2 0x156C JUMPI POP PUSH1 0x1 PUSH1 0x4 DUP3 DUP2 ADD SLOAD PUSH2 0x100 SWAP1 DIV PUSH1 0xFF AND SWAP1 DUP2 GT ISZERO PUSH2 0x156A JUMPI PUSH2 0x156A PUSH2 0x30A1 JUMP JUMPDEST EQ JUMPDEST PUSH2 0x15A9 JUMPI PUSH1 0x40 MLOAD PUSH3 0x461BCD PUSH1 0xE5 SHL DUP2 MSTORE PUSH1 0x20 PUSH1 0x4 DUP3 ADD MSTORE PUSH1 0xE PUSH1 0x24 DUP3 ADD MSTORE PUSH14 0x496E76616C696420737461747573 PUSH1 0x90 SHL PUSH1 0x44 DUP3 ADD MSTORE PUSH1 0x64 ADD PUSH2 0x559 JUMP JUMPDEST PUSH1 0x6 DUP2 ADD SLOAD ISZERO PUSH2 0x15CB JUMPI PUSH1 0x40 MLOAD PUSH3 0x461BCD PUSH1 0xE5 SHL DUP2 MSTORE PUSH1 0x4 ADD PUSH2 0x559 SWAP1 PUSH2 0x3665 JUMP JUMPDEST PUSH1 0x6 DUP2 ADD DUP4 SWAP1 SSTORE PUSH1 0x40 MLOAD DUP4 DUP2 MSTORE DUP5 SWAP1 PUSH32 0x2CA35514B320F9307F941B4C7938E28537AD3B603135109F1E8BD13EDC057EB2 SWAP1 PUSH1 0x20 ADD JUMPDEST PUSH1 0x40 MLOAD DUP1 SWAP2 SUB SWAP1 LOG2 POP POP POP POP JUMP JUMPDEST PUSH1 0x0 DUP2 DUP2 MSTORE PUSH1 0x5 PUSH1 0x20 MSTORE PUSH1 0x40 SWAP1 KECCAK256 SLOAD DUP2 SWAP1 PUSH1 0xFF AND PUSH2 0x163E JUMPI PUSH1 0x40 MLOAD PUSH3 0x461BCD PUSH1 0xE5 SHL DUP2 MSTORE PUSH1 0x4 ADD PUSH2 0x559 SWAP1 PUSH2 0x353C JUMP JUMPDEST PUSH1 0x1 SLOAD PUSH1 0x1 PUSH1 0x1 PUSH1 0xA0 SHL SUB AND CALLER EQ DUP1 PUSH2 0x1661 JUMPI POP PUSH1 0x0 SLOAD PUSH1 0x1 PUSH1 0x1 PUSH1 0xA0 SHL SUB AND CALLER EQ JUMPDEST PUSH2 0x167D JUMPI PUSH1 0x40 MLOAD PUSH3 0x461BCD PUSH1 0xE5 SHL DUP2 MSTORE PUSH1 0x4 ADD PUSH2 0x559 SWAP1 PUSH2 0x3690 JUMP JUMPDEST PUSH2 0x1685 PUSH2 0x2DDF JUMP JUMPDEST PUSH1 0x0 DUP3 DUP2 MSTORE PUSH1 0x4 PUSH1 0x20 MSTORE PUSH1 0x40 SWAP1 KECCAK256 PUSH1 0x2 PUSH1 0x4 DUP3 ADD SLOAD PUSH1 0xFF AND PUSH1 0x2 DUP2 GT ISZERO PUSH2 0x16AE JUMPI PUSH2 0x16AE PUSH2 0x30A1 JUMP JUMPDEST SUB PUSH2 0x16F2 JUMPI PUSH1 0x40 MLOAD PUSH3 0x461BCD PUSH1 0xE5 SHL DUP2 MSTORE PUSH1 0x20 PUSH1 0x4 DUP3 ADD MSTORE PUSH1 0x14 PUSH1 0x24 DUP3 ADD MSTORE PUSH20 0x5573652072656C656173654D696C6573746F6E65 PUSH1 0x60 SHL PUSH1 0x44 DUP3 ADD MSTORE PUSH1 0x64 ADD PUSH2 0x559 JUMP JUMPDEST PUSH1 0x1 PUSH1 0x4 DUP3 DUP2 ADD SLOAD PUSH2 0x100 SWAP1 DIV PUSH1 0xFF AND SWAP1 DUP2 GT ISZERO PUSH2 0x1712 JUMPI PUSH2 0x1712 PUSH2 0x30A1 JUMP JUMPDEST EQ PUSH2 0x172F JUMPI PUSH1 0x40 MLOAD PUSH3 0x461BCD PUSH1 0xE5 SHL DUP2 MSTORE PUSH1 0x4 ADD PUSH2 0x559 SWAP1 PUSH2 0x3594 JUMP JUMPDEST PUSH1 0x5 DUP2 ADD SLOAD PUSH2 0x1775 JUMPI PUSH1 0x40 MLOAD PUSH3 0x461BCD PUSH1 0xE5 SHL DUP2 MSTORE PUSH1 0x20 PUSH1 0x4 DUP3 ADD MSTORE PUSH1 0x12 PUSH1 0x24 DUP3 ADD MSTORE PUSH18 0x139BC81C1C9BDBD9881CDD589B5A5D1D1959 PUSH1 0x72 SHL PUSH1 0x44 DUP3 ADD MSTORE PUSH1 0x64 ADD PUSH2 0x559 JUMP JUMPDEST PUSH1 0x4 DUP2 ADD DUP1 SLOAD PUSH2 0xFF00 NOT AND PUSH2 0x200 OR SWAP1 SSTORE PUSH1 0x2 DUP2 ADD SLOAD PUSH1 0x3 DUP3 ADD SLOAD PUSH2 0x17A3 SWAP2 PUSH1 0x1 PUSH1 0x1 PUSH1 0xA0 SHL SUB AND SWAP1 PUSH2 0x2DFB JUMP JUMPDEST PUSH1 0x2 DUP2 ADD SLOAD PUSH1 0x3 DUP3 ADD SLOAD PUSH1 0x40 MLOAD SWAP1 DUP2 MSTORE PUSH1 0x1 PUSH1 0x1 PUSH1 0xA0 SHL SUB SWAP1 SWAP2 AND SWAP1 DUP5 SWAP1 PUSH32 0x80CF860B836D9187D02D59DA7A5A18EEBEDF97A08250A9E8127A43C6E1852A30 SWAP1 PUSH1 0x20 ADD JUMPDEST PUSH1 0x40 MLOAD DUP1 SWAP2 SUB SWAP1 LOG3 POP PUSH2 0x1807 PUSH1 0x1 PUSH1 0x0 DUP1 MLOAD PUSH1 0x20 PUSH2 0x3761 DUP4 CODECOPY DUP2 MLOAD SWAP2 MSTORE SSTORE JUMP JUMPDEST POP POP JUMP JUMPDEST PUSH1 0x0 DUP2 DUP2 MSTORE PUSH1 0x5 PUSH1 0x20 MSTORE PUSH1 0x40 SWAP1 KECCAK256 SLOAD DUP2 SWAP1 PUSH1 0xFF AND PUSH2 0x183B JUMPI PUSH1 0x40 MLOAD PUSH3 0x461BCD PUSH1 0xE5 SHL DUP2 MSTORE PUSH1 0x4 ADD PUSH2 0x559 SWAP1 PUSH2 0x353C JUMP JUMPDEST PUSH1 0x0 DUP3 DUP2 MSTORE PUSH1 0x4 PUSH1 0x20 MSTORE PUSH1 0x40 SWAP1 KECCAK256 PUSH1 0x1 ADD SLOAD DUP3 SWAP1 PUSH1 0x1 PUSH1 0x1 PUSH1 0xA0 SHL SUB AND CALLER EQ DUP1 PUSH2 0x187E JUMPI POP PUSH1 0x0 DUP2 DUP2 MSTORE PUSH1 0x4 PUSH1 0x20 MSTORE PUSH1 0x40 SWAP1 KECCAK256 PUSH1 0x2 ADD SLOAD PUSH1 0x1 PUSH1 0x1 PUSH1 0xA0 SHL SUB AND CALLER EQ JUMPDEST PUSH2 0x189A JUMPI PUSH1 0x40 MLOAD PUSH3 0x461BCD PUSH1 0xE5 SHL DUP2 MSTORE PUSH1 0x4 ADD PUSH2 0x559 SWAP1 PUSH2 0x3640 JUMP JUMPDEST PUSH2 0x18A2 PUSH2 0x2DDF JUMP JUMPDEST PUSH1 0x0 DUP4 DUP2 MSTORE PUSH1 0x4 PUSH1 0x20 MSTORE PUSH1 0x40 SWAP1 KECCAK256 PUSH1 0x2 PUSH1 0x4 DUP3 ADD SLOAD PUSH1 0xFF AND PUSH1 0x2 DUP2 GT ISZERO PUSH2 0x18CB JUMPI PUSH2 0x18CB PUSH2 0x30A1 JUMP JUMPDEST SUB PUSH2 0x1912 JUMPI PUSH1 0x40 MLOAD PUSH3 0x461BCD PUSH1 0xE5 SHL DUP2 MSTORE PUSH1 0x20 PUSH1 0x4 DUP3 ADD MSTORE PUSH1 0x17 PUSH1 0x24 DUP3 ADD MSTORE PUSH23 0x557365206D696C6573746F6E652066756E6374696F6E73 PUSH1 0x48 SHL PUSH1 0x44 DUP3 ADD MSTORE PUSH1 0x64 ADD PUSH2 0x559 JUMP JUMPDEST PUSH1 0x1 PUSH1 0x4 DUP3 DUP2 ADD SLOAD PUSH2 0x100 SWAP1 DIV PUSH1 0xFF AND SWAP1 DUP2 GT ISZERO PUSH2 0x1932 JUMPI PUSH2 0x1932 PUSH2 0x30A1 JUMP JUMPDEST EQ PUSH2 0x194F JUMPI PUSH1 0x40 MLOAD PUSH3 0x461BCD PUSH1 0xE5 SHL DUP2 MSTORE PUSH1 0x4 ADD PUSH2 0x559 SWAP1 PUSH2 0x3594 JUMP JUMPDEST PUSH1 0x1 DUP2 ADD SLOAD PUSH1 0x1 PUSH1 0x1 PUSH1 0xA0 SHL SUB AND CALLER SUB PUSH2 0x1994 JUMPI PUSH1 0x4 DUP2 ADD SLOAD PUSH3 0x10000 SWAP1 DIV PUSH1 0xFF AND ISZERO PUSH2 0x197C JUMPI POP PUSH2 0x1AC3 JUMP JUMPDEST PUSH1 0x4 DUP2 ADD DUP1 SLOAD PUSH3 0xFF0000 NOT AND PUSH3 0x10000 OR SWAP1 SSTORE PUSH2 0x19C4 JUMP JUMPDEST PUSH1 0x4 DUP2 ADD SLOAD PUSH4 0x1000000 SWAP1 DIV PUSH1 0xFF AND ISZERO PUSH2 0x19AE JUMPI POP PUSH2 0x1AC3 JUMP JUMPDEST PUSH1 0x4 DUP2 ADD DUP1 SLOAD PUSH4 0xFF000000 NOT AND PUSH4 0x1000000 OR SWAP1 SSTORE JUMPDEST PUSH1 0x4 DUP2 ADD SLOAD PUSH1 0x40 DUP1 MLOAD PUSH1 0xFF PUSH3 0x10000 DUP5 DIV DUP2 AND ISZERO ISZERO DUP3 MSTORE PUSH4 0x1000000 SWAP1 SWAP4 DIV SWAP1 SWAP3 AND ISZERO ISZERO PUSH1 0x20 DUP4 ADD MSTORE CALLER SWAP2 DUP7 SWAP2 PUSH32 0x9BD4565894079A5B8D47EB3648F88031CBD9351D794A2997116EA445B24ECAE SWAP2 ADD PUSH1 0x40 MLOAD DUP1 SWAP2 SUB SWAP1 LOG3 PUSH1 0x4 DUP2 ADD SLOAD PUSH3 0x10000 SWAP1 DIV PUSH1 0xFF AND DUP1 ISZERO PUSH2 0x1A41 JUMPI POP PUSH1 0x4 DUP2 ADD SLOAD PUSH4 0x1000000 SWAP1 DIV PUSH1 0xFF AND JUMPDEST ISZERO PUSH2 0x1AC1 JUMPI PUSH1 0x4 DUP2 ADD DUP1 SLOAD PUSH2 0xFF00 NOT AND PUSH2 0x200 OR SWAP1 SSTORE PUSH1 0x2 DUP2 ADD SLOAD PUSH1 0x3 DUP3 ADD SLOAD PUSH2 0x1A74 SWAP2 PUSH1 0x1 PUSH1 0x1 PUSH1 0xA0 SHL SUB AND SWAP1 PUSH2 0x2DFB JUMP JUMPDEST PUSH1 0x2 DUP2 ADD SLOAD PUSH1 0x3 DUP3 ADD SLOAD PUSH1 0x40 MLOAD SWAP1 DUP2 MSTORE PUSH1 0x1 PUSH1 0x1 PUSH1 0xA0 SHL SUB SWAP1 SWAP2 AND SWAP1 DUP6 SWAP1 PUSH32 0xC8FA66DFF4B9073528C3F1BF21A8DC9A18FDF09847E88E96188BC953AEF519F0 SWAP1 PUSH1 0x20 ADD JUMPDEST PUSH1 0x40 MLOAD DUP1 SWAP2 SUB SWAP1 LOG3 JUMPDEST POP JUMPDEST PUSH2 0xC8A PUSH1 0x1 PUSH1 0x0 DUP1 MLOAD PUSH1 0x20 PUSH2 0x3761 DUP4 CODECOPY DUP2 MLOAD SWAP2 MSTORE SSTORE JUMP JUMPDEST PUSH1 0x0 DUP2 DUP2 MSTORE PUSH1 0x5 PUSH1 0x20 MSTORE PUSH1 0x40 SWAP1 KECCAK256 SLOAD DUP2 SWAP1 PUSH1 0xFF AND PUSH2 0x1B0A JUMPI PUSH1 0x40 MLOAD PUSH3 0x461BCD PUSH1 0xE5 SHL DUP2 MSTORE PUSH1 0x4 ADD PUSH2 0x559 SWAP1 PUSH2 0x353C JUMP JUMPDEST PUSH2 0x1B12 PUSH2 0x2DDF JUMP JUMPDEST PUSH1 0x0 DUP3 DUP2 MSTORE PUSH1 0x4 PUSH1 0x20 MSTORE PUSH1 0x40 SWAP1 KECCAK256 PUSH1 0x1 DUP2 ADD SLOAD PUSH1 0x1 PUSH1 0x1 PUSH1 0xA0 SHL SUB AND CALLER EQ PUSH2 0x1B75 JUMPI PUSH1 0x40 MLOAD PUSH3 0x461BCD PUSH1 0xE5 SHL DUP2 MSTORE PUSH1 0x20 PUSH1 0x4 DUP3 ADD MSTORE PUSH1 0x16 PUSH1 0x24 DUP3 ADD MSTORE PUSH22 0x13DB9B1E48189D5E595C8818D85B8819195C1BDCDA5D PUSH1 0x52 SHL PUSH1 0x44 DUP3 ADD MSTORE PUSH1 0x64 ADD PUSH2 0x559 JUMP JUMPDEST PUSH1 0x0 PUSH1 0x4 DUP3 DUP2 ADD SLOAD PUSH2 0x100 SWAP1 DIV PUSH1 0xFF AND SWAP1 DUP2 GT ISZERO PUSH2 0x1B95 JUMPI PUSH2 0x1B95 PUSH2 0x30A1 JUMP JUMPDEST EQ PUSH2 0x1BB2 JUMPI PUSH1 0x40 MLOAD PUSH3 0x461BCD PUSH1 0xE5 SHL DUP2 MSTORE PUSH1 0x4 ADD PUSH2 0x559 SWAP1 PUSH2 0x35F5 JUMP JUMPDEST PUSH1 0x3 DUP2 ADD SLOAD PUSH2 0x1BEF SWAP1 PUSH1 0x1 PUSH1 0x1 PUSH1 0xA0 SHL SUB PUSH32 0x0 AND SWAP1 CALLER SWAP1 ADDRESS SWAP1 PUSH2 0x2EE9 JUMP JUMPDEST PUSH1 0x4 DUP2 ADD DUP1 SLOAD PUSH2 0xFF00 NOT AND PUSH2 0x100 OR SWAP1 SSTORE PUSH1 0x3 DUP2 ADD SLOAD PUSH1 0x40 MLOAD SWAP1 DUP2 MSTORE CALLER SWAP1 DUP5 SWAP1 PUSH32 0x87D4C0B5E30D6808BC8A94BA1C4D839B29D664151551A31753387EE9EF48429B SWAP1 PUSH1 0x20 ADD PUSH2 0x17E7 JUMP JUMPDEST PUSH1 0x0 DUP3 DUP2 MSTORE PUSH1 0x5 PUSH1 0x20 MSTORE PUSH1 0x40 SWAP1 KECCAK256 SLOAD DUP3 SWAP1 PUSH1 0xFF AND PUSH2 0x1C69 JUMPI PUSH1 0x40 MLOAD PUSH3 0x461BCD PUSH1 0xE5 SHL DUP2 MSTORE PUSH1 0x4 ADD PUSH2 0x559 SWAP1 PUSH2 0x353C JUMP JUMPDEST PUSH1 0x1 SLOAD PUSH1 0x1 PUSH1 0x1 PUSH1 0xA0 SHL SUB AND CALLER EQ DUP1 PUSH2 0x1C8C JUMPI POP PUSH1 0x0 SLOAD PUSH1 0x1 PUSH1 0x1 PUSH1 0xA0 SHL SUB AND CALLER EQ JUMPDEST PUSH2 0x1CA8 JUMPI PUSH1 0x40 MLOAD PUSH3 0x461BCD PUSH1 0xE5 SHL DUP2 MSTORE PUSH1 0x4 ADD PUSH2 0x559 SWAP1 PUSH2 0x3690 JUMP JUMPDEST PUSH2 0x1CB0 PUSH2 0x2DDF JUMP JUMPDEST PUSH1 0x0 DUP4 DUP2 MSTORE PUSH1 0x4 PUSH1 0x20 MSTORE PUSH1 0x40 SWAP1 KECCAK256 PUSH1 0x2 PUSH1 0x4 DUP3 ADD SLOAD PUSH1 0xFF AND PUSH1 0x2 DUP2 GT ISZERO PUSH2 0x1CD9 JUMPI PUSH2 0x1CD9 PUSH2 0x30A1 JUMP JUMPDEST SUB PUSH2 0x1D1D JUMPI PUSH1 0x40 MLOAD PUSH3 0x461BCD PUSH1 0xE5 SHL DUP2 MSTORE PUSH1 0x20 PUSH1 0x4 DUP3 ADD MSTORE PUSH1 0x14 PUSH1 0x24 DUP3 ADD MSTORE PUSH20 0x557365207265736F6C76654D696C6573746F6E65 PUSH1 0x60 SHL PUSH1 0x44 DUP3 ADD MSTORE PUSH1 0x64 ADD PUSH2 0x559 JUMP JUMPDEST PUSH1 0x3 PUSH1 0x4 DUP3 DUP2 ADD SLOAD PUSH2 0x100 SWAP1 DIV PUSH1 0xFF AND SWAP1 DUP2 GT ISZERO PUSH2 0x1D3D JUMPI PUSH2 0x1D3D PUSH2 0x30A1 JUMP JUMPDEST EQ PUSH2 0x1D5A JUMPI PUSH1 0x40 MLOAD PUSH3 0x461BCD PUSH1 0xE5 SHL DUP2 MSTORE PUSH1 0x4 ADD PUSH2 0x559 SWAP1 PUSH2 0x361A JUMP JUMPDEST PUSH1 0x1 DUP2 ADD SLOAD PUSH1 0x1 PUSH1 0x1 PUSH1 0xA0 SHL SUB DUP5 DUP2 AND SWAP2 AND EQ DUP1 PUSH2 0x1D87 JUMPI POP PUSH1 0x2 DUP2 ADD SLOAD PUSH1 0x1 PUSH1 0x1 PUSH1 0xA0 SHL SUB DUP5 DUP2 AND SWAP2 AND EQ JUMPDEST PUSH2 0x1DC4 JUMPI PUSH1 0x40 MLOAD PUSH3 0x461BCD PUSH1 0xE5 SHL DUP2 MSTORE PUSH1 0x20 PUSH1 0x4 DUP3 ADD MSTORE PUSH1 0xE PUSH1 0x24 DUP3 ADD MSTORE PUSH14 0x24B73B30B634B2103BB4B73732B9 PUSH1 0x91 SHL PUSH1 0x44 DUP3 ADD MSTORE PUSH1 0x64 ADD PUSH2 0x559 JUMP JUMPDEST PUSH1 0x5 DUP2 ADD SLOAD PUSH2 0x1E0A JUMPI PUSH1 0x40 MLOAD PUSH3 0x461BCD PUSH1 0xE5 SHL DUP2 MSTORE PUSH1 0x20 PUSH1 0x4 DUP3 ADD MSTORE PUSH1 0x12 PUSH1 0x24 DUP3 ADD MSTORE PUSH18 0x139BC81C1C9BDBD9881CDD589B5A5D1D1959 PUSH1 0x72 SHL PUSH1 0x44 DUP3 ADD MSTORE PUSH1 0x64 ADD PUSH2 0x559 JUMP JUMPDEST PUSH1 0x4 DUP2 ADD DUP1 SLOAD PUSH2 0xFF00 NOT AND PUSH2 0x400 OR SWAP1 SSTORE PUSH1 0x2 DUP2 ADD SLOAD PUSH1 0x1 PUSH1 0x1 PUSH1 0xA0 SHL SUB SWAP1 DUP2 AND SWAP1 DUP5 AND SUB PUSH2 0x1E55 JUMPI PUSH1 0x2 DUP2 ADD SLOAD PUSH1 0x3 DUP3 ADD SLOAD PUSH2 0x1E50 SWAP2 PUSH1 0x1 PUSH1 0x1 PUSH1 0xA0 SHL SUB AND SWAP1 PUSH2 0x2DFB JUMP JUMPDEST PUSH2 0x1E97 JUMP JUMPDEST PUSH1 0x1 DUP2 ADD SLOAD PUSH1 0x3 DUP3 ADD SLOAD PUSH2 0x1E97 SWAP2 PUSH1 0x1 PUSH1 0x1 PUSH1 0xA0 SHL SUB PUSH32 0x0 DUP2 AND SWAP3 SWAP2 AND SWAP1 PUSH2 0x2F1F JUMP JUMPDEST DUP3 PUSH1 0x1 PUSH1 0x1 PUSH1 0xA0 SHL SUB AND DUP5 PUSH32 0xC4422B16DEDD76960934BEAE872654A813107C23ECECF3D3D23DF59367676DFB DUP4 PUSH1 0x3 ADD SLOAD PUSH1 0x40 MLOAD PUSH2 0x1AB8 SWAP2 DUP2 MSTORE PUSH1 0x20 ADD SWAP1 JUMP JUMPDEST PUSH1 0x0 DUP3 DUP2 MSTORE PUSH1 0x5 PUSH1 0x20 MSTORE PUSH1 0x40 SWAP1 KECCAK256 SLOAD DUP3 SWAP1 PUSH1 0xFF AND PUSH2 0x1F07 JUMPI PUSH1 0x40 MLOAD PUSH3 0x461BCD PUSH1 0xE5 SHL DUP2 MSTORE PUSH1 0x4 ADD PUSH2 0x559 SWAP1 PUSH2 0x353C JUMP JUMPDEST PUSH1 0x0 DUP4 DUP2 MSTORE PUSH1 0x4 PUSH1 0x20 MSTORE PUSH1 0x40 SWAP1 KECCAK256 PUSH1 0x2 DUP2 ADD SLOAD PUSH1 0x1 PUSH1 0x1 PUSH1 0xA0 SHL SUB AND CALLER EQ PUSH2 0x1F5F JUMPI PUSH1 0x40 MLOAD PUSH3 0x461BCD PUSH1 0xE5 SHL DUP2 MSTORE PUSH1 0x20 PUSH1 0x4 DUP3 ADD MSTORE PUSH1 0xB PUSH1 0x24 DUP3 ADD MSTORE PUSH11 0x27B7363C9039B2B63632B9 PUSH1 0xA9 SHL PUSH1 0x44 DUP3 ADD MSTORE PUSH1 0x64 ADD PUSH2 0x559 JUMP JUMPDEST PUSH1 0x1 PUSH1 0x4 DUP3 DUP2 ADD SLOAD PUSH2 0x100 SWAP1 DIV PUSH1 0xFF AND SWAP1 DUP2 GT ISZERO PUSH2 0x1F7F JUMPI PUSH2 0x1F7F PUSH2 0x30A1 JUMP JUMPDEST EQ DUP1 PUSH2 0x1FA8 JUMPI POP PUSH1 0x3 PUSH1 0x4 DUP3 DUP2 ADD SLOAD PUSH2 0x100 SWAP1 DIV PUSH1 0xFF AND SWAP1 DUP2 GT ISZERO PUSH2 0x1FA6 JUMPI PUSH2 0x1FA6 PUSH2 0x30A1 JUMP JUMPDEST EQ JUMPDEST PUSH2 0x1FE5 JUMPI PUSH1 0x40 MLOAD PUSH3 0x461BCD PUSH1 0xE5 SHL DUP2 MSTORE PUSH1 0x20 PUSH1 0x4 DUP3 ADD MSTORE PUSH1 0xE PUSH1 0x24 DUP3 ADD MSTORE PUSH14 0x496E76616C696420737461747573 PUSH1 0x90 SHL PUSH1 0x44 DUP3 ADD MSTORE PUSH1 0x64 ADD PUSH2 0x559 JUMP JUMPDEST PUSH1 0x5 DUP2 ADD SLOAD ISZERO PUSH2 0x2007 JUMPI PUSH1 0x40 MLOAD PUSH3 0x461BCD PUSH1 0xE5 SHL DUP2 MSTORE PUSH1 0x4 ADD PUSH2 0x559 SWAP1 PUSH2 0x3665 JUMP JUMPDEST PUSH1 0x5 DUP2 ADD DUP4 SWAP1 SSTORE PUSH1 0x40 MLOAD DUP4 DUP2 MSTORE DUP5 SWAP1 PUSH32 0x480DA4CCF65F8315CBA8BA88EC1E6CDC983D8CFF56CCC4C99AF625A3C74CE4DA SWAP1 PUSH1 0x20 ADD PUSH2 0x1600 JUMP JUMPDEST PUSH1 0x0 DUP2 DUP2 MSTORE PUSH1 0x5 PUSH1 0x20 MSTORE PUSH1 0x40 SWAP1 KECCAK256 SLOAD DUP2 SWAP1 PUSH1 0xFF AND PUSH2 0x2070 JUMPI PUSH1 0x40 MLOAD PUSH3 0x461BCD PUSH1 0xE5 SHL DUP2 MSTORE PUSH1 0x4 ADD PUSH2 0x559 SWAP1 PUSH2 0x353C JUMP JUMPDEST PUSH1 0x1 SLOAD PUSH1 0x1 PUSH1 0x1 PUSH1 0xA0 SHL SUB AND CALLER EQ DUP1 PUSH2 0x2093 JUMPI POP PUSH1 0x0 SLOAD PUSH1 0x1 PUSH1 0x1 PUSH1 0xA0 SHL SUB AND CALLER EQ JUMPDEST PUSH2 0x20AF JUMPI PUSH1 0x40 MLOAD PUSH3 0x461BCD PUSH1 0xE5 SHL DUP2 MSTORE PUSH1 0x4 ADD PUSH2 0x559 SWAP1 PUSH2 0x3690 JUMP JUMPDEST PUSH2 0x20B7 PUSH2 0x2DDF JUMP JUMPDEST PUSH1 0x0 DUP3 DUP2 MSTORE PUSH1 0x4 PUSH1 0x20 MSTORE PUSH1 0x40 SWAP1 KECCAK256 PUSH1 0x2 PUSH1 0x4 DUP3 ADD SLOAD PUSH1 0xFF AND PUSH1 0x2 DUP2 GT ISZERO PUSH2 0x20E0 JUMPI PUSH2 0x20E0 PUSH2 0x30A1 JUMP JUMPDEST SUB PUSH2 0x2127 JUMPI PUSH1 0x40 MLOAD PUSH3 0x461BCD PUSH1 0xE5 SHL DUP2 MSTORE PUSH1 0x20 PUSH1 0x4 DUP3 ADD MSTORE PUSH1 0x17 PUSH1 0x24 DUP3 ADD MSTORE PUSH23 0x557365206D696C6573746F6E652066756E6374696F6E73 PUSH1 0x48 SHL PUSH1 0x44 DUP3 ADD MSTORE PUSH1 0x64 ADD PUSH2 0x559 JUMP JUMPDEST PUSH1 0x1 PUSH1 0x4 DUP3 DUP2 ADD SLOAD PUSH2 0x100 SWAP1 DIV PUSH1 0xFF AND SWAP1 DUP2 GT ISZERO PUSH2 0x2147 JUMPI PUSH2 0x2147 PUSH2 0x30A1 JUMP JUMPDEST EQ PUSH2 0x2164 JUMPI PUSH1 0x40 MLOAD PUSH3 0x461BCD PUSH1 0xE5 SHL DUP2 MSTORE PUSH1 0x4 ADD PUSH2 0x559 SWAP1 PUSH2 0x3594 JUMP JUMPDEST PUSH1 0x4 DUP2 ADD DUP1 SLOAD PUSH2 0xFF00 NOT AND PUSH2 0x400 OR SWAP1 SSTORE PUSH1 0x1 DUP2 ADD SLOAD PUSH1 0x3 DUP3 ADD SLOAD PUSH2 0x21B7 SWAP2 PUSH1 0x1 PUSH1 0x1 PUSH1 0xA0 SHL SUB PUSH32 0x0 DUP2 AND SWAP3 SWAP2 AND SWAP1 PUSH2 0x2F1F JUMP JUMPDEST PUSH1 0x1 DUP2 ADD SLOAD PUSH1 0x3 DUP3 ADD SLOAD PUSH1 0x40 MLOAD SWAP1 DUP2 MSTORE PUSH1 0x1 PUSH1 0x1 PUSH1 0xA0 SHL SUB SWAP1 SWAP2 AND SWAP1 DUP5 SWAP1 PUSH32 0xDB12D765925E4D45E4FF86ACEA89A20545C27B1371D020CC1E473BC218D7813A SWAP1 PUSH1 0x20 ADD PUSH2 0x17E7 JUMP JUMPDEST PUSH1 0x0 DUP4 DUP2 MSTORE PUSH1 0x5 PUSH1 0x20 MSTORE PUSH1 0x40 SWAP1 KECCAK256 SLOAD DUP4 SWAP1 PUSH1 0xFF AND PUSH2 0x222F JUMPI PUSH1 0x40 MLOAD PUSH3 0x461BCD PUSH1 0xE5 SHL DUP2 MSTORE PUSH1 0x4 ADD PUSH2 0x559 SWAP1 PUSH2 0x353C JUMP JUMPDEST PUSH1 0x0 DUP5 DUP2 MSTORE PUSH1 0x4 PUSH1 0x20 MSTORE PUSH1 0x40 SWAP1 KECCAK256 PUSH1 0x1 DUP2 ADD SLOAD PUSH1 0x1 PUSH1 0x1 PUSH1 0xA0 SHL SUB AND CALLER EQ PUSH2 0x2286 JUMPI PUSH1 0x40 MLOAD PUSH3 0x461BCD PUSH1 0xE5 SHL DUP2 MSTORE PUSH1 0x20 PUSH1 0x4 DUP3 ADD MSTORE PUSH1 0xA PUSH1 0x24 DUP3 ADD MSTORE PUSH10 0x27B7363C90313ABCB2B9 PUSH1 0xB1 SHL PUSH1 0x44 DUP3 ADD MSTORE PUSH1 0x64 ADD PUSH2 0x559 JUMP JUMPDEST PUSH1 0x2 PUSH1 0x4 DUP3 ADD SLOAD PUSH1 0xFF AND PUSH1 0x2 DUP2 GT ISZERO PUSH2 0x22A1 JUMPI PUSH2 0x22A1 PUSH2 0x30A1 JUMP JUMPDEST EQ PUSH2 0x22BE JUMPI PUSH1 0x40 MLOAD PUSH3 0x461BCD PUSH1 0xE5 SHL DUP2 MSTORE PUSH1 0x4 ADD PUSH2 0x559 SWAP1 PUSH2 0x3566 JUMP JUMPDEST PUSH1 0x1 PUSH1 0x4 DUP3 DUP2 ADD SLOAD PUSH2 0x100 SWAP1 DIV PUSH1 0xFF AND SWAP1 DUP2 GT ISZERO PUSH2 0x22DE JUMPI PUSH2 0x22DE PUSH2 0x30A1 JUMP JUMPDEST EQ PUSH2 0x22FB JUMPI PUSH1 0x40 MLOAD PUSH3 0x461BCD PUSH1 0xE5 SHL DUP2 MSTORE PUSH1 0x4 ADD PUSH2 0x559 SWAP1 PUSH2 0x3594 JUMP JUMPDEST PUSH1 0xA DUP2 ADD SLOAD DUP5 LT PUSH2 0x231E JUMPI PUSH1 0x40 MLOAD PUSH3 0x461BCD PUSH1 0xE5 SHL DUP2 MSTORE PUSH1 0x4 ADD PUSH2 0x559 SWAP1 PUSH2 0x35B8 JUMP JUMPDEST PUSH1 0x0 PUSH1 0xFF AND DUP2 PUSH1 0xB ADD DUP6 DUP2 SLOAD DUP2 LT PUSH2 0x2338 JUMPI PUSH2 0x2338 PUSH2 0x35DF JUMP JUMPDEST PUSH1 0x0 SWAP2 DUP3 MSTORE PUSH1 0x20 SWAP2 DUP3 SWAP1 KECCAK256 SWAP2 DUP2 DIV SWAP1 SWAP2 ADD SLOAD PUSH1 0xFF PUSH1 0x1F SWAP1 SWAP3 AND PUSH2 0x100 EXP SWAP1 DIV AND EQ PUSH2 0x2375 JUMPI PUSH1 0x40 MLOAD PUSH3 0x461BCD PUSH1 0xE5 SHL DUP2 MSTORE PUSH1 0x4 ADD PUSH2 0x559 SWAP1 PUSH2 0x35F5 JUMP JUMPDEST DUP3 PUSH2 0x23BE JUMPI PUSH1 0x40 MLOAD PUSH3 0x461BCD PUSH1 0xE5 SHL DUP2 MSTORE PUSH1 0x20 PUSH1 0x4 DUP3 ADD MSTORE PUSH1 0x19 PUSH1 0x24 DUP3 ADD MSTORE PUSH25 0x111A5CDC1D5D1948195D9A59195B98D9481C995C5D5A5C9959 PUSH1 0x3A SHL PUSH1 0x44 DUP3 ADD MSTORE PUSH1 0x64 ADD PUSH2 0x559 JUMP JUMPDEST PUSH1 0x2 DUP2 PUSH1 0xB ADD DUP6 DUP2 SLOAD DUP2 LT PUSH2 0x23D5 JUMPI PUSH2 0x23D5 PUSH2 0x35DF JUMP JUMPDEST SWAP1 PUSH1 0x0 MSTORE PUSH1 0x20 PUSH1 0x0 KECCAK256 SWAP1 PUSH1 0x20 SWAP2 DUP3 DUP3 DIV ADD SWAP2 SWAP1 MOD PUSH2 0x100 EXP DUP2 SLOAD DUP2 PUSH1 0xFF MUL NOT AND SWAP1 DUP4 PUSH1 0xFF AND MUL OR SWAP1 SSTORE POP DUP3 DUP2 PUSH1 0xD ADD DUP6 DUP2 SLOAD DUP2 LT PUSH2 0x2415 JUMPI PUSH2 0x2415 PUSH2 0x35DF JUMP JUMPDEST SWAP1 PUSH1 0x0 MSTORE PUSH1 0x20 PUSH1 0x0 KECCAK256 ADD DUP2 SWAP1 SSTORE POP CALLER DUP2 PUSH1 0xE ADD DUP6 DUP2 SLOAD DUP2 LT PUSH2 0x2439 JUMPI PUSH2 0x2439 PUSH2 0x35DF JUMP JUMPDEST SWAP1 PUSH1 0x0 MSTORE PUSH1 0x20 PUSH1 0x0 KECCAK256 ADD PUSH1 0x0 PUSH2 0x100 EXP DUP2 SLOAD DUP2 PUSH1 0x1 PUSH1 0x1 PUSH1 0xA0 SHL SUB MUL NOT AND SWAP1 DUP4 PUSH1 0x1 PUSH1 0x1 PUSH1 0xA0 SHL SUB AND MUL OR SWAP1 SSTORE POP CALLER PUSH1 0x1 PUSH1 0x1 PUSH1 0xA0 SHL SUB AND DUP6 PUSH32 0x886ECEDE5B68AC338AA63A2A18574C2015FCC0578C7AFF03C79B3720C24C0D17 DUP7 PUSH1 0x40 MLOAD PUSH2 0x24A3 SWAP2 DUP2 MSTORE PUSH1 0x20 ADD SWAP1 JUMP JUMPDEST PUSH1 0x40 MLOAD DUP1 SWAP2 SUB SWAP1 LOG3 POP POP POP POP POP JUMP JUMPDEST PUSH1 0x0 DUP4 DUP2 MSTORE PUSH1 0x5 PUSH1 0x20 MSTORE PUSH1 0x40 SWAP1 KECCAK256 SLOAD DUP4 SWAP1 PUSH1 0xFF AND PUSH2 0x24E2 JUMPI PUSH1 0x40 MLOAD PUSH3 0x461BCD PUSH1 0xE5 SHL DUP2 MSTORE PUSH1 0x4 ADD PUSH2 0x559 SWAP1 PUSH2 0x353C JUMP JUMPDEST PUSH1 0x1 SLOAD PUSH1 0x1 PUSH1 0x1 PUSH1 0xA0 SHL SUB AND CALLER EQ DUP1 PUSH2 0x2505 JUMPI POP PUSH1 0x0 SLOAD PUSH1 0x1 PUSH1 0x1 PUSH1 0xA0 SHL SUB AND CALLER EQ JUMPDEST PUSH2 0x2521 JUMPI PUSH1 0x40 MLOAD PUSH3 0x461BCD PUSH1 0xE5 SHL DUP2 MSTORE PUSH1 0x4 ADD PUSH2 0x559 SWAP1 PUSH2 0x3690 JUMP JUMPDEST PUSH2 0x2529 PUSH2 0x2DDF JUMP JUMPDEST PUSH1 0x0 DUP5 DUP2 MSTORE PUSH1 0x4 PUSH1 0x20 MSTORE PUSH1 0x40 SWAP1 KECCAK256 PUSH1 0x2 PUSH1 0x4 DUP3 ADD SLOAD PUSH1 0xFF AND PUSH1 0x2 DUP2 GT ISZERO PUSH2 0x2552 JUMPI PUSH2 0x2552 PUSH2 0x30A1 JUMP JUMPDEST EQ PUSH2 0x256F JUMPI PUSH1 0x40 MLOAD PUSH3 0x461BCD PUSH1 0xE5 SHL DUP2 MSTORE PUSH1 0x4 ADD PUSH2 0x559 SWAP1 PUSH2 0x3566 JUMP JUMPDEST PUSH1 0xA DUP2 ADD SLOAD DUP5 LT PUSH2 0x2592 JUMPI PUSH1 0x40 MLOAD PUSH3 0x461BCD PUSH1 0xE5 SHL DUP2 MSTORE PUSH1 0x4 ADD PUSH2 0x559 SWAP1 PUSH2 0x35B8 JUMP JUMPDEST PUSH1 0x2 PUSH1 0xFF AND DUP2 PUSH1 0xB ADD DUP6 DUP2 SLOAD DUP2 LT PUSH2 0x25AC JUMPI PUSH2 0x25AC PUSH2 0x35DF JUMP JUMPDEST PUSH1 0x0 SWAP2 DUP3 MSTORE PUSH1 0x20 SWAP2 DUP3 SWAP1 KECCAK256 SWAP2 DUP2 DIV SWAP1 SWAP2 ADD SLOAD PUSH1 0xFF PUSH1 0x1F SWAP1 SWAP3 AND PUSH2 0x100 EXP SWAP1 DIV AND EQ PUSH2 0x25E9 JUMPI PUSH1 0x40 MLOAD PUSH3 0x461BCD PUSH1 0xE5 SHL DUP2 MSTORE PUSH1 0x4 ADD PUSH2 0x559 SWAP1 PUSH2 0x361A JUMP JUMPDEST PUSH1 0x1 DUP2 ADD SLOAD PUSH1 0x1 PUSH1 0x1 PUSH1 0xA0 SHL SUB DUP5 DUP2 AND SWAP2 AND EQ DUP1 PUSH2 0x2616 JUMPI POP PUSH1 0x2 DUP2 ADD SLOAD PUSH1 0x1 PUSH1 0x1 PUSH1 0xA0 SHL SUB DUP5 DUP2 AND SWAP2 AND EQ JUMPDEST PUSH2 0x2653 JUMPI PUSH1 0x40 MLOAD PUSH3 0x461BCD PUSH1 0xE5 SHL DUP2 MSTORE PUSH1 0x20 PUSH1 0x4 DUP3 ADD MSTORE PUSH1 0xE PUSH1 0x24 DUP3 ADD MSTORE PUSH14 0x24B73B30B634B2103BB4B73732B9 PUSH1 0x91 SHL PUSH1 0x44 DUP3 ADD MSTORE PUSH1 0x64 ADD PUSH2 0x559 JUMP JUMPDEST PUSH1 0x3 DUP2 PUSH1 0xB ADD DUP6 DUP2 SLOAD DUP2 LT PUSH2 0x266A JUMPI PUSH2 0x266A PUSH2 0x35DF JUMP JUMPDEST SWAP1 PUSH1 0x0 MSTORE PUSH1 0x20 PUSH1 0x0 KECCAK256 SWAP1 PUSH1 0x20 SWAP2 DUP3 DUP3 DIV ADD SWAP2 SWAP1 MOD PUSH2 0x100 EXP DUP2 SLOAD DUP2 PUSH1 0xFF MUL NOT AND SWAP1 DUP4 PUSH1 0xFF AND MUL OR SWAP1 SSTORE POP PUSH1 0x0 DUP2 PUSH1 0xA ADD DUP6 DUP2 SLOAD DUP2 LT PUSH2 0x26AB JUMPI PUSH2 0x26AB PUSH2 0x35DF JUMP JUMPDEST PUSH1 0x0 SWAP2 DUP3 MSTORE PUSH1 0x20 SWAP1 SWAP2 KECCAK256 ADD SLOAD PUSH1 0x2 DUP4 ADD SLOAD SWAP1 SWAP2 POP PUSH1 0x1 PUSH1 0x1 PUSH1 0xA0 SHL SUB SWAP1 DUP2 AND SWAP1 DUP6 AND SUB PUSH2 0x26EF JUMPI PUSH1 0x2 DUP3 ADD SLOAD PUSH2 0x26EA SWAP1 PUSH1 0x1 PUSH1 0x1 PUSH1 0xA0 SHL SUB AND DUP3 PUSH2 0x2DFB JUMP JUMPDEST PUSH2 0x272B JUMP JUMPDEST PUSH1 0x1 DUP3 ADD SLOAD PUSH2 0x272B SWAP1 PUSH1 0x1 PUSH1 0x1 PUSH1 0xA0 SHL SUB PUSH32 0x0 DUP2 AND SWAP2 AND DUP4 PUSH2 0x2F1F JUMP JUMPDEST PUSH1 0x40 DUP1 MLOAD DUP7 DUP2 MSTORE PUSH1 0x20 DUP2 ADD DUP4 SWAP1 MSTORE PUSH1 0x1 PUSH1 0x1 PUSH1 0xA0 SHL SUB DUP7 AND SWAP2 DUP9 SWAP2 PUSH32 0xC4B646D5119A7B0AFD026FEDE693619F9677892F2A41F606E5DA1FB1A5356E72 SWAP2 ADD PUSH1 0x40 MLOAD DUP1 SWAP2 SUB SWAP1 LOG3 POP POP PUSH2 0x278A PUSH1 0x1 PUSH1 0x0 DUP1 MLOAD PUSH1 0x20 PUSH2 0x3761 DUP4 CODECOPY DUP2 MLOAD SWAP2 MSTORE SSTORE JUMP JUMPDEST POP POP POP POP JUMP JUMPDEST PUSH2 0x282D PUSH1 0x40 DUP1 MLOAD PUSH2 0x260 DUP2 ADD DUP3 MSTORE PUSH1 0x0 DUP1 DUP3 MSTORE PUSH1 0x20 DUP3 ADD DUP2 SWAP1 MSTORE SWAP2 DUP2 ADD DUP3 SWAP1 MSTORE PUSH1 0x60 DUP2 ADD DUP3 SWAP1 MSTORE SWAP1 PUSH1 0x80 DUP3 ADD SWAP1 DUP2 MSTORE PUSH1 0x20 ADD PUSH1 0x0 DUP2 MSTORE PUSH1 0x0 PUSH1 0x20 DUP3 ADD DUP2 SWAP1 MSTORE PUSH1 0x40 DUP3 ADD DUP2 SWAP1 MSTORE PUSH1 0x60 DUP1 DUP4 ADD DUP3 SWAP1 MSTORE PUSH1 0x80 DUP4 ADD DUP3 SWAP1 MSTORE PUSH1 0xA0 DUP4 ADD DUP3 SWAP1 MSTORE PUSH1 0xC0 DUP4 ADD DUP3 SWAP1 MSTORE PUSH1 0xE0 DUP4 ADD SWAP2 SWAP1 SWAP2 MSTORE PUSH2 0x100 DUP3 ADD DUP2 SWAP1 MSTORE PUSH2 0x120 DUP3 ADD DUP2 SWAP1 MSTORE PUSH2 0x140 DUP3 ADD DUP2 SWAP1 MSTORE PUSH2 0x160 DUP3 ADD DUP2 SWAP1 MSTORE PUSH2 0x180 DUP3 ADD DUP2 SWAP1 MSTORE PUSH2 0x1A0 SWAP1 SWAP2 ADD MSTORE SWAP1 JUMP JUMPDEST PUSH1 0x0 DUP3 DUP2 MSTORE PUSH1 0x4 PUSH1 0x20 DUP2 DUP2 MSTORE PUSH1 0x40 SWAP3 DUP4 SWAP1 KECCAK256 DUP4 MLOAD PUSH2 0x260 DUP2 ADD DUP6 MSTORE DUP2 SLOAD DUP2 MSTORE PUSH1 0x1 DUP3 ADD SLOAD PUSH1 0x1 PUSH1 0x1 PUSH1 0xA0 SHL SUB SWAP1 DUP2 AND SWAP4 DUP3 ADD SWAP4 SWAP1 SWAP4 MSTORE PUSH1 0x2 DUP1 DUP4 ADD SLOAD SWAP1 SWAP4 AND SWAP5 DUP2 ADD SWAP5 SWAP1 SWAP5 MSTORE PUSH1 0x3 DUP2 ADD SLOAD PUSH1 0x60 DUP6 ADD MSTORE SWAP2 DUP3 ADD SLOAD PUSH1 0x80 DUP5 ADD SWAP2 PUSH1 0xFF SWAP1 SWAP2 AND SWAP1 DUP2 GT ISZERO PUSH2 0x289B JUMPI PUSH2 0x289B PUSH2 0x30A1 JUMP JUMPDEST PUSH1 0x2 DUP2 GT ISZERO PUSH2 0x28AC JUMPI PUSH2 0x28AC PUSH2 0x30A1 JUMP JUMPDEST DUP2 MSTORE PUSH1 0x20 ADD PUSH1 0x4 DUP3 ADD PUSH1 0x1 SWAP1 SLOAD SWAP1 PUSH2 0x100 EXP SWAP1 DIV PUSH1 0xFF AND PUSH1 0x4 DUP2 GT ISZERO PUSH2 0x28D4 JUMPI PUSH2 0x28D4 PUSH2 0x30A1 JUMP JUMPDEST PUSH1 0x4 DUP2 GT ISZERO PUSH2 0x28E5 JUMPI PUSH2 0x28E5 PUSH2 0x30A1 JUMP JUMPDEST DUP2 MSTORE PUSH1 0x4 DUP3 ADD SLOAD PUSH1 0xFF PUSH3 0x10000 DUP3 DIV DUP2 AND ISZERO ISZERO PUSH1 0x20 DUP1 DUP6 ADD SWAP2 SWAP1 SWAP2 MSTORE PUSH4 0x1000000 SWAP1 SWAP3 DIV AND ISZERO ISZERO PUSH1 0x40 DUP1 DUP5 ADD SWAP2 SWAP1 SWAP2 MSTORE PUSH1 0x5 DUP5 ADD SLOAD PUSH1 0x60 DUP5 ADD MSTORE PUSH1 0x6 DUP5 ADD SLOAD PUSH1 0x80 DUP5 ADD MSTORE PUSH1 0x7 DUP5 ADD SLOAD PUSH1 0xA0 DUP5 ADD MSTORE PUSH1 0x8 DUP5 ADD SLOAD PUSH1 0xC0 DUP5 ADD MSTORE PUSH1 0x9 DUP5 ADD SLOAD PUSH1 0x1 PUSH1 0x1 PUSH1 0xA0 SHL SUB AND PUSH1 0xE0 DUP5 ADD MSTORE PUSH1 0xA DUP5 ADD DUP1 SLOAD DUP3 MLOAD DUP2 DUP6 MUL DUP2 ADD DUP6 ADD SWAP1 SWAP4 MSTORE DUP1 DUP4 MSTORE PUSH2 0x100 SWAP1 SWAP5 ADD SWAP4 SWAP2 SWAP3 SWAP1 SWAP2 SWAP1 DUP4 ADD DUP3 DUP3 DUP1 ISZERO PUSH2 0x29A0 JUMPI PUSH1 0x20 MUL DUP3 ADD SWAP2 SWAP1 PUSH1 0x0 MSTORE PUSH1 0x20 PUSH1 0x0 KECCAK256 SWAP1 JUMPDEST DUP2 SLOAD DUP2 MSTORE PUSH1 0x20 ADD SWAP1 PUSH1 0x1 ADD SWAP1 DUP1 DUP4 GT PUSH2 0x298C JUMPI JUMPDEST POP POP POP POP POP DUP2 MSTORE PUSH1 0x20 ADD PUSH1 0xB DUP3 ADD DUP1 SLOAD DUP1 PUSH1 0x20 MUL PUSH1 0x20 ADD PUSH1 0x40 MLOAD SWAP1 DUP2 ADD PUSH1 0x40 MSTORE DUP1 SWAP3 SWAP2 SWAP1 DUP2 DUP2 MSTORE PUSH1 0x20 ADD DUP3 DUP1 SLOAD DUP1 ISZERO PUSH2 0x2A16 JUMPI PUSH1 0x20 MUL DUP3 ADD SWAP2 SWAP1 PUSH1 0x0 MSTORE PUSH1 0x20 PUSH1 0x0 KECCAK256 SWAP1 PUSH1 0x0 SWAP1 JUMPDEST DUP3 SLOAD PUSH2 0x100 DUP4 SWAP1 EXP SWAP1 DIV PUSH1 0xFF AND DUP2 MSTORE PUSH1 0x20 PUSH1 0x1 SWAP3 DUP4 ADD DUP2 DUP2 DIV SWAP5 DUP6 ADD SWAP5 SWAP1 SWAP4 SUB SWAP1 SWAP3 MUL SWAP2 ADD DUP1 DUP5 GT PUSH2 0x29E7 JUMPI SWAP1 POP JUMPDEST POP POP POP POP POP DUP2 MSTORE PUSH1 0x20 ADD PUSH1 0xC DUP3 ADD DUP1 SLOAD DUP1 PUSH1 0x20 MUL PUSH1 0x20 ADD PUSH1 0x40 MLOAD SWAP1 DUP2 ADD PUSH1 0x40 MSTORE DUP1 SWAP3 SWAP2 SWAP1 DUP2 DUP2 MSTORE PUSH1 0x20 ADD DUP3 DUP1 SLOAD DUP1 ISZERO PUSH2 0x2A6E JUMPI PUSH1 0x20 MUL DUP3 ADD SWAP2 SWAP1 PUSH1 0x0 MSTORE PUSH1 0x20 PUSH1 0x0 KECCAK256 SWAP1 JUMPDEST DUP2 SLOAD DUP2 MSTORE PUSH1 0x20 ADD SWAP1 PUSH1 0x1 ADD SWAP1 DUP1 DUP4 GT PUSH2 0x2A5A JUMPI JUMPDEST POP POP POP POP POP DUP2 MSTORE PUSH1 0x20 ADD PUSH1 0xD DUP3 ADD DUP1 SLOAD DUP1 PUSH1 0x20 MUL PUSH1 0x20 ADD PUSH1 0x40 MLOAD SWAP1 DUP2 ADD PUSH1 0x40 MSTORE DUP1 SWAP3 SWAP2 SWAP1 DUP2 DUP2 MSTORE PUSH1 0x20 ADD DUP3 DUP1 SLOAD DUP1 ISZERO PUSH2 0x2AC6 JUMPI PUSH1 0x20 MUL DUP3 ADD SWAP2 SWAP1 PUSH1 0x0 MSTORE PUSH1 0x20 PUSH1 0x0 KECCAK256 SWAP1 JUMPDEST DUP2 SLOAD DUP2 MSTORE PUSH1 0x20 ADD SWAP1 PUSH1 0x1 ADD SWAP1 DUP1 DUP4 GT PUSH2 0x2AB2 JUMPI JUMPDEST POP POP POP POP POP DUP2 MSTORE PUSH1 0x20 ADD PUSH1 0xE DUP3 ADD DUP1 SLOAD DUP1 PUSH1 0x20 MUL PUSH1 0x20 ADD PUSH1 0x40 MLOAD SWAP1 DUP2 ADD PUSH1 0x40 MSTORE DUP1 SWAP3 SWAP2 SWAP1 DUP2 DUP2 MSTORE PUSH1 0x20 ADD DUP3 DUP1 SLOAD DUP1 ISZERO PUSH2 0x2B28 JUMPI PUSH1 0x20 MUL DUP3 ADD SWAP2 SWAP1 PUSH1 0x0 MSTORE PUSH1 0x20 PUSH1 0x0 KECCAK256 SWAP1 JUMPDEST DUP2 SLOAD PUSH1 0x1 PUSH1 0x1 PUSH1 0xA0 SHL SUB AND DUP2 MSTORE PUSH1 0x1 SWAP1 SWAP2 ADD SWAP1 PUSH1 0x20 ADD DUP1 DUP4 GT PUSH2 0x2B0A JUMPI JUMPDEST POP POP POP POP POP DUP2 MSTORE PUSH1 0x20 ADD PUSH1 0xF DUP3 ADD DUP1 SLOAD DUP1 PUSH1 0x20 MUL PUSH1 0x20 ADD PUSH1 0x40 MLOAD SWAP1 DUP2 ADD PUSH1 0x40 MSTORE DUP1 SWAP3 SWAP2 SWAP1 DUP2 DUP2 MSTORE PUSH1 0x20 ADD DUP3 DUP1 SLOAD DUP1 ISZERO PUSH2 0x2B80 JUMPI PUSH1 0x20 MUL DUP3 ADD SWAP2 SWAP1 PUSH1 0x0 MSTORE PUSH1 0x20 PUSH1 0x0 KECCAK256 SWAP1 JUMPDEST DUP2 SLOAD DUP2 MSTORE PUSH1 0x20 ADD SWAP1 PUSH1 0x1 ADD SWAP1 DUP1 DUP4 GT PUSH2 0x2B6C JUMPI JUMPDEST POP POP POP POP POP DUP2 MSTORE POP POP SWAP1 POP SWAP2 SWAP1 POP JUMP JUMPDEST PUSH2 0x2B98 PUSH2 0x2DB2 JUMP JUMPDEST PUSH1 0x1 PUSH1 0x1 PUSH1 0xA0 SHL SUB DUP2 AND PUSH2 0x2BC2 JUMPI PUSH1 0x40 MLOAD PUSH4 0x1E4FBDF7 PUSH1 0xE0 SHL DUP2 MSTORE PUSH1 0x0 PUSH1 0x4 DUP3 ADD MSTORE PUSH1 0x24 ADD PUSH2 0x559 JUMP JUMPDEST PUSH2 0x2BCB DUP2 PUSH2 0x2E99 JUMP JUMPDEST POP JUMP JUMPDEST PUSH2 0x2BD6 PUSH2 0x2DB2 JUMP JUMPDEST PUSH1 0x1 SLOAD PUSH1 0x40 MLOAD PUSH1 0x1 PUSH1 0x1 PUSH1 0xA0 SHL SUB DUP1 DUP5 AND SWAP3 AND SWAP1 PUSH32 0x3B4611E1353CFAD112FA73D67FE9A859EA2B675E92B631B109E1FD1857C43D30 SWAP1 PUSH1 0x0 SWAP1 LOG3 PUSH1 0x1 DUP1 SLOAD PUSH1 0x1 PUSH1 0x1 PUSH1 0xA0 SHL SUB NOT AND PUSH1 0x1 PUSH1 0x1 PUSH1 0xA0 SHL SUB SWAP3 SWAP1 SWAP3 AND SWAP2 SWAP1 SWAP2 OR SWAP1 SSTORE JUMP JUMPDEST PUSH1 0x0 DUP3 DUP2 MSTORE PUSH1 0x5 PUSH1 0x20 MSTORE PUSH1 0x40 SWAP1 KECCAK256 SLOAD DUP3 SWAP1 PUSH1 0xFF AND PUSH2 0x2C62 JUMPI PUSH1 0x40 MLOAD PUSH3 0x461BCD PUSH1 0xE5 SHL DUP2 MSTORE PUSH1 0x4 ADD PUSH2 0x559 SWAP1 PUSH2 0x353C JUMP JUMPDEST PUSH1 0x0 DUP4 DUP2 MSTORE PUSH1 0x4 PUSH1 0x20 MSTORE PUSH1 0x40 SWAP1 KECCAK256 PUSH1 0x3 PUSH1 0x4 DUP3 DUP2 ADD SLOAD PUSH2 0x100 SWAP1 DIV PUSH1 0xFF AND SWAP1 DUP2 GT ISZERO PUSH2 0x2C90 JUMPI PUSH2 0x2C90 PUSH2 0x30A1 JUMP JUMPDEST EQ PUSH2 0x2CAD JUMPI PUSH1 0x40 MLOAD PUSH3 0x461BCD PUSH1 0xE5 SHL DUP2 MSTORE PUSH1 0x4 ADD PUSH2 0x559 SWAP1 PUSH2 0x361A JUMP JUMPDEST PUSH1 0x9 DUP2 ADD SLOAD PUSH1 0x1 PUSH1 0x1 PUSH1 0xA0 SHL SUB AND CALLER SUB PUSH2 0x2D09 JUMPI PUSH1 0x40 MLOAD PUSH3 0x461BCD PUSH1 0xE5 SHL DUP2 MSTORE PUSH1 0x20 PUSH1 0x4 DUP3 ADD MSTORE PUSH1 0x1B PUSH1 0x24 DUP3 ADD MSTORE PUSH32 0x43616E6E6F74206265206469737075746520696E69746961746F720000000000 PUSH1 0x44 DUP3 ADD MSTORE PUSH1 0x64 ADD PUSH2 0x559 JUMP JUMPDEST PUSH1 0x1 DUP2 ADD SLOAD PUSH1 0x1 PUSH1 0x1 PUSH1 0xA0 SHL SUB AND CALLER EQ DUP1 PUSH2 0x2D30 JUMPI POP PUSH1 0x2 DUP2 ADD SLOAD PUSH1 0x1 PUSH1 0x1 PUSH1 0xA0 SHL SUB AND CALLER EQ JUMPDEST PUSH2 0x2D4C JUMPI PUSH1 0x40 MLOAD PUSH3 0x461BCD PUSH1 0xE5 SHL DUP2 MSTORE PUSH1 0x4 ADD PUSH2 0x559 SWAP1 PUSH2 0x3640 JUMP JUMPDEST PUSH1 0x8 DUP2 ADD SLOAD ISZERO PUSH2 0x2D6E JUMPI PUSH1 0x40 MLOAD PUSH3 0x461BCD PUSH1 0xE5 SHL DUP2 MSTORE PUSH1 0x4 ADD PUSH2 0x559 SWAP1 PUSH2 0x3665 JUMP JUMPDEST PUSH1 0x8 DUP2 ADD DUP4 SWAP1 SSTORE PUSH1 0x40 MLOAD DUP4 DUP2 MSTORE CALLER SWAP1 DUP6 SWAP1 PUSH32 0xAC667660ABF65035C151F9F8484BECC5F3273E3A3DAEA0434093AC4CE700FD3A SWAP1 PUSH1 0x20 ADD PUSH1 0x40 MLOAD DUP1 SWAP2 SUB SWAP1 LOG3 POP POP POP POP JUMP JUMPDEST PUSH1 0x0 SLOAD PUSH1 0x1 PUSH1 0x1 PUSH1 0xA0 SHL SUB AND CALLER EQ PUSH2 0xCA1 JUMPI PUSH1 0x40 MLOAD PUSH4 0x118CDAA7 PUSH1 0xE0 SHL DUP2 MSTORE CALLER PUSH1 0x4 DUP3 ADD MSTORE PUSH1 0x24 ADD PUSH2 0x559 JUMP JUMPDEST PUSH2 0x2DE7 PUSH2 0x2F54 JUMP JUMPDEST PUSH1 0x2 PUSH1 0x0 DUP1 MLOAD PUSH1 0x20 PUSH2 0x3761 DUP4 CODECOPY DUP2 MLOAD SWAP2 MSTORE SSTORE JUMP JUMPDEST PUSH1 0x0 PUSH2 0x2710 PUSH1 0x2 SLOAD DUP4 PUSH2 0x2E0E SWAP2 SWAP1 PUSH2 0x3714 JUMP JUMPDEST PUSH2 0x2E18 SWAP2 SWAP1 PUSH2 0x372B JUMP JUMPDEST SWAP1 POP PUSH2 0x2E59 DUP4 PUSH2 0x2E28 DUP4 DUP6 PUSH2 0x374D JUMP JUMPDEST PUSH1 0x1 PUSH1 0x1 PUSH1 0xA0 SHL SUB PUSH32 0x0 AND SWAP2 SWAP1 PUSH2 0x2F1F JUMP JUMPDEST DUP1 ISZERO PUSH2 0xC8A JUMPI PUSH1 0x3 SLOAD PUSH2 0xC8A SWAP1 PUSH1 0x1 PUSH1 0x1 PUSH1 0xA0 SHL SUB PUSH32 0x0 DUP2 AND SWAP2 AND DUP4 PUSH2 0x2F1F JUMP JUMPDEST PUSH1 0x0 DUP1 SLOAD PUSH1 0x1 PUSH1 0x1 PUSH1 0xA0 SHL SUB DUP4 DUP2 AND PUSH1 0x1 PUSH1 0x1 PUSH1 0xA0 SHL SUB NOT DUP4 AND DUP2 OR DUP5 SSTORE PUSH1 0x40 MLOAD SWAP2 SWAP1 SWAP3 AND SWAP3 DUP4 SWAP2 PUSH32 0x8BE0079C531659141344CD1FD0A4F28419497F9722A3DAAFE3B4186F6B6457E0 SWAP2 SWAP1 LOG3 POP POP JUMP JUMPDEST PUSH2 0x2EF7 DUP5 DUP5 DUP5 DUP5 PUSH1 0x1 PUSH2 0x2F84 JUMP JUMPDEST PUSH2 0x278A JUMPI PUSH1 0x40 MLOAD PUSH4 0x5274AFE7 PUSH1 0xE0 SHL DUP2 MSTORE PUSH1 0x1 PUSH1 0x1 PUSH1 0xA0 SHL SUB DUP6 AND PUSH1 0x4 DUP3 ADD MSTORE PUSH1 0x24 ADD PUSH2 0x559 JUMP JUMPDEST PUSH2 0x2F2C DUP4 DUP4 DUP4 PUSH1 0x1 PUSH2 0x2FF6 JUMP JUMPDEST PUSH2 0xC8A JUMPI PUSH1 0x40 MLOAD PUSH4 0x5274AFE7 PUSH1 0xE0 SHL DUP2 MSTORE PUSH1 0x1 PUSH1 0x1 PUSH1 0xA0 SHL SUB DUP5 AND PUSH1 0x4 DUP3 ADD MSTORE PUSH1 0x24 ADD PUSH2 0x559 JUMP JUMPDEST PUSH1 0x0 DUP1 MLOAD PUSH1 0x20 PUSH2 0x3761 DUP4 CODECOPY DUP2 MLOAD SWAP2 MSTORE SLOAD PUSH1 0x2 SUB PUSH2 0xCA1 JUMPI PUSH1 0x40 MLOAD PUSH4 0x3EE5AEB5 PUSH1 0xE0 SHL DUP2 MSTORE PUSH1 0x4 ADD PUSH1 0x40 MLOAD DUP1 SWAP2 SUB SWAP1 REVERT JUMPDEST PUSH1 0x40 MLOAD PUSH4 0x23B872DD PUSH1 0xE0 SHL PUSH1 0x0 DUP2 DUP2 MSTORE PUSH1 0x1 PUSH1 0x1 PUSH1 0xA0 SHL SUB DUP8 DUP2 AND PUSH1 0x4 MSTORE DUP7 AND PUSH1 0x24 MSTORE PUSH1 0x44 DUP6 SWAP1 MSTORE SWAP2 PUSH1 0x20 DUP4 PUSH1 0x64 DUP2 DUP1 DUP13 GAS CALL SWAP3 POP PUSH1 0x1 PUSH1 0x0 MLOAD EQ DUP4 AND PUSH2 0x2FE4 JUMPI DUP4 DUP4 ISZERO AND ISZERO PUSH2 0x2FD7 JUMPI RETURNDATASIZE PUSH1 0x0 DUP3 RETURNDATACOPY RETURNDATASIZE DUP2 REVERT JUMPDEST PUSH1 0x0 DUP9 EXTCODESIZE GT RETURNDATASIZE ISZERO AND DUP4 AND SWAP3 POP JUMPDEST PUSH1 0x40 MSTORE POP PUSH1 0x0 PUSH1 0x60 MSTORE SWAP6 SWAP5 POP POP POP POP POP JUMP JUMPDEST PUSH1 0x40 MLOAD PUSH4 0xA9059CBB PUSH1 0xE0 SHL PUSH1 0x0 DUP2 DUP2 MSTORE PUSH1 0x1 PUSH1 0x1 PUSH1 0xA0 SHL SUB DUP7 AND PUSH1 0x4 MSTORE PUSH1 0x24 DUP6 SWAP1 MSTORE SWAP2 PUSH1 0x20 DUP4 PUSH1 0x44 DUP2 DUP1 DUP12 GAS CALL SWAP3 POP PUSH1 0x1 PUSH1 0x0 MLOAD EQ DUP4 AND PUSH2 0x3050 JUMPI DUP4 DUP4 ISZERO AND ISZERO PUSH2 0x3043 JUMPI RETURNDATASIZE PUSH1 0x0 DUP3 RETURNDATACOPY RETURNDATASIZE DUP2 REVERT JUMPDEST PUSH1 0x0 DUP8 EXTCODESIZE GT RETURNDATASIZE ISZERO AND DUP4 AND SWAP3 POP JUMPDEST PUSH1 0x40 MSTORE POP SWAP5 SWAP4 POP POP POP POP JUMP JUMPDEST PUSH1 0x0 DUP1 PUSH1 0x0 PUSH1 0x60 DUP5 DUP7 SUB SLT ISZERO PUSH2 0x3071 JUMPI PUSH1 0x0 DUP1 REVERT JUMPDEST POP POP DUP2 CALLDATALOAD SWAP4 PUSH1 0x20 DUP4 ADD CALLDATALOAD SWAP4 POP PUSH1 0x40 SWAP1 SWAP3 ADD CALLDATALOAD SWAP2 SWAP1 POP JUMP JUMPDEST PUSH1 0x0 PUSH1 0x20 DUP3 DUP5 SUB SLT ISZERO PUSH2 0x309A JUMPI PUSH1 0x0 DUP1 REVERT JUMPDEST POP CALLDATALOAD SWAP2 SWAP1 POP JUMP JUMPDEST PUSH4 0x4E487B71 PUSH1 0xE0 SHL PUSH1 0x0 MSTORE PUSH1 0x21 PUSH1 0x4 MSTORE PUSH1 0x24 PUSH1 0x0 REVERT JUMPDEST PUSH1 0x3 DUP2 LT PUSH2 0x30C7 JUMPI PUSH2 0x30C7 PUSH2 0x30A1 JUMP JUMPDEST SWAP1 MSTORE JUMP JUMPDEST PUSH1 0x5 DUP2 LT PUSH2 0x30C7 JUMPI PUSH2 0x30C7 PUSH2 0x30A1 JUMP JUMPDEST DUP14 DUP2 MSTORE PUSH1 0x1 PUSH1 0x1 PUSH1 0xA0 SHL SUB DUP14 DUP2 AND PUSH1 0x20 DUP4 ADD MSTORE DUP13 AND PUSH1 0x40 DUP3 ADD MSTORE PUSH1 0x60 DUP2 ADD DUP12 SWAP1 MSTORE PUSH2 0x1A0 DUP2 ADD PUSH2 0x310E PUSH1 0x80 DUP4 ADD DUP13 PUSH2 0x30B7 JUMP JUMPDEST PUSH2 0x311B PUSH1 0xA0 DUP4 ADD DUP12 PUSH2 0x30CB JUMP JUMPDEST DUP9 ISZERO ISZERO PUSH1 0xC0 DUP4 ADD MSTORE DUP8 ISZERO ISZERO PUSH1 0xE0 DUP4 ADD MSTORE DUP7 PUSH2 0x100 DUP4 ADD MSTORE DUP6 PUSH2 0x120 DUP4 ADD MSTORE DUP5 PUSH2 0x140 DUP4 ADD MSTORE DUP4 PUSH2 0x160 DUP4 ADD MSTORE PUSH2 0x315D PUSH2 0x180 DUP4 ADD DUP5 PUSH1 0x1 PUSH1 0x1 PUSH1 0xA0 SHL SUB AND SWAP1 MSTORE JUMP JUMPDEST SWAP15 SWAP14 POP POP POP POP POP POP POP POP POP POP POP POP POP POP JUMP JUMPDEST PUSH1 0x0 DUP1 PUSH1 0x40 DUP4 DUP6 SUB SLT ISZERO PUSH2 0x3182 JUMPI PUSH1 0x0 DUP1 REVERT JUMPDEST POP POP DUP1 CALLDATALOAD SWAP3 PUSH1 0x20 SWAP1 SWAP2 ADD CALLDATALOAD SWAP2 POP JUMP JUMPDEST DUP1 CALLDATALOAD PUSH1 0x1 PUSH1 0x1 PUSH1 0xA0 SHL SUB DUP2 AND DUP2 EQ PUSH2 0x31A8 JUMPI PUSH1 0x0 DUP1 REVERT JUMPDEST SWAP2 SWAP1 POP JUMP JUMPDEST PUSH1 0x0 DUP1 PUSH1 0x0 DUP1 PUSH1 0x0 DUP1 PUSH1 0x0 PUSH1 0xC0 DUP9 DUP11 SUB SLT ISZERO PUSH2 0x31C8 JUMPI PUSH1 0x0 DUP1 REVERT JUMPDEST DUP8 CALLDATALOAD SWAP7 POP PUSH2 0x31D8 PUSH1 0x20 DUP10 ADD PUSH2 0x3191 JUMP JUMPDEST SWAP6 POP PUSH2 0x31E6 PUSH1 0x40 DUP10 ADD PUSH2 0x3191 JUMP JUMPDEST SWAP5 POP PUSH1 0x60 DUP9 ADD CALLDATALOAD SWAP4 POP PUSH1 0x80 DUP9 ADD CALLDATALOAD PUSH1 0x3 DUP2 LT PUSH2 0x3201 JUMPI PUSH1 0x0 DUP1 REVERT JUMPDEST SWAP3 POP PUSH1 0xA0 DUP9 ADD CALLDATALOAD PUSH8 0xFFFFFFFFFFFFFFFF DUP1 DUP3 GT ISZERO PUSH2 0x321E JUMPI PUSH1 0x0 DUP1 REVERT JUMPDEST DUP2 DUP11 ADD SWAP2 POP DUP11 PUSH1 0x1F DUP4 ADD SLT PUSH2 0x3232 JUMPI PUSH1 0x0 DUP1 REVERT JUMPDEST DUP2 CALLDATALOAD DUP2 DUP2 GT ISZERO PUSH2 0x3241 JUMPI PUSH1 0x0 DUP1 REVERT JUMPDEST DUP12 PUSH1 0x20 DUP3 PUSH1 0x5 SHL DUP6 ADD ADD GT ISZERO PUSH2 0x3256 JUMPI PUSH1 0x0 DUP1 REVERT JUMPDEST PUSH1 0x20 DUP4 ADD SWAP5 POP DUP1 SWAP4 POP POP POP POP SWAP3 SWAP6 SWAP9 SWAP2 SWAP5 SWAP8 POP SWAP3 SWAP6 POP JUMP JUMPDEST PUSH1 0x0 PUSH1 0x20 DUP3 DUP5 SUB SLT ISZERO PUSH2 0x3280 JUMPI PUSH1 0x0 DUP1 REVERT JUMPDEST PUSH2 0x3289 DUP3 PUSH2 0x3191 JUMP JUMPDEST SWAP4 SWAP3 POP POP POP JUMP JUMPDEST PUSH1 0x0 DUP1 PUSH1 0x40 DUP4 DUP6 SUB SLT ISZERO PUSH2 0x32A3 JUMPI PUSH1 0x0 DUP1 REVERT JUMPDEST DUP3 CALLDATALOAD SWAP2 POP PUSH2 0x32B3 PUSH1 0x20 DUP5 ADD PUSH2 0x3191 JUMP JUMPDEST SWAP1 POP SWAP3 POP SWAP3 SWAP1 POP JUMP JUMPDEST PUSH1 0x0 DUP1 PUSH1 0x0 PUSH1 0x60 DUP5 DUP7 SUB SLT ISZERO PUSH2 0x32D1 JUMPI PUSH1 0x0 DUP1 REVERT JUMPDEST DUP4 CALLDATALOAD SWAP3 POP PUSH1 0x20 DUP5 ADD CALLDATALOAD SWAP2 POP PUSH2 0x32E8 PUSH1 0x40 DUP6 ADD PUSH2 0x3191 JUMP JUMPDEST SWAP1 POP SWAP3 POP SWAP3 POP SWAP3 JUMP JUMPDEST PUSH1 0x0 DUP2 MLOAD DUP1 DUP5 MSTORE PUSH1 0x20 DUP1 DUP6 ADD SWAP5 POP DUP1 DUP5 ADD PUSH1 0x0 JUMPDEST DUP4 DUP2 LT ISZERO PUSH2 0x3321 JUMPI DUP2 MLOAD DUP8 MSTORE SWAP6 DUP3 ADD SWAP6 SWAP1 DUP3 ADD SWAP1 PUSH1 0x1 ADD PUSH2 0x3305 JUMP JUMPDEST POP SWAP5 SWAP6 SWAP5 POP POP POP POP POP JUMP JUMPDEST PUSH1 0x0 DUP2 MLOAD DUP1 DUP5 MSTORE PUSH1 0x20 DUP1 DUP6 ADD SWAP5 POP DUP1 DUP5 ADD PUSH1 0x0 JUMPDEST DUP4 DUP2 LT ISZERO PUSH2 0x3321 JUMPI DUP2 MLOAD PUSH1 0xFF AND DUP8 MSTORE SWAP6 DUP3 ADD SWAP6 SWAP1 DUP3 ADD SWAP1 PUSH1 0x1 ADD PUSH2 0x3340 JUMP JUMPDEST PUSH1 0x0 DUP2 MLOAD DUP1 DUP5 MSTORE PUSH1 0x20 DUP1 DUP6 ADD SWAP5 POP DUP1 DUP5 ADD PUSH1 0x0 JUMPDEST DUP4 DUP2 LT ISZERO PUSH2 0x3321 JUMPI DUP2 MLOAD PUSH1 0x1 PUSH1 0x1 PUSH1 0xA0 SHL SUB AND DUP8 MSTORE SWAP6 DUP3 ADD SWAP6 SWAP1 DUP3 ADD SWAP1 PUSH1 0x1 ADD PUSH2 0x3373 JUMP JUMPDEST PUSH1 0x20 DUP2 MSTORE DUP2 MLOAD PUSH1 0x20 DUP3 ADD MSTORE PUSH1 0x0 PUSH1 0x20 DUP4 ADD MLOAD PUSH2 0x33BF PUSH1 0x40 DUP5 ADD DUP3 PUSH1 0x1 PUSH1 0x1 PUSH1 0xA0 SHL SUB AND SWAP1 MSTORE JUMP JUMPDEST POP PUSH1 0x40 DUP4 ADD MLOAD PUSH1 0x1 PUSH1 0x1 PUSH1 0xA0 SHL SUB DUP2 AND PUSH1 0x60 DUP5 ADD MSTORE POP PUSH1 0x60 DUP4 ADD MLOAD PUSH1 0x80 DUP4 ADD MSTORE PUSH1 0x80 DUP4 ADD MLOAD PUSH2 0x33F1 PUSH1 0xA0 DUP5 ADD DUP3 PUSH2 0x30B7 JUMP JUMPDEST POP PUSH1 0xA0 DUP4 ADD MLOAD PUSH2 0x3404 PUSH1 0xC0 DUP5 ADD DUP3 PUSH2 0x30CB JUMP JUMPDEST POP PUSH1 0xC0 DUP4 ADD MLOAD DUP1 ISZERO ISZERO PUSH1 0xE0 DUP5 ADD MSTORE POP PUSH1 0xE0 DUP4 ADD MLOAD PUSH2 0x100 PUSH2 0x3428 DUP2 DUP6 ADD DUP4 ISZERO ISZERO SWAP1 MSTORE JUMP JUMPDEST DUP5 ADD MLOAD PUSH2 0x120 DUP5 DUP2 ADD SWAP2 SWAP1 SWAP2 MSTORE DUP5 ADD MLOAD PUSH2 0x140 DUP1 DUP6 ADD SWAP2 SWAP1 SWAP2 MSTORE DUP5 ADD MLOAD PUSH2 0x160 DUP1 DUP6 ADD SWAP2 SWAP1 SWAP2 MSTORE DUP5 ADD MLOAD PUSH2 0x180 DUP1 DUP6 ADD SWAP2 SWAP1 SWAP2 MSTORE DUP5 ADD MLOAD SWAP1 POP PUSH2 0x1A0 PUSH2 0x3478 DUP2 DUP6 ADD DUP4 PUSH1 0x1 PUSH1 0x1 PUSH1 0xA0 SHL SUB AND SWAP1 MSTORE JUMP JUMPDEST DUP1 DUP6 ADD MLOAD SWAP2 POP POP PUSH2 0x260 PUSH2 0x1C0 DUP2 DUP2 DUP7 ADD MSTORE PUSH2 0x3498 PUSH2 0x280 DUP7 ADD DUP5 PUSH2 0x32F1 JUMP JUMPDEST SWAP3 POP DUP1 DUP7 ADD MLOAD SWAP1 POP PUSH1 0x1F NOT PUSH2 0x1E0 DUP2 DUP8 DUP7 SUB ADD DUP2 DUP9 ADD MSTORE PUSH2 0x34B9 DUP6 DUP5 PUSH2 0x332C JUMP JUMPDEST SWAP5 POP DUP1 DUP9 ADD MLOAD SWAP3 POP POP PUSH2 0x200 DUP2 DUP8 DUP7 SUB ADD DUP2 DUP9 ADD MSTORE PUSH2 0x34D8 DUP6 DUP5 PUSH2 0x32F1 JUMP JUMPDEST SWAP5 POP DUP1 DUP9 ADD MLOAD SWAP3 POP POP PUSH2 0x220 DUP2 DUP8 DUP7 SUB ADD DUP2 DUP9 ADD MSTORE PUSH2 0x34F7 DUP6 DUP5 PUSH2 0x32F1 JUMP JUMPDEST SWAP5 POP DUP1 DUP9 ADD MLOAD SWAP3 POP POP PUSH2 0x240 DUP2 DUP8 DUP7 SUB ADD DUP2 DUP9 ADD MSTORE PUSH2 0x3516 DUP6 DUP5 PUSH2 0x335F JUMP JUMPDEST SWAP1 DUP9 ADD MLOAD DUP8 DUP3 SUB SWAP1 SWAP3 ADD DUP5 DUP9 ADD MSTORE SWAP4 POP SWAP1 POP PUSH2 0x3532 DUP4 DUP3 PUSH2 0x32F1 JUMP JUMPDEST SWAP7 SWAP6 POP POP POP POP POP POP JUMP JUMPDEST PUSH1 0x20 DUP1 DUP3 MSTORE PUSH1 0x10 SWAP1 DUP3 ADD MSTORE PUSH16 0x115CD8DC9BDDC81B9BDD08199BDD5B99 PUSH1 0x82 SHL PUSH1 0x40 DUP3 ADD MSTORE PUSH1 0x60 ADD SWAP1 JUMP JUMPDEST PUSH1 0x20 DUP1 DUP3 MSTORE PUSH1 0x14 SWAP1 DUP3 ADD MSTORE PUSH20 0x4E6F74206D696C6573746F6E6520657363726F77 PUSH1 0x60 SHL PUSH1 0x40 DUP3 ADD MSTORE PUSH1 0x60 ADD SWAP1 JUMP JUMPDEST PUSH1 0x20 DUP1 DUP3 MSTORE PUSH1 0xA SWAP1 DUP3 ADD MSTORE PUSH10 0x4E6F7420616374697665 PUSH1 0xB0 SHL PUSH1 0x40 DUP3 ADD MSTORE PUSH1 0x60 ADD SWAP1 JUMP JUMPDEST PUSH1 0x20 DUP1 DUP3 MSTORE PUSH1 0xD SWAP1 DUP3 ADD MSTORE PUSH13 0x92DCECC2D8D2C840D2DCC8CAF PUSH1 0x9B SHL PUSH1 0x40 DUP3 ADD MSTORE PUSH1 0x60 ADD SWAP1 JUMP JUMPDEST PUSH4 0x4E487B71 PUSH1 0xE0 SHL PUSH1 0x0 MSTORE PUSH1 0x32 PUSH1 0x4 MSTORE PUSH1 0x24 PUSH1 0x0 REVERT JUMPDEST PUSH1 0x20 DUP1 DUP3 MSTORE PUSH1 0xB SWAP1 DUP3 ADD MSTORE PUSH11 0x4E6F742070656E64696E67 PUSH1 0xA8 SHL PUSH1 0x40 DUP3 ADD MSTORE PUSH1 0x60 ADD SWAP1 JUMP JUMPDEST PUSH1 0x20 DUP1 DUP3 MSTORE PUSH1 0xC SWAP1 DUP3 ADD MSTORE PUSH12 0x139BDD08191A5CDC1D5D1959 PUSH1 0xA2 SHL PUSH1 0x40 DUP3 ADD MSTORE PUSH1 0x60 ADD SWAP1 JUMP JUMPDEST PUSH1 0x20 DUP1 DUP3 MSTORE PUSH1 0xB SWAP1 DUP3 ADD MSTORE PUSH11 0x4E6F742061207061727479 PUSH1 0xA8 SHL PUSH1 0x40 DUP3 ADD MSTORE PUSH1 0x60 ADD SWAP1 JUMP JUMPDEST PUSH1 0x20 DUP1 DUP3 MSTORE PUSH1 0x11 SWAP1 DUP3 ADD MSTORE PUSH17 0x105B1C9958591E481CDD589B5A5D1D1959 PUSH1 0x7A SHL PUSH1 0x40 DUP3 ADD MSTORE PUSH1 0x60 ADD SWAP1 JUMP JUMPDEST PUSH1 0x20 DUP1 DUP3 MSTORE PUSH1 0xE SWAP1 DUP3 ADD MSTORE PUSH14 0x139BDD08185D5D1A1BDC9A5E9959 PUSH1 0x92 SHL PUSH1 0x40 DUP3 ADD MSTORE PUSH1 0x60 ADD SWAP1 JUMP JUMPDEST PUSH4 0x4E487B71 PUSH1 0xE0 SHL PUSH1 0x0 MSTORE PUSH1 0x11 PUSH1 0x4 MSTORE PUSH1 0x24 PUSH1 0x0 REVERT JUMPDEST DUP1 DUP3 ADD DUP1 DUP3 GT ISZERO PUSH2 0x36E1 JUMPI PUSH2 0x36E1 PUSH2 0x36B8 JUMP JUMPDEST SWAP3 SWAP2 POP POP JUMP JUMPDEST PUSH1 0x0 PUSH1 0x1 DUP3 ADD PUSH2 0x36F9 JUMPI PUSH2 0x36F9 PUSH2 0x36B8 JUMP JUMPDEST POP PUSH1 0x1 ADD SWAP1 JUMP JUMPDEST DUP3 DUP2 MSTORE PUSH1 0x40 DUP2 ADD PUSH2 0x3289 PUSH1 0x20 DUP4 ADD DUP5 PUSH2 0x30B7 JUMP JUMPDEST DUP1 DUP3 MUL DUP2 ISZERO DUP3 DUP3 DIV DUP5 EQ OR PUSH2 0x36E1 JUMPI PUSH2 0x36E1 PUSH2 0x36B8 JUMP JUMPDEST PUSH1 0x0 DUP3 PUSH2 0x3748 JUMPI PUSH4 0x4E487B71 PUSH1 0xE0 SHL PUSH1 0x0 MSTORE PUSH1 0x12 PUSH1 0x4 MSTORE PUSH1 0x24 PUSH1 0x0 REVERT JUMPDEST POP DIV SWAP1 JUMP JUMPDEST DUP2 DUP2 SUB DUP2 DUP2 GT ISZERO PUSH2 0x36E1 JUMPI PUSH2 0x36E1 PUSH2 0x36B8 JUMP INVALID SWAP12 PUSH24 0x9B17422D0DF92223018B32B4D1FA46E071723D6817E2486D STOP EXTCODESIZE 0xEC 0xC5 PUSH0 STOP LOG2 PUSH5 0x6970667358 0x22 SLT KECCAK256 0xC1 SWAP15 0xE0 CODECOPY 0x4D 0xC1 0xD2 NUMBER ADD LT PUSH18 0x32FD7E7DB952A2CD850E8E1D735086813BBF SWAP8 0xE8 ORIGIN PUSH5 0x736F6C6343 STOP ADDMOD EQ STOP CALLER "},"methodIdentifiers":{"MS_COMPLETED()":"18ff9305","MS_DISPUTED()":"12260f88","MS_PENDING()":"6825104d","MS_RESOLVED()":"3ac19846","aiOracle()":"31b221cd","approve(bytes32)":"a53a1adf","completeJob(bytes32)":"991e0139","createEscrow(bytes32,address,address,uint256,uint8,uint256[])":"801054ae","deposit(bytes32)":"b214faa5","dispute(bytes32,bytes32)":"82cbf88b","disputeMilestone(bytes32,uint256,bytes32)":"dc8b728d","escrowExists(bytes32)":"7835ba33","escrows(bytes32)":"2d83549c","getEscrow(bytes32)":"f023b811","owner()":"8da5cb5b","platformFee()":"26232a2e","platformWallet()":"fa2af9da","rejectJob(bytes32)":"d8972491","releaseMilestone(bytes32,uint256)":"6f6c8fbb","renounceOwnership()":"715018a6","resolve(bytes32,address)":"d1686604","resolveMilestone(bytes32,uint256,address)":"ef9d037c","setAiOracle(address)":"fda1fd83","setPlatformFee(uint256)":"12e8e2c3","setPlatformWallet(address)":"8831e9cf","submitDefense(bytes32,bytes32)":"ffabbf4b","submitDeliverable(bytes32,bytes32)":"d46600aa","submitInitialEvidence(bytes32,bytes32)":"929eb2a3","submitMilestoneDefense(bytes32,uint256,bytes32)":"1dff6dc7","submitMilestoneDeliverable(bytes32,uint256,bytes32)":"01e2f24a","transferOwnership(address)":"f2fde38b","usdc()":"3e413bee"}}}}}