{
  "_format": "hh-sol-artifact-1",
  "contractName": "ArcEscrow",
  "sourceName": "contracts/ArcEscrow.sol",
  "abi": [
    {
      "inputs": [
        {
          "internalType": "address",
          "name": "_usdc",
          "type": "address"
        },
        {
          "internalType": "address",
          "name": "_aiOracle",
          "type": "address"
        }
      ],
      "stateMutability": "nonpayable",
      "type": "constructor"
    },
    {
      "inputs": [
        {
          "internalType": "address",
          "name": "owner",
          "type": "address"
        }
      ],
      "name": "OwnableInvalidOwner",
      "type": "error"
    },
    {
      "inputs": [
        {
          "internalType": "address",
          "name": "account",
          "type": "address"
        }
      ],
      "name": "OwnableUnauthorizedAccount",
      "type": "error"
    },
    {
      "inputs": [
        {
          "internalType": "address",
          "name": "token",
          "type": "address"
        }
      ],
      "name": "SafeERC20FailedOperation",
      "type": "error"
    },
    {
      "anonymous": false,
      "inputs": [
        {
          "indexed": true,
          "internalType": "address",
          "name": "oldOracle",
          "type": "address"
        },
        {
          "indexed": true,
          "internalType": "address",
          "name": "newOracle",
          "type": "address"
        }
      ],
      "name": "AiOracleUpdated",
      "type": "event"
    },
    {
      "anonymous": false,
      "inputs": [
        {
          "indexed": true,
          "internalType": "bytes32",
          "name": "id",
          "type": "bytes32"
        },
        {
          "indexed": true,
          "internalType": "address",
          "name": "party",
          "type": "address"
        },
        {
          "indexed": false,
          "internalType": "bool",
          "name": "buyerApproved",
          "type": "bool"
        },
        {
          "indexed": false,
          "internalType": "bool",
          "name": "sellerApproved",
          "type": "bool"
        }
      ],
      "name": "Approved",
      "type": "event"
    },
    {
      "anonymous": false,
      "inputs": [
        {
          "indexed": true,
          "internalType": "bytes32",
          "name": "id",
          "type": "bytes32"
        },
        {
          "indexed": true,
          "internalType": "address",
          "name": "buyer",
          "type": "address"
        },
        {
          "indexed": false,
          "internalType": "uint256",
          "name": "amount",
          "type": "uint256"
        }
      ],
      "name": "Deposited",
      "type": "event"
    },
    {
      "anonymous": false,
      "inputs": [
        {
          "indexed": true,
          "internalType": "bytes32",
          "name": "id",
          "type": "bytes32"
        },
        {
          "indexed": true,
          "internalType": "address",
          "name": "initiator",
          "type": "address"
        }
      ],
      "name": "Disputed",
      "type": "event"
    },
    {
      "anonymous": false,
      "inputs": [
        {
          "indexed": true,
          "internalType": "bytes32",
          "name": "id",
          "type": "bytes32"
        },
        {
          "indexed": true,
          "internalType": "address",
          "name": "buyer",
          "type": "address"
        },
        {
          "indexed": true,
          "internalType": "address",
          "name": "seller",
          "type": "address"
        },
        {
          "indexed": false,
          "internalType": "uint256",
          "name": "amount",
          "type": "uint256"
        },
        {
          "indexed": false,
          "internalType": "enum ArcEscrow.Mode",
          "name": "mode",
          "type": "uint8"
        }
      ],
      "name": "EscrowCreated",
      "type": "event"
    },
    {
      "anonymous": false,
      "inputs": [
        {
          "indexed": true,
          "internalType": "address",
          "name": "previousOwner",
          "type": "address"
        },
        {
          "indexed": true,
          "internalType": "address",
          "name": "newOwner",
          "type": "address"
        }
      ],
      "name": "OwnershipTransferred",
      "type": "event"
    },
    {
      "anonymous": false,
      "inputs": [
        {
          "indexed": true,
          "internalType": "bytes32",
          "name": "id",
          "type": "bytes32"
        },
        {
          "indexed": true,
          "internalType": "address",
          "name": "seller",
          "type": "address"
        },
        {
          "indexed": false,
          "internalType": "uint256",
          "name": "amount",
          "type": "uint256"
        }
      ],
      "name": "Released",
      "type": "event"
    },
    {
      "anonymous": false,
      "inputs": [
        {
          "indexed": true,
          "internalType": "bytes32",
          "name": "id",
          "type": "bytes32"
        },
        {
          "indexed": true,
          "internalType": "address",
          "name": "winner",
          "type": "address"
        },
        {
          "indexed": false,
          "internalType": "uint256",
          "name": "amount",
          "type": "uint256"
        }
      ],
      "name": "Resolved",
      "type": "event"
    },
    {
      "inputs": [],
      "name": "aiOracle",
      "outputs": [
        {
          "internalType": "address",
          "name": "",
          "type": "address"
        }
      ],
      "stateMutability": "view",
      "type": "function"
    },
    {
      "inputs": [
        {
          "internalType": "bytes32",
          "name": "id",
          "type": "bytes32"
        }
      ],
      "name": "approve",
      "outputs": [],
      "stateMutability": "nonpayable",
      "type": "function"
    },
    {
      "inputs": [
        {
          "internalType": "bytes32",
          "name": "id",
          "type": "bytes32"
        },
        {
          "internalType": "address",
          "name": "buyer",
          "type": "address"
        },
        {
          "internalType": "address",
          "name": "seller",
          "type": "address"
        },
        {
          "internalType": "uint256",
          "name": "amount",
          "type": "uint256"
        },
        {
          "internalType": "enum ArcEscrow.Mode",
          "name": "mode",
          "type": "uint8"
        }
      ],
      "name": "createEscrow",
      "outputs": [],
      "stateMutability": "nonpayable",
      "type": "function"
    },
    {
      "inputs": [
        {
          "internalType": "bytes32",
          "name": "id",
          "type": "bytes32"
        }
      ],
      "name": "deposit",
      "outputs": [],
      "stateMutability": "nonpayable",
      "type": "function"
    },
    {
      "inputs": [
        {
          "internalType": "bytes32",
          "name": "id",
          "type": "bytes32"
        }
      ],
      "name": "dispute",
      "outputs": [],
      "stateMutability": "nonpayable",
      "type": "function"
    },
    {
      "inputs": [
        {
          "internalType": "bytes32",
          "name": "",
          "type": "bytes32"
        }
      ],
      "name": "escrowExists",
      "outputs": [
        {
          "internalType": "bool",
          "name": "",
          "type": "bool"
        }
      ],
      "stateMutability": "view",
      "type": "function"
    },
    {
      "inputs": [
        {
          "internalType": "bytes32",
          "name": "",
          "type": "bytes32"
        }
      ],
      "name": "escrows",
      "outputs": [
        {
          "internalType": "bytes32",
          "name": "id",
          "type": "bytes32"
        },
        {
          "internalType": "address",
          "name": "buyer",
          "type": "address"
        },
        {
          "internalType": "address",
          "name": "seller",
          "type": "address"
        },
        {
          "internalType": "uint256",
          "name": "amount",
          "type": "uint256"
        },
        {
          "internalType": "enum ArcEscrow.Mode",
          "name": "mode",
          "type": "uint8"
        },
        {
          "internalType": "enum ArcEscrow.Status",
          "name": "status",
          "type": "uint8"
        },
        {
          "internalType": "bool",
          "name": "buyerApproved",
          "type": "bool"
        },
        {
          "internalType": "bool",
          "name": "sellerApproved",
          "type": "bool"
        }
      ],
      "stateMutability": "view",
      "type": "function"
    },
    {
      "inputs": [
        {
          "internalType": "bytes32",
          "name": "id",
          "type": "bytes32"
        }
      ],
      "name": "getEscrow",
      "outputs": [
        {
          "components": [
            {
              "internalType": "bytes32",
              "name": "id",
              "type": "bytes32"
            },
            {
              "internalType": "address",
              "name": "buyer",
              "type": "address"
            },
            {
              "internalType": "address",
              "name": "seller",
              "type": "address"
            },
            {
              "internalType": "uint256",
              "name": "amount",
              "type": "uint256"
            },
            {
              "internalType": "enum ArcEscrow.Mode",
              "name": "mode",
              "type": "uint8"
            },
            {
              "internalType": "enum ArcEscrow.Status",
              "name": "status",
              "type": "uint8"
            },
            {
              "internalType": "bool",
              "name": "buyerApproved",
              "type": "bool"
            },
            {
              "internalType": "bool",
              "name": "sellerApproved",
              "type": "bool"
            }
          ],
          "internalType": "struct ArcEscrow.Escrow",
          "name": "",
          "type": "tuple"
        }
      ],
      "stateMutability": "view",
      "type": "function"
    },
    {
      "inputs": [],
      "name": "owner",
      "outputs": [
        {
          "internalType": "address",
          "name": "",
          "type": "address"
        }
      ],
      "stateMutability": "view",
      "type": "function"
    },
    {
      "inputs": [],
      "name": "renounceOwnership",
      "outputs": [],
      "stateMutability": "nonpayable",
      "type": "function"
    },
    {
      "inputs": [
        {
          "internalType": "bytes32",
          "name": "id",
          "type": "bytes32"
        },
        {
          "internalType": "address",
          "name": "winner",
          "type": "address"
        }
      ],
      "name": "resolve",
      "outputs": [],
      "stateMutability": "nonpayable",
      "type": "function"
    },
    {
      "inputs": [
        {
          "internalType": "address",
          "name": "_aiOracle",
          "type": "address"
        }
      ],
      "name": "setAiOracle",
      "outputs": [],
      "stateMutability": "nonpayable",
      "type": "function"
    },
    {
      "inputs": [
        {
          "internalType": "address",
          "name": "newOwner",
          "type": "address"
        }
      ],
      "name": "transferOwnership",
      "outputs": [],
      "stateMutability": "nonpayable",
      "type": "function"
    },
    {
      "inputs": [],
      "name": "usdc",
      "outputs": [
        {
          "internalType": "contract IERC20",
          "name": "",
          "type": "address"
        }
      ],
      "stateMutability": "view",
      "type": "function"
    }
  ],
  "bytecode": "0x60a06040523480156200001157600080fd5b50604051620015c6380380620015c6833981016040819052620000349162000156565b33806200005c57604051631e4fbdf760e01b8152600060048201526024015b60405180910390fd5b6200006781620000e9565b506001600160a01b038216620000c05760405162461bcd60e51b815260206004820152601460248201527f496e76616c696420555344432061646472657373000000000000000000000000604482015260640162000053565b6001600160a01b03918216608052600180546001600160a01b031916919092161790556200018e565b600080546001600160a01b038381166001600160a01b0319831681178455604051919092169283917f8be0079c531659141344cd1fd0a4f28419497f9722a3daafe3b4186f6b6457e09190a35050565b80516001600160a01b03811681146200015157600080fd5b919050565b600080604083850312156200016a57600080fd5b620001758362000139565b9150620001856020840162000139565b90509250929050565b608051611407620001bf600039600081816101a4015281816108c401528181610b9d0152610da101526114076000f3fe608060405234801561001057600080fd5b50600436106100ea5760003560e01c8063a53a1adf1161008c578063d168660411610066578063d168660414610260578063f023b81114610273578063f2fde38b14610293578063fda1fd83146102a657600080fd5b8063a53a1adf14610227578063add98c701461023a578063b214faa51461024d57600080fd5b8063715018a6116100c8578063715018a6146101c65780637835ba33146101d05780637f2e295f146102035780638da5cb5b1461021657600080fd5b80632d83549c146100ef57806331b221cd146101745780633e413bee1461019f575b600080fd5b6101576100fd36600461119f565b60026020819052600091825260409091208054600182015492820154600383015460049093015491936001600160a01b039081169391169160ff808216916101008104821691620100008204811691630100000090041688565b60405161016b9897969594939291906111f2565b60405180910390f35b600154610187906001600160a01b031681565b6040516001600160a01b03909116815260200161016b565b6101877f000000000000000000000000000000000000000000000000000000000000000081565b6101ce6102b9565b005b6101f36101de36600461119f565b60036020526000908152604090205460ff1681565b604051901515815260200161016b565b6101ce610211366004611269565b6102cd565b6000546001600160a01b0316610187565b6101ce61023536600461119f565b61068e565b6101ce61024836600461119f565b610942565b6101ce61025b36600461119f565b610a9c565b6101ce61026e3660046112c8565b610c19565b61028661028136600461119f565b610e09565b60405161016b91906112f4565b6101ce6102a1366004611371565b610f3d565b6101ce6102b4366004611371565b610f7b565b6102c1610fdf565b6102cb600061100c565b565b6000546001600160a01b03163314806102f057506001546001600160a01b031633145b806103035750336001600160a01b038516145b6103455760405162461bcd60e51b815260206004820152600e60248201526d139bdd08185d5d1a1bdc9a5e995960921b60448201526064015b60405180910390fd5b60008581526003602052604090205460ff16156103965760405162461bcd60e51b815260206004820152600f60248201526e125108185b1c9958591e481d5cd959608a1b604482015260640161033c565b6001600160a01b0384166103dc5760405162461bcd60e51b815260206004820152600d60248201526c24b73b30b634b210313abcb2b960991b604482015260640161033c565b6001600160a01b0383166104235760405162461bcd60e51b815260206004820152600e60248201526d24b73b30b634b21039b2b63632b960911b604482015260640161033c565b836001600160a01b0316836001600160a01b03160361047d5760405162461bcd60e51b8152602060048201526016602482015275213abcb2b91031b0b73737ba1031329039b2b63632b960511b604482015260640161033c565b600082116104cd5760405162461bcd60e51b815260206004820152601760248201527f416d6f756e74206d75737420626520706f736974697665000000000000000000604482015260640161033c565b604051806101000160405280868152602001856001600160a01b03168152602001846001600160a01b03168152602001838152602001826003811115610515576105156111b8565b8152602001600081526000602080830182905260409283018290528882526002808252918390208451815590840151600180830180546001600160a01b03199081166001600160a01b03948516179091559486015193830180549095169390911692909217909255606083015160038084019190915560808401516004840180549193909260ff199092169184908111156105b2576105b26111b8565b021790555060a08201518160040160016101000a81548160ff021916908360048111156105e1576105e16111b8565b021790555060c08201516004909101805460e090930151151563010000000263ff0000001992151562010000029290921663ffff0000199093169290921717905560008581526003602052604090819020805460ff19166001179055516001600160a01b03808516919086169087907f384d64c3fc97a834eb33e05972cdde75d11dcba08d62d708fac8779c36f7bb9f9061067f9087908790611393565b60405180910390a45050505050565b600081815260036020526040902054819060ff166106be5760405162461bcd60e51b815260040161033c906113a7565b60008281526002602052604090206001015482906001600160a01b03163314806107025750600081815260026020819052604090912001546001600160a01b031633145b61073c5760405162461bcd60e51b815260206004820152600b60248201526a4e6f74206120706172747960a81b604482015260640161033c565b60008381526002602052604090206001600482810154610100900460ff169081111561076a5761076a6111b8565b146107a45760405162461bcd60e51b815260206004820152600a6024820152694e6f742061637469766560b01b604482015260640161033c565b60018101546001600160a01b031633036107e957600481015462010000900460ff16156107d15750505050565b60048101805462ff0000191662010000179055610819565b60048101546301000000900460ff16156108035750505050565b60048101805463ff000000191663010000001790555b60048101546040805160ff620100008404811615158252630100000090930490921615156020830152339186917f09bd4565894079a5b8d47eb3648f88031cbd9351d794a2997116ea445b24ecae910160405180910390a3600481015462010000900460ff168015610896575060048101546301000000900460ff165b1561093b5760048101805461ff001916610200179055600281015460038201546108ee916001600160a01b037f000000000000000000000000000000000000000000000000000000000000000081169291169061105c565b600281015460038201546040519081526001600160a01b039091169085907fc8fa66dff4b9073528c3f1bf21a8dc9a18fdf09847e88e96188bc953aef519f0906020015b60405180910390a35b505b505050565b600081815260036020526040902054819060ff166109725760405162461bcd60e51b815260040161033c906113a7565b60008281526002602052604090206001015482906001600160a01b03163314806109b65750600081815260026020819052604090912001546001600160a01b031633145b6109f05760405162461bcd60e51b815260206004820152600b60248201526a4e6f74206120706172747960a81b604482015260640161033c565b60008381526002602052604090206001600482810154610100900460ff1690811115610a1e57610a1e6111b8565b14610a585760405162461bcd60e51b815260206004820152600a6024820152694e6f742061637469766560b01b604482015260640161033c565b60048101805461ff001916610300179055604051339085907f0ba174eb1c3530da63920b98261208eeb30b48447d1cfcbbdf116fd4ee8c62db90600090a350505050565b600081815260036020526040902054819060ff16610acc5760405162461bcd60e51b815260040161033c906113a7565b600082815260026020526040902060018101546001600160a01b03163314610b2f5760405162461bcd60e51b815260206004820152601660248201527513db9b1e48189d5e595c8818d85b8819195c1bdcda5d60521b604482015260640161033c565b6000600482810154610100900460ff1690811115610b4f57610b4f6111b8565b14610b8a5760405162461bcd60e51b815260206004820152600b60248201526a4e6f742070656e64696e6760a81b604482015260640161033c565b6003810154610bc7906001600160a01b037f0000000000000000000000000000000000000000000000000000000000000000169033903090611091565b60048101805461ff0019166101001790556003810154604051908152339084907f87d4c0b5e30d6808bc8a94ba1c4d839b29d664151551a31753387ee9ef48429b9060200160405180910390a3505050565b600082815260036020526040902054829060ff16610c495760405162461bcd60e51b815260040161033c906113a7565b6001546001600160a01b0316331480610c6c57506000546001600160a01b031633145b610ca95760405162461bcd60e51b815260206004820152600e60248201526d139bdd08185d5d1a1bdc9a5e995960921b604482015260640161033c565b60008381526002602052604090206003600482810154610100900460ff1690811115610cd757610cd76111b8565b14610d135760405162461bcd60e51b815260206004820152600c60248201526b139bdd08191a5cdc1d5d195960a21b604482015260640161033c565b60018101546001600160a01b0384811691161480610d40575060028101546001600160a01b038481169116145b610d7d5760405162461bcd60e51b815260206004820152600e60248201526d24b73b30b634b2103bb4b73732b960911b604482015260640161033c565b60048101805461ff0019166104001790556003810154610dc9906001600160a01b037f00000000000000000000000000000000000000000000000000000000000000001690859061105c565b826001600160a01b0316847fc4422b16dedd76960934beae872654a813107c23ececf3d3d23df59367676dfb836003015460405161093291815260200190565b610e5160408051610100810182526000808252602082018190529181018290526060810182905290608082019081526020016000815260006020820181905260409091015290565b6000828152600260208181526040928390208351610100810185528154815260018201546001600160a01b0390811693820193909352928101549091169282019290925260038083015460608301526004830154919291608084019160ff90911690811115610ec257610ec26111b8565b6003811115610ed357610ed36111b8565b81526020016004820160019054906101000a900460ff166004811115610efb57610efb6111b8565b6004811115610f0c57610f0c6111b8565b81526004919091015460ff620100008204811615156020840152630100000090910416151560409091015292915050565b610f45610fdf565b6001600160a01b038116610f6f57604051631e4fbdf760e01b81526000600482015260240161033c565b610f788161100c565b50565b610f83610fdf565b6001546040516001600160a01b038084169216907f3b4611e1353cfad112fa73d67fe9a859ea2b675e92b631b109e1fd1857c43d3090600090a3600180546001600160a01b0319166001600160a01b0392909216919091179055565b6000546001600160a01b031633146102cb5760405163118cdaa760e01b815233600482015260240161033c565b600080546001600160a01b038381166001600160a01b0319831681178455604051919092169283917f8be0079c531659141344cd1fd0a4f28419497f9722a3daafe3b4186f6b6457e09190a35050565b61106983838360016110c7565b61093d57604051635274afe760e01b81526001600160a01b038416600482015260240161033c565b61109f84848484600161112d565b61093b57604051635274afe760e01b81526001600160a01b038516600482015260240161033c565b60405163a9059cbb60e01b60008181526001600160a01b038616600452602485905291602083604481808b5af192506001600051148316611121578383151615611114573d6000823e3d81fd5b6000873b113d1516831692505b60405250949350505050565b6040516323b872dd60e01b60008181526001600160a01b038781166004528616602452604485905291602083606481808c5af19250600160005114831661118d578383151615611180573d6000823e3d81fd5b6000883b113d1516831692505b60405250600060605295945050505050565b6000602082840312156111b157600080fd5b5035919050565b634e487b7160e01b600052602160045260246000fd5b600481106111de576111de6111b8565b9052565b600581106111de576111de6111b8565b8881526001600160a01b0388811660208301528716604082015260608101869052610100810161122560808301876111ce565b61123260a08301866111e2565b92151560c082015290151560e0909101529695505050505050565b80356001600160a01b038116811461126457600080fd5b919050565b600080600080600060a0868803121561128157600080fd5b853594506112916020870161124d565b935061129f6040870161124d565b9250606086013591506080860135600481106112ba57600080fd5b809150509295509295909350565b600080604083850312156112db57600080fd5b823591506112eb6020840161124d565b90509250929050565b60006101008201905082518252602083015160018060a01b038082166020850152806040860151166040850152505060608301516060830152608083015161133f60808401826111ce565b5060a083015161135260a08401826111e2565b5060c0830151151560c083015260e0830151151560e083015292915050565b60006020828403121561138357600080fd5b61138c8261124d565b9392505050565b8281526040810161138c60208301846111ce565b60208082526010908201526f115cd8dc9bddc81b9bdd08199bdd5b9960821b60408201526060019056fea2646970667358221220de464875b6eb2582288e73ea66e15ff9f9e84f6faab97574b64c5f371a11272464736f6c63430008140033",
  "linkReferences": {},
  "deployedLinkReferences": {}
}